{
  "contractName": "Primary",
  "abi": [
    {
      "inputs": [
        {
          "internalType": "string",
          "name": "name",
          "type": "string"
        },
        {
          "internalType": "string",
          "name": "description",
          "type": "string"
        }
      ],
      "stateMutability": "nonpayable",
      "type": "constructor"
    },
    {
      "anonymous": false,
      "inputs": [
        {
          "indexed": true,
          "internalType": "address",
          "name": "previousOwner",
          "type": "address"
        },
        {
          "indexed": true,
          "internalType": "address",
          "name": "newOwner",
          "type": "address"
        }
      ],
      "name": "OwnershipTransferred",
      "type": "event"
    },
    {
      "inputs": [
        {
          "internalType": "address",
          "name": "authAddr",
          "type": "address"
        },
        {
          "internalType": "enum Resource.Role",
          "name": "role",
          "type": "uint8"
        }
      ],
      "name": "addAuthorized",
      "outputs": [],
      "stateMutability": "nonpayable",
      "type": "function"
    },
    {
      "inputs": [
        {
          "internalType": "string",
          "name": "name",
          "type": "string"
        },
        {
          "internalType": "bytes",
          "name": "parameters",
          "type": "bytes"
        }
      ],
      "name": "addEvent",
      "outputs": [],
      "stateMutability": "nonpayable",
      "type": "function"
    },
    {
      "inputs": [
        {
          "internalType": "address",
          "name": "newProducer",
          "type": "address"
        }
      ],
      "name": "changeProducer",
      "outputs": [],
      "stateMutability": "nonpayable",
      "type": "function"
    },
    {
      "inputs": [],
      "name": "getOwner",
      "outputs": [
        {
          "internalType": "address",
          "name": "",
          "type": "address"
        }
      ],
      "stateMutability": "view",
      "type": "function",
      "constant": true
    },
    {
      "inputs": [],
      "name": "owner",
      "outputs": [
        {
          "internalType": "address",
          "name": "",
          "type": "address"
        }
      ],
      "stateMutability": "view",
      "type": "function",
      "constant": true
    },
    {
      "inputs": [
        {
          "internalType": "uint256",
          "name": "eventNr",
          "type": "uint256"
        }
      ],
      "name": "readEvent",
      "outputs": [
        {
          "components": [
            {
              "internalType": "uint256",
              "name": "dateTime",
              "type": "uint256"
            },
            {
              "internalType": "address",
              "name": "registrant",
              "type": "address"
            },
            {
              "internalType": "string",
              "name": "name",
              "type": "string"
            },
            {
              "internalType": "bytes",
              "name": "parameters",
              "type": "bytes"
            }
          ],
          "internalType": "struct Resource.AgriEvent",
          "name": "",
          "type": "tuple"
        }
      ],
      "stateMutability": "view",
      "type": "function",
      "constant": true
    },
    {
      "inputs": [],
      "name": "renounceOwnership",
      "outputs": [],
      "stateMutability": "nonpayable",
      "type": "function"
    },
    {
      "inputs": [
        {
          "internalType": "address",
          "name": "newOwner",
          "type": "address"
        }
      ],
      "name": "transferOwnership",
      "outputs": [],
      "stateMutability": "nonpayable",
      "type": "function"
    }
  ],
  "bytecode": "0x60806040523480156200001157600080fd5b506040516200177e3803806200177e8339818101604052810190620000379190620003ae565b8181620000596200004d6200009560201b60201c565b6200009d60201b60201c565b81600290805190602001906200007192919062000161565b5080600390805190602001906200008a92919062000161565b505050505062000498565b600033905090565b60008060009054906101000a900473ffffffffffffffffffffffffffffffffffffffff169050816000806101000a81548173ffffffffffffffffffffffffffffffffffffffff021916908373ffffffffffffffffffffffffffffffffffffffff1602179055508173ffffffffffffffffffffffffffffffffffffffff168173ffffffffffffffffffffffffffffffffffffffff167f8be0079c531659141344cd1fd0a4f28419497f9722a3daafe3b4186f6b6457e060405160405180910390a35050565b8280546200016f9062000462565b90600052602060002090601f016020900481019282620001935760008555620001df565b82601f10620001ae57805160ff1916838001178555620001df565b82800160010185558215620001df579182015b82811115620001de578251825591602001919060010190620001c1565b5b509050620001ee9190620001f2565b5090565b5b808211156200020d576000816000905550600101620001f3565b5090565b6000604051905090565b600080fd5b600080fd5b600080fd5b600080fd5b6000601f19601f8301169050919050565b7f4e487b7100000000000000000000000000000000000000000000000000000000600052604160045260246000fd5b6200027a826200022f565b810181811067ffffffffffffffff821117156200029c576200029b62000240565b5b80604052505050565b6000620002b162000211565b9050620002bf82826200026f565b919050565b600067ffffffffffffffff821115620002e257620002e162000240565b5b620002ed826200022f565b9050602081019050919050565b60005b838110156200031a578082015181840152602081019050620002fd565b838111156200032a576000848401525b50505050565b6000620003476200034184620002c4565b620002a5565b9050828152602081018484840111156200036657620003656200022a565b5b62000373848285620002fa565b509392505050565b600082601f83011262000393576200039262000225565b5b8151620003a584826020860162000330565b91505092915050565b60008060408385031215620003c857620003c76200021b565b5b600083015167ffffffffffffffff811115620003e957620003e862000220565b5b620003f7858286016200037b565b925050602083015167ffffffffffffffff8111156200041b576200041a62000220565b5b62000429858286016200037b565b9150509250929050565b7f4e487b7100000000000000000000000000000000000000000000000000000000600052602260045260246000fd5b600060028204905060018216806200047b57607f821691505b6020821081141562000492576200049162000433565b5b50919050565b6112d680620004a86000396000f3fe608060405234801561001057600080fd5b50600436106100885760003560e01c80638da5cb5b1161005b5780638da5cb5b146100ed578063d4e4c84d1461010b578063e1ba30a914610127578063f2fde38b1461015757610088565b8063349846fc1461008d578063715018a6146100a9578063798759e9146100b3578063893d20e8146100cf575b600080fd5b6100a760048036038101906100a29190610b3b565b610173565b005b6100b1610233565b005b6100cd60048036038101906100c89190610b8d565b6102bb565b005b6100d76103a2565b6040516100e49190610bdc565b60405180910390f35b6100f56103b1565b6040516101029190610bdc565b60405180910390f35b61012560048036038101906101209190610dde565b6103da565b005b610141600480360381019061013c9190610e8c565b610588565b60405161014e919061101e565b60405180910390f35b610171600480360381019061016c9190610b3b565b61079e565b005b61017b610896565b73ffffffffffffffffffffffffffffffffffffffff166101996103b1565b73ffffffffffffffffffffffffffffffffffffffff16146101ef576040517f08c379a00000000000000000000000000000000000000000000000000000000081526004016101e69061109d565b60405180910390fd5b80600160006101000a81548173ffffffffffffffffffffffffffffffffffffffff021916908373ffffffffffffffffffffffffffffffffffffffff16021790555050565b61023b610896565b73ffffffffffffffffffffffffffffffffffffffff166102596103b1565b73ffffffffffffffffffffffffffffffffffffffff16146102af576040517f08c379a00000000000000000000000000000000000000000000000000000000081526004016102a69061109d565b60405180910390fd5b6102b9600061089e565b565b6102c3610896565b73ffffffffffffffffffffffffffffffffffffffff166102e16103b1565b73ffffffffffffffffffffffffffffffffffffffff1614610337576040517f08c379a000000000000000000000000000000000000000000000000000000000815260040161032e9061109d565b60405180910390fd5b80600960008473ffffffffffffffffffffffffffffffffffffffff1673ffffffffffffffffffffffffffffffffffffffff16815260200190815260200160002060006101000a81548160ff02191690836006811115610399576103986110bd565b5b02179055505050565b60006103ac6103b1565b905090565b60008060009054906101000a900473ffffffffffffffffffffffffffffffffffffffff16905090565b6103e26103b1565b73ffffffffffffffffffffffffffffffffffffffff163373ffffffffffffffffffffffffffffffffffffffff16148061048c57506000600681111561042a576104296110bd565b5b600960003373ffffffffffffffffffffffffffffffffffffffff1673ffffffffffffffffffffffffffffffffffffffff16815260200190815260200160002060009054906101000a900460ff166006811115610489576104886110bd565b5b14155b61049557600080fd5b600460405180608001604052804281526020013373ffffffffffffffffffffffffffffffffffffffff1681526020018481526020018381525090806001815401808255809150506001900390600052602060002090600402016000909190919091506000820151816000015560208201518160010160006101000a81548173ffffffffffffffffffffffffffffffffffffffff021916908373ffffffffffffffffffffffffffffffffffffffff1602179055506040820151816002019080519060200190610564929190610962565b5060608201518160030190805190602001906105819291906109e8565b5050505050565b610590610a6e565b816000811015806105a657506004805490508111155b6105e5576040517f08c379a00000000000000000000000000000000000000000000000000000000081526004016105dc9061115e565b60405180910390fd5b600483815481106105f9576105f861117e565b5b9060005260206000209060040201604051806080016040529081600082015481526020016001820160009054906101000a900473ffffffffffffffffffffffffffffffffffffffff1673ffffffffffffffffffffffffffffffffffffffff1673ffffffffffffffffffffffffffffffffffffffff168152602001600282018054610682906111dc565b80601f01602080910402602001604051908101604052809291908181526020018280546106ae906111dc565b80156106fb5780601f106106d0576101008083540402835291602001916106fb565b820191906000526020600020905b8154815290600101906020018083116106de57829003601f168201915b50505050508152602001600382018054610714906111dc565b80601f0160208091040260200160405190810160405280929190818152602001828054610740906111dc565b801561078d5780601f106107625761010080835404028352916020019161078d565b820191906000526020600020905b81548152906001019060200180831161077057829003601f168201915b505050505081525050915050919050565b6107a6610896565b73ffffffffffffffffffffffffffffffffffffffff166107c46103b1565b73ffffffffffffffffffffffffffffffffffffffff161461081a576040517f08c379a00000000000000000000000000000000000000000000000000000000081526004016108119061109d565b60405180910390fd5b600073ffffffffffffffffffffffffffffffffffffffff168173ffffffffffffffffffffffffffffffffffffffff16141561088a576040517f08c379a000000000000000000000000000000000000000000000000000000000815260040161088190611280565b60405180910390fd5b6108938161089e565b50565b600033905090565b60008060009054906101000a900473ffffffffffffffffffffffffffffffffffffffff169050816000806101000a81548173ffffffffffffffffffffffffffffffffffffffff021916908373ffffffffffffffffffffffffffffffffffffffff1602179055508173ffffffffffffffffffffffffffffffffffffffff168173ffffffffffffffffffffffffffffffffffffffff167f8be0079c531659141344cd1fd0a4f28419497f9722a3daafe3b4186f6b6457e060405160405180910390a35050565b82805461096e906111dc565b90600052602060002090601f01602090048101928261099057600085556109d7565b82601f106109a957805160ff19168380011785556109d7565b828001600101855582156109d7579182015b828111156109d65782518255916020019190600101906109bb565b5b5090506109e49190610aac565b5090565b8280546109f4906111dc565b90600052602060002090601f016020900481019282610a165760008555610a5d565b82601f10610a2f57805160ff1916838001178555610a5d565b82800160010185558215610a5d579182015b82811115610a5c578251825591602001919060010190610a41565b5b509050610a6a9190610aac565b5090565b604051806080016040528060008152602001600073ffffffffffffffffffffffffffffffffffffffff16815260200160608152602001606081525090565b5b80821115610ac5576000816000905550600101610aad565b5090565b6000604051905090565b600080fd5b600080fd5b600073ffffffffffffffffffffffffffffffffffffffff82169050919050565b6000610b0882610add565b9050919050565b610b1881610afd565b8114610b2357600080fd5b50565b600081359050610b3581610b0f565b92915050565b600060208284031215610b5157610b50610ad3565b5b6000610b5f84828501610b26565b91505092915050565b60078110610b7557600080fd5b50565b600081359050610b8781610b68565b92915050565b60008060408385031215610ba457610ba3610ad3565b5b6000610bb285828601610b26565b9250506020610bc385828601610b78565b9150509250929050565b610bd681610afd565b82525050565b6000602082019050610bf16000830184610bcd565b92915050565b600080fd5b600080fd5b6000601f19601f8301169050919050565b7f4e487b7100000000000000000000000000000000000000000000000000000000600052604160045260246000fd5b610c4a82610c01565b810181811067ffffffffffffffff82111715610c6957610c68610c12565b5b80604052505050565b6000610c7c610ac9565b9050610c888282610c41565b919050565b600067ffffffffffffffff821115610ca857610ca7610c12565b5b610cb182610c01565b9050602081019050919050565b82818337600083830152505050565b6000610ce0610cdb84610c8d565b610c72565b905082815260208101848484011115610cfc57610cfb610bfc565b5b610d07848285610cbe565b509392505050565b600082601f830112610d2457610d23610bf7565b5b8135610d34848260208601610ccd565b91505092915050565b600067ffffffffffffffff821115610d5857610d57610c12565b5b610d6182610c01565b9050602081019050919050565b6000610d81610d7c84610d3d565b610c72565b905082815260208101848484011115610d9d57610d9c610bfc565b5b610da8848285610cbe565b509392505050565b600082601f830112610dc557610dc4610bf7565b5b8135610dd5848260208601610d6e565b91505092915050565b60008060408385031215610df557610df4610ad3565b5b600083013567ffffffffffffffff811115610e1357610e12610ad8565b5b610e1f85828601610d0f565b925050602083013567ffffffffffffffff811115610e4057610e3f610ad8565b5b610e4c85828601610db0565b9150509250929050565b6000819050919050565b610e6981610e56565b8114610e7457600080fd5b50565b600081359050610e8681610e60565b92915050565b600060208284031215610ea257610ea1610ad3565b5b6000610eb084828501610e77565b91505092915050565b610ec281610e56565b82525050565b610ed181610afd565b82525050565b600081519050919050565b600082825260208201905092915050565b60005b83811015610f11578082015181840152602081019050610ef6565b83811115610f20576000848401525b50505050565b6000610f3182610ed7565b610f3b8185610ee2565b9350610f4b818560208601610ef3565b610f5481610c01565b840191505092915050565b600081519050919050565b600082825260208201905092915050565b6000610f8682610f5f565b610f908185610f6a565b9350610fa0818560208601610ef3565b610fa981610c01565b840191505092915050565b6000608083016000830151610fcc6000860182610eb9565b506020830151610fdf6020860182610ec8565b5060408301518482036040860152610ff78282610f26565b915050606083015184820360608601526110118282610f7b565b9150508091505092915050565b600060208201905081810360008301526110388184610fb4565b905092915050565b600082825260208201905092915050565b7f4f776e61626c653a2063616c6c6572206973206e6f7420746865206f776e6572600082015250565b6000611087602083611040565b915061109282611051565b602082019050919050565b600060208201905081810360008301526110b68161107a565b9050919050565b7f4e487b7100000000000000000000000000000000000000000000000000000000600052602160045260246000fd5b7f4552524f523a20546865206576656e74206e756d626572206d7573742062652060008201527f77697468696e2072616e67652100000000000000000000000000000000000000602082015250565b6000611148602d83611040565b9150611153826110ec565b604082019050919050565b600060208201905081810360008301526111778161113b565b9050919050565b7f4e487b7100000000000000000000000000000000000000000000000000000000600052603260045260246000fd5b7f4e487b7100000000000000000000000000000000000000000000000000000000600052602260045260246000fd5b600060028204905060018216806111f457607f821691505b60208210811415611208576112076111ad565b5b50919050565b7f4f776e61626c653a206e6577206f776e657220697320746865207a65726f206160008201527f6464726573730000000000000000000000000000000000000000000000000000602082015250565b600061126a602683611040565b91506112758261120e565b604082019050919050565b600060208201905081810360008301526112998161125d565b905091905056fea264697066735822122023bdf31448d90b8d9777b39eb0e64487c5373c920435de5d0a258499e06dcad564736f6c634300080a0033",
  "immutableReferences": {},
  "source": "// SPDX-License-Identifier: MIT\npragma solidity >=0.4.22 <0.9.0;\n\nimport \"./Resource.sol\";\n\ncontract Primary is Resource {\n  constructor ( string memory name, string memory description )\n    Resource(name, description) {\n\n  } \n}",
  "sourcePath": "/home/mgpop/Studies/Dev/AgriChain_EVM_IOTA.02/contracts/Primary.sol",
  "compiler": {
    "name": "solc",
    "version": "0.8.10+commit.fc410830.Emscripten.clang"
  },
  "schemaVersion": "3.4.4",
  "updatedAt": "2021-12-21T08:01:52.985Z",
  "networkType": "ethereum",
  "devdoc": {
    "kind": "dev",
    "methods": {
      "owner()": {
        "details": "Returns the address of the current owner."
      },
      "renounceOwnership()": {
        "details": "Leaves the contract without owner. It will not be possible to call `onlyOwner` functions anymore. Can only be called by the current owner. NOTE: Renouncing ownership will leave the contract without an owner, thereby removing any functionality that is only available to the owner."
      },
      "transferOwnership(address)": {
        "details": "Transfers ownership of the contract to a new account (`newOwner`). Can only be called by the current owner."
      }
    },
    "version": 1
  },
  "userdoc": {
    "kind": "user",
    "methods": {},
    "version": 1
  }
}