{
  "contractName": "Producer",
  "abi": [
    {
      "inputs": [
        {
          "internalType": "string",
          "name": "name",
          "type": "string"
        },
        {
          "internalType": "string",
          "name": "description",
          "type": "string"
        },
        {
          "internalType": "address",
          "name": "account",
          "type": "address"
        }
      ],
      "stateMutability": "nonpayable",
      "type": "constructor"
    },
    {
      "anonymous": false,
      "inputs": [
        {
          "indexed": true,
          "internalType": "address",
          "name": "previousOwner",
          "type": "address"
        },
        {
          "indexed": true,
          "internalType": "address",
          "name": "newOwner",
          "type": "address"
        }
      ],
      "name": "OwnershipTransferred",
      "type": "event"
    },
    {
      "anonymous": false,
      "inputs": [
        {
          "indexed": true,
          "internalType": "address",
          "name": "addr",
          "type": "address"
        },
        {
          "indexed": true,
          "internalType": "uint256",
          "name": "",
          "type": "uint256"
        },
        {
          "indexed": false,
          "internalType": "string",
          "name": "name",
          "type": "string"
        }
      ],
      "name": "addResourceEvent",
      "type": "event"
    },
    {
      "inputs": [],
      "name": "owner",
      "outputs": [
        {
          "internalType": "address",
          "name": "",
          "type": "address"
        }
      ],
      "stateMutability": "view",
      "type": "function"
    },
    {
      "inputs": [],
      "name": "renounceOwnership",
      "outputs": [],
      "stateMutability": "nonpayable",
      "type": "function"
    },
    {
      "inputs": [
        {
          "internalType": "address",
          "name": "newOwner",
          "type": "address"
        }
      ],
      "name": "transferOwnership",
      "outputs": [],
      "stateMutability": "nonpayable",
      "type": "function"
    },
    {
      "inputs": [],
      "name": "GetName",
      "outputs": [
        {
          "internalType": "string",
          "name": "",
          "type": "string"
        }
      ],
      "stateMutability": "view",
      "type": "function"
    },
    {
      "inputs": [],
      "name": "GetResources",
      "outputs": [
        {
          "internalType": "address[]",
          "name": "",
          "type": "address[]"
        }
      ],
      "stateMutability": "view",
      "type": "function"
    },
    {
      "inputs": [
        {
          "internalType": "string",
          "name": "name",
          "type": "string"
        },
        {
          "internalType": "string",
          "name": "description",
          "type": "string"
        },
        {
          "internalType": "address[]",
          "name": "prevProd",
          "type": "address[]"
        }
      ],
      "name": "CreateResource",
      "outputs": [],
      "stateMutability": "nonpayable",
      "type": "function"
    },
    {
      "inputs": [
        {
          "internalType": "address",
          "name": "resAddress",
          "type": "address"
        }
      ],
      "name": "AddResource",
      "outputs": [],
      "stateMutability": "nonpayable",
      "type": "function"
    },
    {
      "inputs": [
        {
          "internalType": "uint256",
          "name": "resIndex",
          "type": "uint256"
        }
      ],
      "name": "GetResource",
      "outputs": [
        {
          "internalType": "address",
          "name": "prim",
          "type": "address"
        }
      ],
      "stateMutability": "view",
      "type": "function"
    },
    {
      "inputs": [
        {
          "internalType": "address",
          "name": "newProducer",
          "type": "address"
        },
        {
          "internalType": "uint256",
          "name": "resourceIndex",
          "type": "uint256"
        }
      ],
      "name": "changeProducer",
      "outputs": [],
      "stateMutability": "nonpayable",
      "type": "function"
    }
  ],
  "bytecode": "0x60806040523480156200001157600080fd5b50604051620032a2380380620032a2833981810160405281019062000037919062000451565b620000576200004b620000d360201b60201c565b620000db60201b60201c565b82600190805190602001906200006f9291906200019f565b508160029080519060200190620000889291906200019f565b5080600360006101000a81548173ffffffffffffffffffffffffffffffffffffffff021916908373ffffffffffffffffffffffffffffffffffffffff16021790555050505062000550565b600033905090565b60008060009054906101000a900473ffffffffffffffffffffffffffffffffffffffff169050816000806101000a81548173ffffffffffffffffffffffffffffffffffffffff021916908373ffffffffffffffffffffffffffffffffffffffff1602179055508173ffffffffffffffffffffffffffffffffffffffff168173ffffffffffffffffffffffffffffffffffffffff167f8be0079c531659141344cd1fd0a4f28419497f9722a3daafe3b4186f6b6457e060405160405180910390a35050565b828054620001ad906200051a565b90600052602060002090601f016020900481019282620001d157600085556200021d565b82601f10620001ec57805160ff19168380011785556200021d565b828001600101855582156200021d579182015b828111156200021c578251825591602001919060010190620001ff565b5b5090506200022c919062000230565b5090565b5b808211156200024b57600081600090555060010162000231565b5090565b6000604051905090565b600080fd5b600080fd5b600080fd5b600080fd5b6000601f19601f8301169050919050565b7f4e487b7100000000000000000000000000000000000000000000000000000000600052604160045260246000fd5b620002b8826200026d565b810181811067ffffffffffffffff82111715620002da57620002d96200027e565b5b80604052505050565b6000620002ef6200024f565b9050620002fd8282620002ad565b919050565b600067ffffffffffffffff82111562000320576200031f6200027e565b5b6200032b826200026d565b9050602081019050919050565b60005b83811015620003585780820151818401526020810190506200033b565b8381111562000368576000848401525b50505050565b6000620003856200037f8462000302565b620002e3565b905082815260208101848484011115620003a457620003a362000268565b5b620003b184828562000338565b509392505050565b600082601f830112620003d157620003d062000263565b5b8151620003e38482602086016200036e565b91505092915050565b600073ffffffffffffffffffffffffffffffffffffffff82169050919050565b60006200041982620003ec565b9050919050565b6200042b816200040c565b81146200043757600080fd5b50565b6000815190506200044b8162000420565b92915050565b6000806000606084860312156200046d576200046c62000259565b5b600084015167ffffffffffffffff8111156200048e576200048d6200025e565b5b6200049c86828701620003b9565b935050602084015167ffffffffffffffff811115620004c057620004bf6200025e565b5b620004ce86828701620003b9565b9250506040620004e1868287016200043a565b9150509250925092565b7f4e487b7100000000000000000000000000000000000000000000000000000000600052602260045260246000fd5b600060028204905060018216806200053357607f821691505b602082108114156200054a5762000549620004eb565b5b50919050565b612d4280620005606000396000f3fe60806040523480156200001157600080fd5b5060043610620000a05760003560e01c80638e7a0b03116200006f5780638e7a0b031462000113578063aeff645e1462000149578063f044ca7c146200016b578063f2fde38b146200018b578063fe704a9d14620001ab57620000a0565b80632c99dbbb14620000a5578063637bcdb114620000c5578063715018a614620000e55780638da5cb5b14620000f1575b600080fd5b620000c36004803603810190620000bd919062000ba6565b620001cd565b005b620000e36004803603810190620000dd919062000bed565b620003ff565b005b620000ef62000594565b005b620000fb62000625565b6040516200010a919062000c30565b60405180910390f35b6200013160048036038101906200012b919062000c4d565b6200064e565b60405162000140919062000c30565b60405180910390f35b6200015362000699565b60405162000162919062000d4d565b60405180910390f35b62000189600480360381019062000183919062000fae565b62000729565b005b620001a96004803603810190620001a3919062000bed565b6200087a565b005b620001b56200097e565b604051620001c49190620010fa565b60405180910390f35b620001d762000a18565b73ffffffffffffffffffffffffffffffffffffffff16620001f762000625565b73ffffffffffffffffffffffffffffffffffffffff161462000250576040517f08c379a000000000000000000000000000000000000000000000000000000000815260040162000247906200116e565b60405180910390fd5b60006004828154811062000269576200026862001190565b5b9060005260206000200160009054906101000a900473ffffffffffffffffffffffffffffffffffffffff1690508273ffffffffffffffffffffffffffffffffffffffff1663637bcdb1826040518263ffffffff1660e01b8152600401620002d1919062000c30565b600060405180830381600087803b158015620002ec57600080fd5b505af115801562000301573d6000803e3d6000fd5b505050508073ffffffffffffffffffffffffffffffffffffffff1663798759e9600360009054906101000a900473ffffffffffffffffffffffffffffffffffffffff1660006040518363ffffffff1660e01b8152600401620003659291906200123f565b600060405180830381600087803b1580156200038057600080fd5b505af115801562000395573d6000803e3d6000fd5b50505050600060048381548110620003b257620003b162001190565b5b9060005260206000200160006101000a81548173ffffffffffffffffffffffffffffffffffffffff021916908373ffffffffffffffffffffffffffffffffffffffff160217905550505050565b6200040962000625565b73ffffffffffffffffffffffffffffffffffffffff163373ffffffffffffffffffffffffffffffffffffffff161480620004905750600360009054906101000a900473ffffffffffffffffffffffffffffffffffffffff1673ffffffffffffffffffffffffffffffffffffffff163373ffffffffffffffffffffffffffffffffffffffff16145b6200049a57600080fd5b6004819080600181540180825580915050600190039060005260206000200160009091909190916101000a81548173ffffffffffffffffffffffffffffffffffffffff021916908373ffffffffffffffffffffffffffffffffffffffff1602179055508073ffffffffffffffffffffffffffffffffffffffff1663798759e9600360009054906101000a900473ffffffffffffffffffffffffffffffffffffffff1660016040518363ffffffff1660e01b81526004016200055d9291906200123f565b600060405180830381600087803b1580156200057857600080fd5b505af11580156200058d573d6000803e3d6000fd5b5050505050565b6200059e62000a18565b73ffffffffffffffffffffffffffffffffffffffff16620005be62000625565b73ffffffffffffffffffffffffffffffffffffffff161462000617576040517f08c379a00000000000000000000000000000000000000000000000000000000081526004016200060e906200116e565b60405180910390fd5b62000623600062000a20565b565b60008060009054906101000a900473ffffffffffffffffffffffffffffffffffffffff16905090565b60006004828154811062000667576200066662001190565b5b9060005260206000200160009054906101000a900473ffffffffffffffffffffffffffffffffffffffff169050919050565b606060048054806020026020016040519081016040528092919081815260200182805480156200071f57602002820191906000526020600020905b8160009054906101000a900473ffffffffffffffffffffffffffffffffffffffff1673ffffffffffffffffffffffffffffffffffffffff1681526020019060010190808311620006d4575b5050505050905090565b6200073362000625565b73ffffffffffffffffffffffffffffffffffffffff163373ffffffffffffffffffffffffffffffffffffffff161480620007ba5750600360009054906101000a900473ffffffffffffffffffffffffffffffffffffffff1673ffffffffffffffffffffffffffffffffffffffff163373ffffffffffffffffffffffffffffffffffffffff16145b620007c457600080fd5b6000838383604051620007d79062000ae4565b620007e5939291906200126c565b604051809103906000f08015801562000802573d6000803e3d6000fd5b5090506200081081620003ff565b6001600480549050620008249190620012ed565b3373ffffffffffffffffffffffffffffffffffffffff167f9ff24afb13ed0cee00b33d7e651ea6bd18d78d3f20c3f466297c3b8a6539ab1e866040516200086c9190620010fa565b60405180910390a350505050565b6200088462000a18565b73ffffffffffffffffffffffffffffffffffffffff16620008a462000625565b73ffffffffffffffffffffffffffffffffffffffff1614620008fd576040517f08c379a0000000000000000000000000000000000000000000000000000000008152600401620008f4906200116e565b60405180910390fd5b600073ffffffffffffffffffffffffffffffffffffffff168173ffffffffffffffffffffffffffffffffffffffff16141562000970576040517f08c379a000000000000000000000000000000000000000000000000000000000815260040162000967906200139e565b60405180910390fd5b6200097b8162000a20565b50565b6060600180546200098f90620013ef565b80601f0160208091040260200160405190810160405280929190818152602001828054620009bd90620013ef565b801562000a0e5780601f10620009e25761010080835404028352916020019162000a0e565b820191906000526020600020905b815481529060010190602001808311620009f057829003601f168201915b5050505050905090565b600033905090565b60008060009054906101000a900473ffffffffffffffffffffffffffffffffffffffff169050816000806101000a81548173ffffffffffffffffffffffffffffffffffffffff021916908373ffffffffffffffffffffffffffffffffffffffff1602179055508173ffffffffffffffffffffffffffffffffffffffff168173ffffffffffffffffffffffffffffffffffffffff167f8be0079c531659141344cd1fd0a4f28419497f9722a3daafe3b4186f6b6457e060405160405180910390a35050565b6118e7806200142683390190565b6000604051905090565b600080fd5b600080fd5b600073ffffffffffffffffffffffffffffffffffffffff82169050919050565b600062000b338262000b06565b9050919050565b62000b458162000b26565b811462000b5157600080fd5b50565b60008135905062000b658162000b3a565b92915050565b6000819050919050565b62000b808162000b6b565b811462000b8c57600080fd5b50565b60008135905062000ba08162000b75565b92915050565b6000806040838503121562000bc05762000bbf62000afc565b5b600062000bd08582860162000b54565b925050602062000be38582860162000b8f565b9150509250929050565b60006020828403121562000c065762000c0562000afc565b5b600062000c168482850162000b54565b91505092915050565b62000c2a8162000b26565b82525050565b600060208201905062000c47600083018462000c1f565b92915050565b60006020828403121562000c665762000c6562000afc565b5b600062000c768482850162000b8f565b91505092915050565b600081519050919050565b600082825260208201905092915050565b6000819050602082019050919050565b62000cb68162000b26565b82525050565b600062000cca838362000cab565b60208301905092915050565b6000602082019050919050565b600062000cf08262000c7f565b62000cfc818562000c8a565b935062000d098362000c9b565b8060005b8381101562000d4057815162000d24888262000cbc565b975062000d318362000cd6565b92505060018101905062000d0d565b5085935050505092915050565b6000602082019050818103600083015262000d69818462000ce3565b905092915050565b600080fd5b600080fd5b6000601f19601f8301169050919050565b7f4e487b7100000000000000000000000000000000000000000000000000000000600052604160045260246000fd5b62000dc68262000d7b565b810181811067ffffffffffffffff8211171562000de85762000de762000d8c565b5b80604052505050565b600062000dfd62000af2565b905062000e0b828262000dbb565b919050565b600067ffffffffffffffff82111562000e2e5762000e2d62000d8c565b5b62000e398262000d7b565b9050602081019050919050565b82818337600083830152505050565b600062000e6c62000e668462000e10565b62000df1565b90508281526020810184848401111562000e8b5762000e8a62000d76565b5b62000e9884828562000e46565b509392505050565b600082601f83011262000eb85762000eb762000d71565b5b813562000eca84826020860162000e55565b91505092915050565b600067ffffffffffffffff82111562000ef15762000ef062000d8c565b5b602082029050602081019050919050565b600080fd5b600062000f1e62000f188462000ed3565b62000df1565b9050808382526020820190506020840283018581111562000f445762000f4362000f02565b5b835b8181101562000f71578062000f5c888262000b54565b84526020840193505060208101905062000f46565b5050509392505050565b600082601f83011262000f935762000f9262000d71565b5b813562000fa584826020860162000f07565b91505092915050565b60008060006060848603121562000fca5762000fc962000afc565b5b600084013567ffffffffffffffff81111562000feb5762000fea62000b01565b5b62000ff98682870162000ea0565b935050602084013567ffffffffffffffff8111156200101d576200101c62000b01565b5b6200102b8682870162000ea0565b925050604084013567ffffffffffffffff8111156200104f576200104e62000b01565b5b6200105d8682870162000f7b565b9150509250925092565b600081519050919050565b600082825260208201905092915050565b60005b83811015620010a357808201518184015260208101905062001086565b83811115620010b3576000848401525b50505050565b6000620010c68262001067565b620010d2818562001072565b9350620010e481856020860162001083565b620010ef8162000d7b565b840191505092915050565b60006020820190508181036000830152620011168184620010b9565b905092915050565b7f4f776e61626c653a2063616c6c6572206973206e6f7420746865206f776e6572600082015250565b60006200115660208362001072565b915062001163826200111e565b602082019050919050565b60006020820190508181036000830152620011898162001147565b9050919050565b7f4e487b7100000000000000000000000000000000000000000000000000000000600052603260045260246000fd5b7f4e487b7100000000000000000000000000000000000000000000000000000000600052602160045260246000fd5b60078110620012025762001201620011bf565b5b50565b60008190506200121582620011ee565b919050565b6000620012278262001205565b9050919050565b62001239816200121a565b82525050565b600060408201905062001256600083018562000c1f565b6200126560208301846200122e565b9392505050565b60006060820190508181036000830152620012888186620010b9565b905081810360208301526200129e8185620010b9565b90508181036040830152620012b4818462000ce3565b9050949350505050565b7f4e487b7100000000000000000000000000000000000000000000000000000000600052601160045260246000fd5b6000620012fa8262000b6b565b9150620013078362000b6b565b9250828210156200131d576200131c620012be565b5b828203905092915050565b7f4f776e61626c653a206e6577206f776e657220697320746865207a65726f206160008201527f6464726573730000000000000000000000000000000000000000000000000000602082015250565b60006200138660268362001072565b9150620013938262001328565b604082019050919050565b60006020820190508181036000830152620013b98162001377565b9050919050565b7f4e487b7100000000000000000000000000000000000000000000000000000000600052602260045260246000fd5b600060028204905060018216806200140857607f821691505b602082108114156200141f576200141e620013c0565b5b5091905056fe60806040523480156200001157600080fd5b50604051620018e7380380620018e7833981810160405281019062000037919062000601565b620000576200004b6200011960201b60201c565b6200012160201b60201c565b82600190805190602001906200006f929190620001e5565b50816002908051906020019062000088929190620001e5565b508060079080519060200190620000a192919062000276565b50600081511415620000e1576000600860006101000a81548160ff02191690836001811115620000d657620000d5620006ba565b5b021790555062000110565b6001600860006101000a81548160ff021916908360018111156200010a5762000109620006ba565b5b02179055505b5050506200074e565b600033905090565b60008060009054906101000a900473ffffffffffffffffffffffffffffffffffffffff169050816000806101000a81548173ffffffffffffffffffffffffffffffffffffffff021916908373ffffffffffffffffffffffffffffffffffffffff1602179055508173ffffffffffffffffffffffffffffffffffffffff168173ffffffffffffffffffffffffffffffffffffffff167f8be0079c531659141344cd1fd0a4f28419497f9722a3daafe3b4186f6b6457e060405160405180910390a35050565b828054620001f39062000718565b90600052602060002090601f01602090048101928262000217576000855562000263565b82601f106200023257805160ff191683800117855562000263565b8280016001018555821562000263579182015b828111156200026257825182559160200191906001019062000245565b5b50905062000272919062000305565b5090565b828054828255906000526020600020908101928215620002f2579160200282015b82811115620002f15782518260006101000a81548173ffffffffffffffffffffffffffffffffffffffff021916908373ffffffffffffffffffffffffffffffffffffffff1602179055509160200191906001019062000297565b5b50905062000301919062000305565b5090565b5b808211156200032057600081600090555060010162000306565b5090565b6000604051905090565b600080fd5b600080fd5b600080fd5b600080fd5b6000601f19601f8301169050919050565b7f4e487b7100000000000000000000000000000000000000000000000000000000600052604160045260246000fd5b6200038d8262000342565b810181811067ffffffffffffffff82111715620003af57620003ae62000353565b5b80604052505050565b6000620003c462000324565b9050620003d2828262000382565b919050565b600067ffffffffffffffff821115620003f557620003f462000353565b5b620004008262000342565b9050602081019050919050565b60005b838110156200042d57808201518184015260208101905062000410565b838111156200043d576000848401525b50505050565b60006200045a6200045484620003d7565b620003b8565b9050828152602081018484840111156200047957620004786200033d565b5b620004868482856200040d565b509392505050565b600082601f830112620004a657620004a562000338565b5b8151620004b884826020860162000443565b91505092915050565b600067ffffffffffffffff821115620004df57620004de62000353565b5b602082029050602081019050919050565b600080fd5b600073ffffffffffffffffffffffffffffffffffffffff82169050919050565b60006200052282620004f5565b9050919050565b620005348162000515565b81146200054057600080fd5b50565b600081519050620005548162000529565b92915050565b6000620005716200056b84620004c1565b620003b8565b90508083825260208201905060208402830185811115620005975762000596620004f0565b5b835b81811015620005c45780620005af888262000543565b84526020840193505060208101905062000599565b5050509392505050565b600082601f830112620005e657620005e562000338565b5b8151620005f88482602086016200055a565b91505092915050565b6000806000606084860312156200061d576200061c6200032e565b5b600084015167ffffffffffffffff8111156200063e576200063d62000333565b5b6200064c868287016200048e565b935050602084015167ffffffffffffffff81111562000670576200066f62000333565b5b6200067e868287016200048e565b925050604084015167ffffffffffffffff811115620006a257620006a162000333565b5b620006b086828701620005ce565b9150509250925092565b7f4e487b7100000000000000000000000000000000000000000000000000000000600052602160045260246000fd5b7f4e487b7100000000000000000000000000000000000000000000000000000000600052602260045260246000fd5b600060028204905060018216806200073157607f821691505b60208210811415620007485762000747620006e9565b5b50919050565b611189806200075e6000396000f3fe608060405234801561001057600080fd5b506004361061007d5760003560e01c806397be307f1161005b57806397be307f146100c6578063af2b843e146100e2578063c731fc7b14610112578063f2fde38b146101425761007d565b8063715018a614610082578063798759e91461008c5780638da5cb5b146100a8575b600080fd5b61008a61015e565b005b6100a660048036038101906100a19190610aa6565b6101e6565b005b6100b06102cd565b6040516100bd9190610af5565b60405180910390f35b6100e060048036038101906100db9190610c56565b6102f6565b005b6100fc60048036038101906100f79190610d04565b6104fe565b6040516101099190610e41565b60405180910390f35b61012c60048036038101906101279190610e63565b610714565b6040516101399190610f07565b60405180910390f35b61015c60048036038101906101579190610e63565b61076a565b005b610166610862565b73ffffffffffffffffffffffffffffffffffffffff166101846102cd565b73ffffffffffffffffffffffffffffffffffffffff16146101da576040517f08c379a00000000000000000000000000000000000000000000000000000000081526004016101d190610f7f565b60405180910390fd5b6101e4600061086a565b565b6101ee610862565b73ffffffffffffffffffffffffffffffffffffffff1661020c6102cd565b73ffffffffffffffffffffffffffffffffffffffff1614610262576040517f08c379a000000000000000000000000000000000000000000000000000000000815260040161025990610f7f565b60405180910390fd5b80600a60008473ffffffffffffffffffffffffffffffffffffffff1673ffffffffffffffffffffffffffffffffffffffff16815260200190815260200160002060006101000a81548160ff021916908360068111156102c4576102c3610e90565b5b02179055505050565b60008060009054906101000a900473ffffffffffffffffffffffffffffffffffffffff16905090565b6102fe6102cd565b73ffffffffffffffffffffffffffffffffffffffff163373ffffffffffffffffffffffffffffffffffffffff1614806103a857506000600681111561034657610345610e90565b5b600a60003373ffffffffffffffffffffffffffffffffffffffff1673ffffffffffffffffffffffffffffffffffffffff16815260200190815260200160002060009054906101000a900460ff1660068111156103a5576103a4610e90565b5b14155b6103b157600080fd5b600660405180608001604052804281526020013373ffffffffffffffffffffffffffffffffffffffff1681526020018481526020018381525090806001815401808255809150506001900390600052602060002090600402016000909190919091506000820151816000015560208201518160010160006101000a81548173ffffffffffffffffffffffffffffffffffffffff021916908373ffffffffffffffffffffffffffffffffffffffff160217905550604082015181600201908051906020019061048092919061092e565b50606082015181600301908051906020019061049d92919061092e565b5050503073ffffffffffffffffffffffffffffffffffffffff163373ffffffffffffffffffffffffffffffffffffffff167f9e003c88e545ece8ffbfec54d83dd54505596c479a3c3a1de531bf602682c64260405160405180910390a35050565b6105066109b4565b8160008110158061051c57506006805490508111155b61055b576040517f08c379a000000000000000000000000000000000000000000000000000000000815260040161055290611011565b60405180910390fd5b6006838154811061056f5761056e611031565b5b9060005260206000209060040201604051806080016040529081600082015481526020016001820160009054906101000a900473ffffffffffffffffffffffffffffffffffffffff1673ffffffffffffffffffffffffffffffffffffffff1673ffffffffffffffffffffffffffffffffffffffff1681526020016002820180546105f89061108f565b80601f01602080910402602001604051908101604052809291908181526020018280546106249061108f565b80156106715780601f1061064657610100808354040283529160200191610671565b820191906000526020600020905b81548152906001019060200180831161065457829003601f168201915b5050505050815260200160038201805461068a9061108f565b80601f01602080910402602001604051908101604052809291908181526020018280546106b69061108f565b80156107035780601f106106d857610100808354040283529160200191610703565b820191906000526020600020905b8154815290600101906020018083116106e657829003601f168201915b505050505081525050915050919050565b6000600a60008373ffffffffffffffffffffffffffffffffffffffff1673ffffffffffffffffffffffffffffffffffffffff16815260200190815260200160002060009054906101000a900460ff169050919050565b610772610862565b73ffffffffffffffffffffffffffffffffffffffff166107906102cd565b73ffffffffffffffffffffffffffffffffffffffff16146107e6576040517f08c379a00000000000000000000000000000000000000000000000000000000081526004016107dd90610f7f565b60405180910390fd5b600073ffffffffffffffffffffffffffffffffffffffff168173ffffffffffffffffffffffffffffffffffffffff161415610856576040517f08c379a000000000000000000000000000000000000000000000000000000000815260040161084d90611133565b60405180910390fd5b61085f8161086a565b50565b600033905090565b60008060009054906101000a900473ffffffffffffffffffffffffffffffffffffffff169050816000806101000a81548173ffffffffffffffffffffffffffffffffffffffff021916908373ffffffffffffffffffffffffffffffffffffffff1602179055508173ffffffffffffffffffffffffffffffffffffffff168173ffffffffffffffffffffffffffffffffffffffff167f8be0079c531659141344cd1fd0a4f28419497f9722a3daafe3b4186f6b6457e060405160405180910390a35050565b82805461093a9061108f565b90600052602060002090601f01602090048101928261095c57600085556109a3565b82601f1061097557805160ff19168380011785556109a3565b828001600101855582156109a3579182015b828111156109a2578251825591602001919060010190610987565b5b5090506109b091906109f2565b5090565b604051806080016040528060008152602001600073ffffffffffffffffffffffffffffffffffffffff16815260200160608152602001606081525090565b5b80821115610a0b5760008160009055506001016109f3565b5090565b6000604051905090565b600080fd5b600080fd5b600073ffffffffffffffffffffffffffffffffffffffff82169050919050565b6000610a4e82610a23565b9050919050565b610a5e81610a43565b8114610a6957600080fd5b50565b600081359050610a7b81610a55565b92915050565b60078110610a8e57600080fd5b50565b600081359050610aa081610a81565b92915050565b60008060408385031215610abd57610abc610a19565b5b6000610acb85828601610a6c565b9250506020610adc85828601610a91565b9150509250929050565b610aef81610a43565b82525050565b6000602082019050610b0a6000830184610ae6565b92915050565b600080fd5b600080fd5b6000601f19601f8301169050919050565b7f4e487b7100000000000000000000000000000000000000000000000000000000600052604160045260246000fd5b610b6382610b1a565b810181811067ffffffffffffffff82111715610b8257610b81610b2b565b5b80604052505050565b6000610b95610a0f565b9050610ba18282610b5a565b919050565b600067ffffffffffffffff821115610bc157610bc0610b2b565b5b610bca82610b1a565b9050602081019050919050565b82818337600083830152505050565b6000610bf9610bf484610ba6565b610b8b565b905082815260208101848484011115610c1557610c14610b15565b5b610c20848285610bd7565b509392505050565b600082601f830112610c3d57610c3c610b10565b5b8135610c4d848260208601610be6565b91505092915050565b60008060408385031215610c6d57610c6c610a19565b5b600083013567ffffffffffffffff811115610c8b57610c8a610a1e565b5b610c9785828601610c28565b925050602083013567ffffffffffffffff811115610cb857610cb7610a1e565b5b610cc485828601610c28565b9150509250929050565b6000819050919050565b610ce181610cce565b8114610cec57600080fd5b50565b600081359050610cfe81610cd8565b92915050565b600060208284031215610d1a57610d19610a19565b5b6000610d2884828501610cef565b91505092915050565b610d3a81610cce565b82525050565b610d4981610a43565b82525050565b600081519050919050565b600082825260208201905092915050565b60005b83811015610d89578082015181840152602081019050610d6e565b83811115610d98576000848401525b50505050565b6000610da982610d4f565b610db38185610d5a565b9350610dc3818560208601610d6b565b610dcc81610b1a565b840191505092915050565b6000608083016000830151610def6000860182610d31565b506020830151610e026020860182610d40565b5060408301518482036040860152610e1a8282610d9e565b91505060608301518482036060860152610e348282610d9e565b9150508091505092915050565b60006020820190508181036000830152610e5b8184610dd7565b905092915050565b600060208284031215610e7957610e78610a19565b5b6000610e8784828501610a6c565b91505092915050565b7f4e487b7100000000000000000000000000000000000000000000000000000000600052602160045260246000fd5b60078110610ed057610ecf610e90565b5b50565b6000819050610ee182610ebf565b919050565b6000610ef182610ed3565b9050919050565b610f0181610ee6565b82525050565b6000602082019050610f1c6000830184610ef8565b92915050565b600082825260208201905092915050565b7f4f776e61626c653a2063616c6c6572206973206e6f7420746865206f776e6572600082015250565b6000610f69602083610f22565b9150610f7482610f33565b602082019050919050565b60006020820190508181036000830152610f9881610f5c565b9050919050565b7f4552524f523a20546865206576656e74206e756d626572206d7573742062652060008201527f77697468696e2072616e67652100000000000000000000000000000000000000602082015250565b6000610ffb602d83610f22565b915061100682610f9f565b604082019050919050565b6000602082019050818103600083015261102a81610fee565b9050919050565b7f4e487b7100000000000000000000000000000000000000000000000000000000600052603260045260246000fd5b7f4e487b7100000000000000000000000000000000000000000000000000000000600052602260045260246000fd5b600060028204905060018216806110a757607f821691505b602082108114156110bb576110ba611060565b5b50919050565b7f4f776e61626c653a206e6577206f776e657220697320746865207a65726f206160008201527f6464726573730000000000000000000000000000000000000000000000000000602082015250565b600061111d602683610f22565b9150611128826110c1565b604082019050919050565b6000602082019050818103600083015261114c81611110565b905091905056fea2646970667358221220d9065199632c198214894f1bdaed79ceecb0d29528b6a03cef5efb0a8923c3ae64736f6c634300080a0033a26469706673582212200ae95004dbacdee665fa7a7df75517d31edb009f9035fc5de5bac03143dfb08264736f6c634300080a0033",
  "immutableReferences": {},
  "source": "// SPDX-License-Identifier: MIT\npragma solidity >=0.4.22 <0.9.0;\n\nimport \"./Resource.sol\";\n\ncontract Producer is Ownable {\n  \n  string    _name;\n  string    _description;\n  address   _producerAccount;\n  address[] _resources;\n  \n  event addResourceEvent (address indexed addr, uint indexed, string name);\n\n  constructor (\n    string memory name,\n    string memory description,\n    address account\n  ) Ownable() {\n    _name = name;\n    _description = description;\n    _producerAccount = account;\n  }\n\n  modifier onlyAuthorized() {\n    require(msg.sender == owner() || msg.sender == _producerAccount);\n    _;\n  }\n\n  function GetName ()\n    public\n    view \n    returns (string memory) {\n      return _name;\n    }\n\n  function GetResources ()\n    public\n    view \n    returns (address[] memory) {\n      return _resources;\n    }\n\n  function CreateResource (\n      string memory name,\n      string memory description,\n      address[] memory prevProd\n  ) public\n    onlyAuthorized {\n      Resource res = new Resource(name, description, prevProd);\n      AddResource(address(res));\n    //      for (uint i = 0; i > prevProd.length; i++) {\n    //        require(Resource._primaryResources[prevProd[i]]._producer == msg.sender);\n    //      }\n      emit addResourceEvent(msg.sender, _resources.length - 1, name);\n  }\n\n  function AddResource (\n      address resAddress\n  ) public\n    onlyAuthorized {\n      _resources.push(resAddress);\n      Resource(resAddress).addAuthorized(_producerAccount, Role.farmer);\n    //      for (uint i = 0; i > prevProd.length; i++) {\n    //        require(Resource._primaryResources[prevProd[i]]._producer == msg.sender);\n    //      }\n  }\n\n  function GetResource (\n    uint resIndex\n  ) public\n    view\n    returns (address prim) {\n    prim = _resources[resIndex];\n  }\n\n  function changeProducer ( address newProducer, uint resourceIndex ) public onlyOwner {\n    Resource res = Resource(_resources[resourceIndex]);\n    Producer(newProducer).AddResource(address(res));\n    // res.addAuthorized(newProducer, res._authorized[_producerAccount]);\n    res.addAuthorized(_producerAccount, Role.disabled);\n    _resources[resourceIndex] = address(0);\n  }\n  \n}\n",
  "sourcePath": "/home/mgpop/Studies/Dev/Agri_EVM_IOTA/contracts/Producer.sol",
  "compiler": {
    "name": "solc",
    "version": "0.8.10+commit.fc410830.Emscripten.clang"
  },
  "schemaVersion": "3.4.4",
  "updatedAt": "2022-01-05T17:38:52.426Z",
  "devdoc": {
    "kind": "dev",
    "methods": {
      "owner()": {
        "details": "Returns the address of the current owner."
      },
      "renounceOwnership()": {
        "details": "Leaves the contract without owner. It will not be possible to call `onlyOwner` functions anymore. Can only be called by the current owner. NOTE: Renouncing ownership will leave the contract without an owner, thereby removing any functionality that is only available to the owner."
      },
      "transferOwnership(address)": {
        "details": "Transfers ownership of the contract to a new account (`newOwner`). Can only be called by the current owner."
      }
    },
    "version": 1
  },
  "userdoc": {
    "kind": "user",
    "methods": {},
    "version": 1
  }
}