{
  "contractName": "Producer",
  "abi": [
    {
      "inputs": [
        {
          "internalType": "string",
          "name": "name",
          "type": "string"
        },
        {
          "internalType": "string",
          "name": "description",
          "type": "string"
        },
        {
          "internalType": "address",
          "name": "account",
          "type": "address"
        }
      ],
      "stateMutability": "nonpayable",
      "type": "constructor"
    },
    {
      "anonymous": false,
      "inputs": [
        {
          "indexed": true,
          "internalType": "address",
          "name": "ownerAddr",
          "type": "address"
        },
        {
          "indexed": true,
          "internalType": "address",
          "name": "addr",
          "type": "address"
        }
      ],
      "name": "AddResourceEvent",
      "type": "event"
    },
    {
      "anonymous": false,
      "inputs": [
        {
          "indexed": true,
          "internalType": "address",
          "name": "src",
          "type": "address"
        },
        {
          "indexed": true,
          "internalType": "address",
          "name": "dest",
          "type": "address"
        },
        {
          "indexed": true,
          "internalType": "address",
          "name": "res",
          "type": "address"
        }
      ],
      "name": "ChangeProducerEvent",
      "type": "event"
    },
    {
      "anonymous": false,
      "inputs": [
        {
          "indexed": true,
          "internalType": "address",
          "name": "previousOwner",
          "type": "address"
        },
        {
          "indexed": true,
          "internalType": "address",
          "name": "newOwner",
          "type": "address"
        }
      ],
      "name": "OwnershipTransferred",
      "type": "event"
    },
    {
      "inputs": [],
      "name": "owner",
      "outputs": [
        {
          "internalType": "address",
          "name": "",
          "type": "address"
        }
      ],
      "stateMutability": "view",
      "type": "function"
    },
    {
      "inputs": [],
      "name": "renounceOwnership",
      "outputs": [],
      "stateMutability": "nonpayable",
      "type": "function"
    },
    {
      "inputs": [
        {
          "internalType": "address",
          "name": "newOwner",
          "type": "address"
        }
      ],
      "name": "transferOwnership",
      "outputs": [],
      "stateMutability": "nonpayable",
      "type": "function"
    },
    {
      "inputs": [],
      "name": "GetName",
      "outputs": [
        {
          "internalType": "string",
          "name": "",
          "type": "string"
        }
      ],
      "stateMutability": "view",
      "type": "function"
    },
    {
      "inputs": [],
      "name": "GetDescription",
      "outputs": [
        {
          "internalType": "string",
          "name": "",
          "type": "string"
        }
      ],
      "stateMutability": "view",
      "type": "function"
    },
    {
      "inputs": [],
      "name": "GetAccount",
      "outputs": [
        {
          "internalType": "address",
          "name": "",
          "type": "address"
        }
      ],
      "stateMutability": "view",
      "type": "function"
    },
    {
      "inputs": [
        {
          "internalType": "uint256",
          "name": "resIndex",
          "type": "uint256"
        }
      ],
      "name": "GetResource",
      "outputs": [
        {
          "internalType": "address",
          "name": "",
          "type": "address"
        }
      ],
      "stateMutability": "view",
      "type": "function"
    },
    {
      "inputs": [],
      "name": "GetResources",
      "outputs": [
        {
          "internalType": "address[]",
          "name": "",
          "type": "address[]"
        }
      ],
      "stateMutability": "view",
      "type": "function"
    },
    {
      "inputs": [
        {
          "internalType": "string",
          "name": "name",
          "type": "string"
        },
        {
          "internalType": "string",
          "name": "description",
          "type": "string"
        },
        {
          "internalType": "string",
          "name": "unitOfMeasure",
          "type": "string"
        },
        {
          "internalType": "uint256",
          "name": "quantity",
          "type": "uint256"
        },
        {
          "internalType": "uint256",
          "name": "role",
          "type": "uint256"
        },
        {
          "internalType": "address[]",
          "name": "prevProd",
          "type": "address[]"
        }
      ],
      "name": "CreateResource",
      "outputs": [],
      "stateMutability": "nonpayable",
      "type": "function"
    },
    {
      "inputs": [
        {
          "internalType": "address",
          "name": "newProducer",
          "type": "address"
        },
        {
          "internalType": "address",
          "name": "resAddr",
          "type": "address"
        },
        {
          "internalType": "uint256",
          "name": "role",
          "type": "uint256"
        }
      ],
      "name": "ChangeProducer",
      "outputs": [],
      "stateMutability": "nonpayable",
      "type": "function"
    },
    {
      "inputs": [
        {
          "internalType": "address",
          "name": "res",
          "type": "address"
        }
      ],
      "name": "AddToResources",
      "outputs": [],
      "stateMutability": "nonpayable",
      "type": "function"
    },
    {
      "inputs": [
        {
          "internalType": "uint256",
          "name": "index",
          "type": "uint256"
        }
      ],
      "name": "RmFromResources",
      "outputs": [],
      "stateMutability": "nonpayable",
      "type": "function"
    }
  ],
  "bytecode": "0x60806040523480156200001157600080fd5b506040516200298538038062002985833981016040819052620000349162000257565b6200003f3362000094565b825162000054906001906020860190620000e4565b5081516200006a906002906020850190620000e4565b50600380546001600160a01b0319166001600160a01b039290921691909117905550620003219050565b600080546001600160a01b038381166001600160a01b0319831681178455604051919092169283917f8be0079c531659141344cd1fd0a4f28419497f9722a3daafe3b4186f6b6457e09190a35050565b828054620000f290620002e4565b90600052602060002090601f01602090048101928262000116576000855562000161565b82601f106200013157805160ff191683800117855562000161565b8280016001018555821562000161579182015b828111156200016157825182559160200191906001019062000144565b506200016f92915062000173565b5090565b5b808211156200016f576000815560010162000174565b634e487b7160e01b600052604160045260246000fd5b600082601f830112620001b257600080fd5b81516001600160401b0380821115620001cf57620001cf6200018a565b604051601f8301601f19908116603f01168101908282118183101715620001fa57620001fa6200018a565b816040528381526020925086838588010111156200021757600080fd5b600091505b838210156200023b57858201830151818301840152908201906200021c565b838211156200024d5760008385830101525b9695505050505050565b6000806000606084860312156200026d57600080fd5b83516001600160401b03808211156200028557600080fd5b6200029387838801620001a0565b94506020860151915080821115620002aa57600080fd5b50620002b986828701620001a0565b604086015190935090506001600160a01b0381168114620002d957600080fd5b809150509250925092565b600181811c90821680620002f957607f821691505b602082108114156200031b57634e487b7160e01b600052602260045260246000fd5b50919050565b61265480620003316000396000f3fe60806040523480156200001157600080fd5b5060043610620000c35760003560e01c8063c7d1bb50116200007a578063c7d1bb501462000157578063c9d64ab6146200016e578063d9daab9b1462000185578063ea59490c146200019e578063f2fde38b14620001b5578063fe704a9d14620001cc57600080fd5b806310f01d1814620000c8578063715018a614620000f25780638da5cb5b14620000fe5780638e7a0b031462000110578063aeff645e1462000127578063b88f1af91462000140575b600080fd5b6003546001600160a01b03165b6040516001600160a01b0390911681526020015b60405180910390f35b620000fc620001d6565b005b6000546001600160a01b0316620000d5565b620000d56200012136600462000c50565b62000244565b62000131620002d9565b604051620000e9919062000cb0565b620000fc6200015136600462000ce2565b6200033d565b620000fc6200016836600462000d28565b6200060e565b620000fc6200017f36600462000c50565b620006da565b6200018f62000774565b604051620000e9919062000d98565b620000fc620001af36600462000f02565b62000805565b620000fc620001c636600462000d28565b6200096c565b6200018f62000a3d565b6000546001600160a01b03163314620002365760405162461bcd60e51b815260206004820181905260248201527f4f776e61626c653a2063616c6c6572206973206e6f7420746865206f776e657260448201526064015b60405180910390fd5b62000242600062000a4e565b565b6000816004548110620002a55760405162461bcd60e51b815260206004820152602260248201527f4552524f52207265736f75726365206e756d626572206f7574206f662072616e604482015261676560f01b60648201526084016200022d565b60048381548110620002bb57620002bb62000fce565b6000918252602090912001546001600160a01b031691505b50919050565b606060048054806020026020016040519081016040528092919081815260200182805480156200033357602002820191906000526020600020905b81546001600160a01b0316815260019091019060200180831162000314575b5050505050905090565b6000546001600160a01b03163314806200036157506003546001600160a01b031633145b6200036c3362000a9e565b906200038d5760405162461bcd60e51b81526004016200022d919062000d98565b50806006811115620003e25760405162461bcd60e51b815260206004820152601e60248201527f4552524f5220726f6c65206e756d626572206f7574206f662072616e6765000060448201526064016200022d565b600083905060008590506000816001600160a01b03166310f01d186040518163ffffffff1660e01b8152600401602060405180830381865afa1580156200042d573d6000803e3d6000fd5b505050506040513d601f19601f8201168201806040525081019062000453919062000fe4565b60405163d838fcc360e01b81526001600160a01b038083166004830152602482018890529192509084169063d838fcc390604401600060405180830381600087803b158015620004a257600080fd5b505af1158015620004b7573d6000803e3d6000fd5b505060035460405163d838fcc360e01b81526001600160a01b03918216600482015260006024820152908616925063d838fcc39150604401600060405180830381600087803b1580156200050a57600080fd5b505af11580156200051f573d6000803e3d6000fd5b505060405163f2fde38b60e01b81526001600160a01b038a811660048301528616925063f2fde38b9150602401600060405180830381600087803b1580156200056757600080fd5b505af11580156200057c573d6000803e3d6000fd5b5050506001600160a01b03871660009081526005602052604081205460048054929350918110620005b157620005b162000fce565b6000918252602082200180546001600160a01b0319166001600160a01b03938416179055604051888316928a169130917f4b5e014c755fdb6a52024ce15f7b6996231b7240cb5556f40c3671e175f516ea9190a450505050505050565b6000546001600160a01b03163314806200063257506003546001600160a01b031633145b6200063d3362000a9e565b906200065e5760405162461bcd60e51b81526004016200022d919062000d98565b506004805460018101825560009182527f8a35acfbc15ff81a39ae7d344fd709f28e8600b4aa8c65c6b64bfe7fe36bd19b0180546001600160a01b0319166001600160a01b038416908117909155604051909130917f5e2190ddb640c06212c3e4cf9aa4bdc116646a4e2d65935751b16cecd25746569190a350565b6000546001600160a01b0316331480620006fe57506003546001600160a01b031633145b620007093362000a9e565b906200072a5760405162461bcd60e51b81526004016200022d919062000d98565b5060006004828154811062000743576200074362000fce565b9060005260206000200160006101000a8154816001600160a01b0302191690836001600160a01b0316021790555050565b606060028054620007859062001004565b80601f0160208091040260200160405190810160405280929190818152602001828054620007b39062001004565b8015620003335780601f10620007d85761010080835404028352916020019162000333565b820191906000526020600020905b815481529060010190602001808311620007e657509395945050505050565b6000546001600160a01b03163314806200082957506003546001600160a01b031633145b620008343362000a9e565b90620008555760405162461bcd60e51b81526004016200022d919062000d98565b50816006811115620008aa5760405162461bcd60e51b815260206004820152601e60248201527f4552524f5220726f6c65206e756d626572206f7574206f662072616e6765000060448201526064016200022d565b60008787878786604051620008bf9062000c42565b620008cf9594939291906200103b565b604051809103906000f080158015620008ec573d6000803e3d6000fd5b5060035460405163d838fcc360e01b81526001600160a01b0391821660048201526024810187905291925082169063d838fcc390604401600060405180830381600087803b1580156200093e57600080fd5b505af115801562000953573d6000803e3d6000fd5b5050505062000962816200060e565b5050505050505050565b6000546001600160a01b03163314620009c85760405162461bcd60e51b815260206004820181905260248201527f4f776e61626c653a2063616c6c6572206973206e6f7420746865206f776e657260448201526064016200022d565b6001600160a01b03811662000a2f5760405162461bcd60e51b815260206004820152602660248201527f4f776e61626c653a206e6577206f776e657220697320746865207a65726f206160448201526564647265737360d01b60648201526084016200022d565b62000a3a8162000a4e565b50565b606060018054620007859062001004565b600080546001600160a01b038381166001600160a01b0319831681178455604051919092169283917f8be0079c531659141344cd1fd0a4f28419497f9722a3daafe3b4186f6b6457e09190a35050565b60408051602880825260608281019093526000919060208201818036833701905050905060005b601481101562000c0057600062000ade826013620010b8565b62000aeb906008620010d2565b62000af8906002620011f3565b62000b0d906001600160a01b03871662001217565b60f81b9050600060108260f81c62000b2691906200122e565b60f81b905060008160f81c601062000b3f919062001253565b8360f81c62000b4f919062001277565b60f81b905062000b5f8262000c07565b8562000b6d866002620010d2565b8151811062000b805762000b8062000fce565b60200101906001600160f81b031916908160001a90535062000ba28162000c07565b8562000bb0866002620010d2565b62000bbd9060016200129d565b8151811062000bd05762000bd062000fce565b60200101906001600160f81b031916908160001a905350505050808062000bf790620012b8565b91505062000ac5565b5092915050565b6000600a60f883901c101562000c315762000c2860f883901c6030620012d6565b60f81b92915050565b62000c2860f883901c6057620012d6565b61132080620012ff83390190565b60006020828403121562000c6357600080fd5b5035919050565b600081518084526020808501945080840160005b8381101562000ca55781516001600160a01b03168752958201959082019060010162000c7e565b509495945050505050565b60208152600062000cc5602083018462000c6a565b9392505050565b6001600160a01b038116811462000a3a57600080fd5b60008060006060848603121562000cf857600080fd5b833562000d058162000ccc565b9250602084013562000d178162000ccc565b929592945050506040919091013590565b60006020828403121562000d3b57600080fd5b813562000cc58162000ccc565b6000815180845260005b8181101562000d705760208185018101518683018201520162000d52565b8181111562000d83576000602083870101525b50601f01601f19169290920160200192915050565b60208152600062000cc5602083018462000d48565b634e487b7160e01b600052604160045260246000fd5b604051601f8201601f1916810167ffffffffffffffff8111828210171562000def5762000def62000dad565b604052919050565b600082601f83011262000e0957600080fd5b813567ffffffffffffffff81111562000e265762000e2662000dad565b62000e3b601f8201601f191660200162000dc3565b81815284602083860101111562000e5157600080fd5b816020850160208301376000918101602001919091529392505050565b600082601f83011262000e8057600080fd5b8135602067ffffffffffffffff82111562000e9f5762000e9f62000dad565b8160051b62000eb082820162000dc3565b928352848101820192828101908785111562000ecb57600080fd5b83870192505b8483101562000ef757823562000ee78162000ccc565b8252918301919083019062000ed1565b979650505050505050565b60008060008060008060c0878903121562000f1c57600080fd5b863567ffffffffffffffff8082111562000f3557600080fd5b62000f438a838b0162000df7565b9750602089013591508082111562000f5a57600080fd5b62000f688a838b0162000df7565b9650604089013591508082111562000f7f57600080fd5b62000f8d8a838b0162000df7565b9550606089013594506080890135935060a089013591508082111562000fb257600080fd5b5062000fc189828a0162000e6e565b9150509295509295509295565b634e487b7160e01b600052603260045260246000fd5b60006020828403121562000ff757600080fd5b815162000cc58162000ccc565b600181811c908216806200101957607f821691505b60208210811415620002d357634e487b7160e01b600052602260045260246000fd5b60a0815260006200105060a083018862000d48565b828103602084015262001064818862000d48565b905082810360408401526200107a818762000d48565b9050846060840152828103608084015262001096818562000c6a565b98975050505050505050565b634e487b7160e01b600052601160045260246000fd5b600082821015620010cd57620010cd620010a2565b500390565b6000816000190483118215151615620010ef57620010ef620010a2565b500290565b600181815b8085111562001135578160001904821115620011195762001119620010a2565b808516156200112757918102915b93841c9390800290620010f9565b509250929050565b6000826200114e57506001620011ed565b816200115d57506000620011ed565b81600181146200117657600281146200118157620011a1565b6001915050620011ed565b60ff841115620011955762001195620010a2565b50506001821b620011ed565b5060208310610133831016604e8410600b8410161715620011c6575081810a620011ed565b620011d28383620010f4565b8060001904821115620011e957620011e9620010a2565b0290505b92915050565b600062000cc583836200113d565b634e487b7160e01b600052601260045260246000fd5b60008262001229576200122962001201565b500490565b600060ff83168062001244576200124462001201565b8060ff84160491505092915050565b600060ff821660ff84168160ff0481118215151615620011e957620011e9620010a2565b600060ff821660ff841680821015620012945762001294620010a2565b90039392505050565b60008219821115620012b357620012b3620010a2565b500190565b6000600019821415620012cf57620012cf620010a2565b5060010190565b600060ff821660ff84168060ff03821115620012f657620012f6620010a2565b01939250505056fe60806040523480156200001157600080fd5b5060405162001320380380620013208339810160408190526200003491620002f8565b6200003f33620000cc565b8451620000549060019060208801906200011c565b5083516200006a9060029060208701906200011c565b508251620000809060049060208601906200011c565b50600382905580516200009b906007906020840190620001ab565b508051620000b3576008805460ff19169055620000c1565b6008805460ff191660011790555b50505050506200047d565b600080546001600160a01b038381166001600160a01b0319831681178455604051919092169283917f8be0079c531659141344cd1fd0a4f28419497f9722a3daafe3b4186f6b6457e09190a35050565b8280546200012a9062000440565b90600052602060002090601f0160209004810192826200014e576000855562000199565b82601f106200016957805160ff191683800117855562000199565b8280016001018555821562000199579182015b82811115620001995782518255916020019190600101906200017c565b50620001a792915062000203565b5090565b82805482825590600052602060002090810192821562000199579160200282015b828111156200019957825182546001600160a01b0319166001600160a01b03909116178255602090920191600190910190620001cc565b5b80821115620001a7576000815560010162000204565b634e487b7160e01b600052604160045260246000fd5b604051601f8201601f191681016001600160401b03811182821017156200025b576200025b6200021a565b604052919050565b600082601f8301126200027557600080fd5b81516001600160401b038111156200029157620002916200021a565b6020620002a7601f8301601f1916820162000230565b8281528582848701011115620002bc57600080fd5b60005b83811015620002dc578581018301518282018401528201620002bf565b83811115620002ee5760008385840101525b5095945050505050565b600080600080600060a086880312156200031157600080fd5b85516001600160401b03808211156200032957600080fd5b6200033789838a0162000263565b96506020915081880151818111156200034f57600080fd5b6200035d8a828b0162000263565b9650506040880151818111156200037357600080fd5b620003818a828b0162000263565b955050606088015193506080880151818111156200039e57600080fd5b8801601f81018a13620003b057600080fd5b805182811115620003c557620003c56200021a565b8060051b9250620003d884840162000230565b818152928201840192848101908c851115620003f357600080fd5b928501925b848410156200042d57835192506001600160a01b03831683146200041c5760008081fd5b8282529285019290850190620003f8565b8096505050505050509295509295909350565b600181811c908216806200045557607f821691505b602082108114156200047757634e487b7160e01b600052602260045260246000fd5b50919050565b610e93806200048d6000396000f3fe608060405234801561001057600080fd5b50600436106100ea5760003560e01c8063af2b843e1161008c578063d838fcc311610066578063d838fcc3146101ea578063d9daab9b146101fd578063f2fde38b14610205578063fe704a9d1461021857600080fd5b8063af2b843e1461017e578063c731fc7b1461019e578063d5a056d8146101d757600080fd5b8063458f1a29116100c8578063458f1a2914610135578063600dad1d14610146578063715018a61461015b5780638da5cb5b1461016357600080fd5b8063072dbf2f146100ef5780632c4c47621461010d57806332db40b914610122575b600080fd5b6100f7610220565b6040516101049190610af8565b60405180910390f35b61012061011b366004610bd1565b610282565b005b610120610130366004610c60565b610410565b600354604051908152602001610104565b61014e61046c565b6040516101049190610cc6565b6101206104f5565b6000546040516001600160a01b039091168152602001610104565b61019161018c366004610c60565b61055b565b6040516101049190610ce0565b6101ca6101ac366004610d5a565b6001600160a01b03166000908152600a602052604090205460ff1690565b6040516101049190610d8b565b6101206101e5366004610d5a565b610786565b6101206101f8366004610db3565b61082f565b61014e610926565b610120610213366004610d5a565b610935565b61014e610a00565b6060600780548060200260200160405190810160405280929190818152602001828054801561027857602002820191906000526020600020905b81546001600160a01b0316815260019091019060200180831161025a575b5050505050905090565b6000546001600160a01b03163314806102bd5750336000908152600a602052604081205460ff1660068111156102ba576102ba610d75565b14155b6102e25760405162461bcd60e51b81526004016102d990610ddd565b60405180910390fd5b604080516080810182524281523360208083019182529282018581526060830185905260068054600181018255600091909152835160049091027ff652222313e28459528d920b65115c16c04f3efc82aaedc97be59f3f377c0d3f810191825592517ff652222313e28459528d920b65115c16c04f3efc82aaedc97be59f3f377c0d40840180546001600160a01b03929092166001600160a01b031990921691909117905590518051939491936103c0937ff652222313e28459528d920b65115c16c04f3efc82aaedc97be59f3f377c0d4101929190910190610a5f565b50606082015180516103dc916003840191602090910190610a5f565b505060405130915033907f9e003c88e545ece8ffbfec54d83dd54505596c479a3c3a1de531bf602682c64290600090a35050565b6000546001600160a01b031633148061044b5750336000908152600a602052604081205460ff16600681111561044857610448610d75565b14155b6104675760405162461bcd60e51b81526004016102d990610ddd565b600355565b60606004805461047b90610e0c565b80601f01602080910402602001604051908101604052809291908181526020018280546104a790610e0c565b80156102785780601f106104c957610100808354040283529160200191610278565b820191906000526020600020905b8154815290600101906020018083116104d757509395945050505050565b6000546001600160a01b0316331461054f5760405162461bcd60e51b815260206004820181905260248201527f4f776e61626c653a2063616c6c6572206973206e6f7420746865206f776e657260448201526064016102d9565b6105596000610a0f565b565b61058f60405180608001604052806000815260200160006001600160a01b0316815260200160608152602001606081525090565b60065482106105f65760405162461bcd60e51b815260206004820152602d60248201527f4552524f523a20546865206576656e74206e756d626572206d7573742062652060448201526c77697468696e2072616e67652160981b60648201526084016102d9565b6006828154811061060957610609610e47565b9060005260206000209060040201604051806080016040529081600082015481526020016001820160009054906101000a90046001600160a01b03166001600160a01b03166001600160a01b0316815260200160028201805461066b90610e0c565b80601f016020809104026020016040519081016040528092919081815260200182805461069790610e0c565b80156106e45780601f106106b9576101008083540402835291602001916106e4565b820191906000526020600020905b8154815290600101906020018083116106c757829003601f168201915b505050505081526020016003820180546106fd90610e0c565b80601f016020809104026020016040519081016040528092919081815260200182805461072990610e0c565b80156107765780601f1061074b57610100808354040283529160200191610776565b820191906000526020600020905b81548152906001019060200180831161075957829003601f168201915b5050505050815250509050919050565b6000546001600160a01b03163314806107c15750336000908152600a602052604081205460ff1660068111156107be576107be610d75565b14155b6107dd5760405162461bcd60e51b81526004016102d990610ddd565b600780546001810182556000919091527fa66cc928b5edb82af9bd49922954155ab7b0942694bea4ce44661d9a8736c6880180546001600160a01b0319166001600160a01b0392909216919091179055565b6000546001600160a01b031633148061086a5750336000908152600a602052604081205460ff16600681111561086757610867610d75565b14155b6108865760405162461bcd60e51b81526004016102d990610ddd565b8060068111156108d85760405162461bcd60e51b815260206004820152601e60248201527f4552524f5220726f6c65206e756d626572206f7574206f662072616e6765000060448201526064016102d9565b8160068111156108ea576108ea610d75565b6001600160a01b0384166000908152600a60205260409020805460ff1916600183600681111561091c5761091c610d75565b0217905550505050565b60606002805461047b90610e0c565b6000546001600160a01b0316331461098f5760405162461bcd60e51b815260206004820181905260248201527f4f776e61626c653a2063616c6c6572206973206e6f7420746865206f776e657260448201526064016102d9565b6001600160a01b0381166109f45760405162461bcd60e51b815260206004820152602660248201527f4f776e61626c653a206e6577206f776e657220697320746865207a65726f206160448201526564647265737360d01b60648201526084016102d9565b6109fd81610a0f565b50565b60606001805461047b90610e0c565b600080546001600160a01b038381166001600160a01b0319831681178455604051919092169283917f8be0079c531659141344cd1fd0a4f28419497f9722a3daafe3b4186f6b6457e09190a35050565b828054610a6b90610e0c565b90600052602060002090601f016020900481019282610a8d5760008555610ad3565b82601f10610aa657805160ff1916838001178555610ad3565b82800160010185558215610ad3579182015b82811115610ad3578251825591602001919060010190610ab8565b50610adf929150610ae3565b5090565b5b80821115610adf5760008155600101610ae4565b6020808252825182820181905260009190848201906040850190845b81811015610b395783516001600160a01b031683529284019291840191600101610b14565b50909695505050505050565b634e487b7160e01b600052604160045260246000fd5b600067ffffffffffffffff80841115610b7657610b76610b45565b604051601f8501601f19908116603f01168101908282118183101715610b9e57610b9e610b45565b81604052809350858152868686011115610bb757600080fd5b858560208301376000602087830101525050509392505050565b60008060408385031215610be457600080fd5b823567ffffffffffffffff80821115610bfc57600080fd5b818501915085601f830112610c1057600080fd5b610c1f86833560208501610b5b565b93506020850135915080821115610c3557600080fd5b508301601f81018513610c4757600080fd5b610c5685823560208401610b5b565b9150509250929050565b600060208284031215610c7257600080fd5b5035919050565b6000815180845260005b81811015610c9f57602081850181015186830182015201610c83565b81811115610cb1576000602083870101525b50601f01601f19169290920160200192915050565b602081526000610cd96020830184610c79565b9392505050565b602081528151602082015260018060a01b0360208301511660408201526000604083015160806060840152610d1860a0840182610c79565b90506060840151601f19848303016080850152610d358282610c79565b95945050505050565b80356001600160a01b0381168114610d5557600080fd5b919050565b600060208284031215610d6c57600080fd5b610cd982610d3e565b634e487b7160e01b600052602160045260246000fd5b6020810160078310610dad57634e487b7160e01b600052602160045260246000fd5b91905290565b60008060408385031215610dc657600080fd5b610dcf83610d3e565b946020939093013593505050565b60208082526015908201527411549493d48e881b9bdd08185d5d1a1bdc9a5e9959605a1b604082015260600190565b600181811c90821680610e2057607f821691505b60208210811415610e4157634e487b7160e01b600052602260045260246000fd5b50919050565b634e487b7160e01b600052603260045260246000fdfea26469706673582212209681d471c676f8c2269e9e64f7246e9aec434e6a562ed851680122d42fd5d0b064736f6c634300080b0033a264697066735822122088a2ef32c88cace9213c17c1c750db857b67a18dd49e9f6e17c7cf2b591ec48a64736f6c634300080b0033",
  "immutableReferences": {},
  "source": "// SPDX-License-Identifier: MIT\npragma solidity >=0.4.22 <0.9.0;\npragma abicoder v2;\n\nimport \"./Resource.sol\";\nimport \"@openzeppelin/contracts/proxy/Clones.sol\";\n\ncontract Producer is Ownable {\n  \n  using Clones for Producer;\n\n  string    _name;\n  string    _description;\n  address   _account;\n  address[] _resources;\n  mapping (address => uint) _resourceMap;\n\n  event AddResourceEvent (address indexed ownerAddr, address indexed addr);\n  event ChangeProducerEvent (address indexed src, address indexed dest, address indexed res);\n\n  constructor (\n    string memory name,\n    string memory description,\n    address account\n  ) Ownable() {\n    _name = name;\n    _description = description;\n    _account = account;\n  }\n\n  modifier onlyAuthorized() {\n    require(msg.sender == owner() || msg.sender == _account, addressToString(msg.sender));\n    _;\n  }\n\n  modifier roleInRange(uint i) {\n    require(i >= 0 && i <= uint(type(Role).max), \"ERROR role number out of range\");\n    _;\n  }\n\n  modifier resInRange(uint i) {\n    require(i >= 0 && i < _resources.length, \"ERROR resource number out of range\");\n    _;\n  }\n\n  function GetName ()\n  public view \n  returns (string memory) {\n    return _name;\n  }\n\n  function GetDescription ()\n  public view \n  returns (string memory) {\n    return _description;\n  }\n    \n  function GetAccount ()\n  public view \n  returns (address) {\n    return _account;\n  }\n\n  function GetResource (\n    uint resIndex\n  ) public view resInRange(resIndex)\n  returns (address) {\n    return _resources[resIndex];\n  }\n\n  function GetResources ()\n  public view \n  returns (address[] memory) {\n    return _resources;\n  }\n\n  function CreateResource (\n      string memory name,\n      string memory description,\n      string memory unitOfMeasure,\n      uint quantity,\n      uint role,\n      address[] memory prevProd\n  ) public onlyAuthorized roleInRange(role) {\n      Resource res = new Resource(name, description, unitOfMeasure, quantity, prevProd);\n      res.addAuthorized(_account, role);\n      AddToResources(address(res));\n  }\n\n  function ChangeProducer (\n    address newProducer,\n    address resAddr,\n    uint role\n  ) public onlyAuthorized roleInRange(role) {\n    Resource res = Resource(resAddr);\n    Producer prod = Producer(newProducer);\n    address prodAccont = prod.GetAccount();\n    res.addAuthorized(prodAccont, role);\n    res.addAuthorized(_account, 0);\n    res.transferOwnership(newProducer);\n    _resources[_resourceMap[resAddr]] = address(0);\n    emit ChangeProducerEvent(address(this), newProducer, resAddr);\n  }\n\n  function AddToResources(address res) \n  public onlyAuthorized {\n    _resources.push(res);\n    emit AddResourceEvent(address(this), address(res));\n  }\n\n  function RmFromResources(uint index) \n  public onlyAuthorized {\n    _resources[index] = address(0);\n  }\n\n  function addressToString(address x) \n  internal pure \n  returns (string memory) {\n    bytes memory s = new bytes(40);\n    for (uint i = 0; i < 20; i++) {\n        bytes1 b = bytes1(uint8(uint(uint160(x)) / (2**(8*(19 - i)))));\n        bytes1 hi = bytes1(uint8(b) / 16);\n        bytes1 lo = bytes1(uint8(b) - 16 * uint8(hi));\n        s[2*i] = char(hi);\n        s[2*i+1] = char(lo);            \n    }\n    return string(s);\n  }\n\n  function char(bytes1 b)\n  internal pure\n  returns (bytes1 c) {\n    if (uint8(b) < 10) return bytes1(uint8(b) + 0x30);\n    else return bytes1(uint8(b) + 0x57);\n  }\n}",
  "sourcePath": "/home/mgpop/Dev/Agri_EVM_IOTA/contracts/Producer.sol",
  "compiler": {
    "name": "solc",
    "version": "0.8.11+commit.d7f03943.Emscripten.clang"
  },
  "schemaVersion": "3.4.4",
  "updatedAt": "2022-01-25T08:30:19.130Z",
  "devdoc": {
    "kind": "dev",
    "methods": {
      "owner()": {
        "details": "Returns the address of the current owner."
      },
      "renounceOwnership()": {
        "details": "Leaves the contract without owner. It will not be possible to call `onlyOwner` functions anymore. Can only be called by the current owner. NOTE: Renouncing ownership will leave the contract without an owner, thereby removing any functionality that is only available to the owner."
      },
      "transferOwnership(address)": {
        "details": "Transfers ownership of the contract to a new account (`newOwner`). Can only be called by the current owner."
      }
    },
    "version": 1
  },
  "userdoc": {
    "kind": "user",
    "methods": {},
    "version": 1
  }
}