{
  "contractName": "Producer",
  "abi": [
    {
      "inputs": [
        {
          "internalType": "string",
          "name": "name",
          "type": "string"
        },
        {
          "internalType": "string",
          "name": "description",
          "type": "string"
        },
        {
          "internalType": "address",
          "name": "account",
          "type": "address"
        }
      ],
      "stateMutability": "nonpayable",
      "type": "constructor"
    },
    {
      "anonymous": false,
      "inputs": [
        {
          "indexed": true,
          "internalType": "address",
          "name": "ownerAddr",
          "type": "address"
        },
        {
          "indexed": true,
          "internalType": "address",
          "name": "addr",
          "type": "address"
        }
      ],
      "name": "AddResourceEvent",
      "type": "event"
    },
    {
      "anonymous": false,
      "inputs": [
        {
          "indexed": true,
          "internalType": "address",
          "name": "src",
          "type": "address"
        },
        {
          "indexed": true,
          "internalType": "address",
          "name": "dest",
          "type": "address"
        },
        {
          "indexed": true,
          "internalType": "address",
          "name": "res",
          "type": "address"
        }
      ],
      "name": "ChangeProducerEvent",
      "type": "event"
    },
    {
      "anonymous": false,
      "inputs": [
        {
          "indexed": true,
          "internalType": "address",
          "name": "previousOwner",
          "type": "address"
        },
        {
          "indexed": true,
          "internalType": "address",
          "name": "newOwner",
          "type": "address"
        }
      ],
      "name": "OwnershipTransferred",
      "type": "event"
    },
    {
      "inputs": [],
      "name": "owner",
      "outputs": [
        {
          "internalType": "address",
          "name": "",
          "type": "address"
        }
      ],
      "stateMutability": "view",
      "type": "function"
    },
    {
      "inputs": [],
      "name": "renounceOwnership",
      "outputs": [],
      "stateMutability": "nonpayable",
      "type": "function"
    },
    {
      "inputs": [
        {
          "internalType": "address",
          "name": "newOwner",
          "type": "address"
        }
      ],
      "name": "transferOwnership",
      "outputs": [],
      "stateMutability": "nonpayable",
      "type": "function"
    },
    {
      "inputs": [],
      "name": "GetName",
      "outputs": [
        {
          "internalType": "string",
          "name": "",
          "type": "string"
        }
      ],
      "stateMutability": "view",
      "type": "function"
    },
    {
      "inputs": [],
      "name": "GetDescription",
      "outputs": [
        {
          "internalType": "string",
          "name": "",
          "type": "string"
        }
      ],
      "stateMutability": "view",
      "type": "function"
    },
    {
      "inputs": [],
      "name": "GetAccount",
      "outputs": [
        {
          "internalType": "address",
          "name": "",
          "type": "address"
        }
      ],
      "stateMutability": "view",
      "type": "function"
    },
    {
      "inputs": [
        {
          "internalType": "uint256",
          "name": "resIndex",
          "type": "uint256"
        }
      ],
      "name": "GetResource",
      "outputs": [
        {
          "internalType": "address",
          "name": "",
          "type": "address"
        }
      ],
      "stateMutability": "view",
      "type": "function"
    },
    {
      "inputs": [],
      "name": "GetResources",
      "outputs": [
        {
          "internalType": "address[]",
          "name": "",
          "type": "address[]"
        }
      ],
      "stateMutability": "view",
      "type": "function"
    },
    {
      "inputs": [
        {
          "internalType": "string",
          "name": "name",
          "type": "string"
        },
        {
          "internalType": "string",
          "name": "description",
          "type": "string"
        },
        {
          "internalType": "string",
          "name": "unitOfMeasure",
          "type": "string"
        },
        {
          "internalType": "uint256",
          "name": "quantity",
          "type": "uint256"
        },
        {
          "internalType": "uint256",
          "name": "role",
          "type": "uint256"
        },
        {
          "internalType": "address[]",
          "name": "prevProd",
          "type": "address[]"
        }
      ],
      "name": "CreateResource",
      "outputs": [],
      "stateMutability": "nonpayable",
      "type": "function"
    },
    {
      "inputs": [
        {
          "internalType": "address",
          "name": "newProducer",
          "type": "address"
        },
        {
          "internalType": "address",
          "name": "resAddr",
          "type": "address"
        },
        {
          "internalType": "uint256",
          "name": "role",
          "type": "uint256"
        }
      ],
      "name": "ChangeProducer",
      "outputs": [],
      "stateMutability": "nonpayable",
      "type": "function"
    },
    {
      "inputs": [
        {
          "internalType": "address",
          "name": "res",
          "type": "address"
        }
      ],
      "name": "AddToResources",
      "outputs": [],
      "stateMutability": "nonpayable",
      "type": "function"
    },
    {
      "inputs": [
        {
          "internalType": "uint256",
          "name": "index",
          "type": "uint256"
        }
      ],
      "name": "RmFromResources",
      "outputs": [],
      "stateMutability": "nonpayable",
      "type": "function"
    }
  ],
  "bytecode": "0x60806040523480156200001157600080fd5b5060405162002a5a38038062002a5a833981016040819052620000349162000257565b6200003f3362000094565b825162000054906001906020860190620000e4565b5081516200006a906002906020850190620000e4565b50600380546001600160a01b0319166001600160a01b039290921691909117905550620003219050565b600080546001600160a01b038381166001600160a01b0319831681178455604051919092169283917f8be0079c531659141344cd1fd0a4f28419497f9722a3daafe3b4186f6b6457e09190a35050565b828054620000f290620002e4565b90600052602060002090601f01602090048101928262000116576000855562000161565b82601f106200013157805160ff191683800117855562000161565b8280016001018555821562000161579182015b828111156200016157825182559160200191906001019062000144565b506200016f92915062000173565b5090565b5b808211156200016f576000815560010162000174565b634e487b7160e01b600052604160045260246000fd5b600082601f830112620001b257600080fd5b81516001600160401b0380821115620001cf57620001cf6200018a565b604051601f8301601f19908116603f01168101908282118183101715620001fa57620001fa6200018a565b816040528381526020925086838588010111156200021757600080fd5b600091505b838210156200023b57858201830151818301840152908201906200021c565b838211156200024d5760008385830101525b9695505050505050565b6000806000606084860312156200026d57600080fd5b83516001600160401b03808211156200028557600080fd5b6200029387838801620001a0565b94506020860151915080821115620002aa57600080fd5b50620002b986828701620001a0565b604086015190935090506001600160a01b0381168114620002d957600080fd5b809150509250925092565b600181811c90821680620002f957607f821691505b602082108114156200031b57634e487b7160e01b600052602260045260246000fd5b50919050565b61272980620003316000396000f3fe60806040523480156200001157600080fd5b5060043610620000c35760003560e01c8063c7d1bb50116200007a578063c7d1bb501462000157578063c9d64ab6146200016e578063d9daab9b1462000185578063ea59490c146200019e578063f2fde38b14620001b5578063fe704a9d14620001cc57600080fd5b806310f01d1814620000c8578063715018a614620000f25780638da5cb5b14620000fe5780638e7a0b031462000110578063aeff645e1462000127578063b88f1af91462000140575b600080fd5b6003546001600160a01b03165b6040516001600160a01b0390911681526020015b60405180910390f35b620000fc620001d6565b005b6000546001600160a01b0316620000d5565b620000d56200012136600462000c68565b62000244565b62000131620002d9565b604051620000e9919062000cc8565b620000fc6200015136600462000cfa565b6200033d565b620000fc6200016836600462000d40565b6200060f565b620000fc6200017f36600462000c68565b620006db565b6200018f62000775565b604051620000e9919062000db0565b620000fc620001af36600462000f1a565b62000806565b620000fc620001c636600462000d40565b62000984565b6200018f62000a55565b6000546001600160a01b03163314620002365760405162461bcd60e51b815260206004820181905260248201527f4f776e61626c653a2063616c6c6572206973206e6f7420746865206f776e657260448201526064015b60405180910390fd5b62000242600062000a66565b565b6000816004548110620002a55760405162461bcd60e51b815260206004820152602260248201527f4552524f52207265736f75726365206e756d626572206f7574206f662072616e604482015261676560f01b60648201526084016200022d565b60048381548110620002bb57620002bb62000fe6565b6000918252602090912001546001600160a01b031691505b50919050565b606060048054806020026020016040519081016040528092919081815260200182805480156200033357602002820191906000526020600020905b81546001600160a01b0316815260019091019060200180831162000314575b5050505050905090565b6000546001600160a01b03163314806200036157506003546001600160a01b031633145b6200036c3362000ab6565b906200038d5760405162461bcd60e51b81526004016200022d919062000db0565b50806006811115620003e25760405162461bcd60e51b815260206004820152601e60248201527f4552524f5220726f6c65206e756d626572206f7574206f662072616e6765000060448201526064016200022d565b600083905060008590506000816001600160a01b03166310f01d186040518163ffffffff1660e01b8152600401602060405180830381865afa1580156200042d573d6000803e3d6000fd5b505050506040513d601f19601f8201168201806040525081019062000453919062001012565b60405163798759e960e01b81529091506001600160a01b0384169063798759e9906200048790849060019060040162001032565b600060405180830381600087803b158015620004a257600080fd5b505af1158015620004b7573d6000803e3d6000fd5b505060035460405163798759e960e01b81526001600160a01b03808816945063798759e99350620004f092169060009060040162001032565b600060405180830381600087803b1580156200050b57600080fd5b505af115801562000520573d6000803e3d6000fd5b505060405163f2fde38b60e01b81526001600160a01b038a811660048301528616925063f2fde38b9150602401600060405180830381600087803b1580156200056857600080fd5b505af11580156200057d573d6000803e3d6000fd5b5050506001600160a01b03871660009081526005602052604081205460048054929350918110620005b257620005b262000fe6565b6000918252602082200180546001600160a01b0319166001600160a01b03938416179055604051888316928a169130917f4b5e014c755fdb6a52024ce15f7b6996231b7240cb5556f40c3671e175f516ea9190a450505050505050565b6000546001600160a01b03163314806200063357506003546001600160a01b031633145b6200063e3362000ab6565b906200065f5760405162461bcd60e51b81526004016200022d919062000db0565b506004805460018101825560009182527f8a35acfbc15ff81a39ae7d344fd709f28e8600b4aa8c65c6b64bfe7fe36bd19b0180546001600160a01b0319166001600160a01b038416908117909155604051909130917f5e2190ddb640c06212c3e4cf9aa4bdc116646a4e2d65935751b16cecd25746569190a350565b6000546001600160a01b0316331480620006ff57506003546001600160a01b031633145b6200070a3362000ab6565b906200072b5760405162461bcd60e51b81526004016200022d919062000db0565b5060006004828154811062000744576200074462000fe6565b9060005260206000200160006101000a8154816001600160a01b0302191690836001600160a01b0316021790555050565b60606002805462000786906200106e565b80601f0160208091040260200160405190810160405280929190818152602001828054620007b4906200106e565b8015620003335780601f10620007d95761010080835404028352916020019162000333565b820191906000526020600020905b815481529060010190602001808311620007e757509395945050505050565b6000546001600160a01b03163314806200082a57506003546001600160a01b031633145b620008353362000ab6565b90620008565760405162461bcd60e51b81526004016200022d919062000db0565b50816006811115620008ab5760405162461bcd60e51b815260206004820152601e60248201527f4552524f5220726f6c65206e756d626572206f7574206f662072616e6765000060448201526064016200022d565b60008787878786604051620008c09062000c5a565b620008d0959493929190620010a5565b604051809103906000f080158015620008ed573d6000803e3d6000fd5b506003549091506001600160a01b038083169163798759e991168660068111156200091c576200091c62000ffc565b6040518363ffffffff1660e01b81526004016200093b92919062001032565b600060405180830381600087803b1580156200095657600080fd5b505af11580156200096b573d6000803e3d6000fd5b505050506200097a816200060f565b5050505050505050565b6000546001600160a01b03163314620009e05760405162461bcd60e51b815260206004820181905260248201527f4f776e61626c653a2063616c6c6572206973206e6f7420746865206f776e657260448201526064016200022d565b6001600160a01b03811662000a475760405162461bcd60e51b815260206004820152602660248201527f4f776e61626c653a206e6577206f776e657220697320746865207a65726f206160448201526564647265737360d01b60648201526084016200022d565b62000a528162000a66565b50565b60606001805462000786906200106e565b600080546001600160a01b038381166001600160a01b0319831681178455604051919092169283917f8be0079c531659141344cd1fd0a4f28419497f9722a3daafe3b4186f6b6457e09190a35050565b60408051602880825260608281019093526000919060208201818036833701905050905060005b601481101562000c1857600062000af682601362001122565b62000b039060086200113c565b62000b109060026200125d565b62000b25906001600160a01b03871662001281565b60f81b9050600060108260f81c62000b3e919062001298565b60f81b905060008160f81c601062000b579190620012bd565b8360f81c62000b679190620012e1565b60f81b905062000b778262000c1f565b8562000b858660026200113c565b8151811062000b985762000b9862000fe6565b60200101906001600160f81b031916908160001a90535062000bba8162000c1f565b8562000bc88660026200113c565b62000bd590600162001307565b8151811062000be85762000be862000fe6565b60200101906001600160f81b031916908160001a905350505050808062000c0f9062001322565b91505062000add565b5092915050565b6000600a60f883901c101562000c495762000c4060f883901c603062001340565b60f81b92915050565b62000c4060f883901c605762001340565b61138b806200136983390190565b60006020828403121562000c7b57600080fd5b5035919050565b600081518084526020808501945080840160005b8381101562000cbd5781516001600160a01b03168752958201959082019060010162000c96565b509495945050505050565b60208152600062000cdd602083018462000c82565b9392505050565b6001600160a01b038116811462000a5257600080fd5b60008060006060848603121562000d1057600080fd5b833562000d1d8162000ce4565b9250602084013562000d2f8162000ce4565b929592945050506040919091013590565b60006020828403121562000d5357600080fd5b813562000cdd8162000ce4565b6000815180845260005b8181101562000d885760208185018101518683018201520162000d6a565b8181111562000d9b576000602083870101525b50601f01601f19169290920160200192915050565b60208152600062000cdd602083018462000d60565b634e487b7160e01b600052604160045260246000fd5b604051601f8201601f1916810167ffffffffffffffff8111828210171562000e075762000e0762000dc5565b604052919050565b600082601f83011262000e2157600080fd5b813567ffffffffffffffff81111562000e3e5762000e3e62000dc5565b62000e53601f8201601f191660200162000ddb565b81815284602083860101111562000e6957600080fd5b816020850160208301376000918101602001919091529392505050565b600082601f83011262000e9857600080fd5b8135602067ffffffffffffffff82111562000eb75762000eb762000dc5565b8160051b62000ec882820162000ddb565b928352848101820192828101908785111562000ee357600080fd5b83870192505b8483101562000f0f57823562000eff8162000ce4565b8252918301919083019062000ee9565b979650505050505050565b60008060008060008060c0878903121562000f3457600080fd5b863567ffffffffffffffff8082111562000f4d57600080fd5b62000f5b8a838b0162000e0f565b9750602089013591508082111562000f7257600080fd5b62000f808a838b0162000e0f565b9650604089013591508082111562000f9757600080fd5b62000fa58a838b0162000e0f565b9550606089013594506080890135935060a089013591508082111562000fca57600080fd5b5062000fd989828a0162000e86565b9150509295509295509295565b634e487b7160e01b600052603260045260246000fd5b634e487b7160e01b600052602160045260246000fd5b6000602082840312156200102557600080fd5b815162000cdd8162000ce4565b6001600160a01b038316815260408101600783106200106157634e487b7160e01b600052602160045260246000fd5b8260208301529392505050565b600181811c908216806200108357607f821691505b60208210811415620002d357634e487b7160e01b600052602260045260246000fd5b60a081526000620010ba60a083018862000d60565b8281036020840152620010ce818862000d60565b90508281036040840152620010e4818762000d60565b9050846060840152828103608084015262001100818562000c82565b98975050505050505050565b634e487b7160e01b600052601160045260246000fd5b6000828210156200113757620011376200110c565b500390565b60008160001904831182151516156200115957620011596200110c565b500290565b600181815b808511156200119f5781600019048211156200118357620011836200110c565b808516156200119157918102915b93841c939080029062001163565b509250929050565b600082620011b85750600162001257565b81620011c75750600062001257565b8160018114620011e05760028114620011eb576200120b565b600191505062001257565b60ff841115620011ff57620011ff6200110c565b50506001821b62001257565b5060208310610133831016604e8410600b841016171562001230575081810a62001257565b6200123c83836200115e565b80600019048211156200125357620012536200110c565b0290505b92915050565b600062000cdd8383620011a7565b634e487b7160e01b600052601260045260246000fd5b6000826200129357620012936200126b565b500490565b600060ff831680620012ae57620012ae6200126b565b8060ff84160491505092915050565b600060ff821660ff84168160ff04811182151516156200125357620012536200110c565b600060ff821660ff841680821015620012fe57620012fe6200110c565b90039392505050565b600082198211156200131d576200131d6200110c565b500190565b60006000198214156200133957620013396200110c565b5060010190565b600060ff821660ff84168060ff038211156200136057620013606200110c565b01939250505056fe60806040523480156200001157600080fd5b506040516200138b3803806200138b833981016040819052620000349162000307565b6200003f33620000db565b8451620000549060019060208801906200012b565b5083516200006a9060029060208701906200012b565b508251620000809060049060208601906200012b565b50600382905580516200009b906007906020840190620001ba565b506008805461ff0019166101001790558051620000c2576008805460ff19169055620000d0565b6008805460ff191660011790555b50505050506200048c565b600080546001600160a01b038381166001600160a01b0319831681178455604051919092169283917f8be0079c531659141344cd1fd0a4f28419497f9722a3daafe3b4186f6b6457e09190a35050565b82805462000139906200044f565b90600052602060002090601f0160209004810192826200015d5760008555620001a8565b82601f106200017857805160ff1916838001178555620001a8565b82800160010185558215620001a8579182015b82811115620001a85782518255916020019190600101906200018b565b50620001b692915062000212565b5090565b828054828255906000526020600020908101928215620001a8579160200282015b82811115620001a857825182546001600160a01b0319166001600160a01b03909116178255602090920191600190910190620001db565b5b80821115620001b6576000815560010162000213565b634e487b7160e01b600052604160045260246000fd5b604051601f8201601f191681016001600160401b03811182821017156200026a576200026a62000229565b604052919050565b600082601f8301126200028457600080fd5b81516001600160401b03811115620002a057620002a062000229565b6020620002b6601f8301601f191682016200023f565b8281528582848701011115620002cb57600080fd5b60005b83811015620002eb578581018301518282018401528201620002ce565b83811115620002fd5760008385840101525b5095945050505050565b600080600080600060a086880312156200032057600080fd5b85516001600160401b03808211156200033857600080fd5b6200034689838a0162000272565b96506020915081880151818111156200035e57600080fd5b6200036c8a828b0162000272565b9650506040880151818111156200038257600080fd5b620003908a828b0162000272565b95505060608801519350608088015181811115620003ad57600080fd5b8801601f81018a13620003bf57600080fd5b805182811115620003d457620003d462000229565b8060051b9250620003e78484016200023f565b818152928201840192848101908c8511156200040257600080fd5b928501925b848410156200043c57835192506001600160a01b03831683146200042b5760008081fd5b828252928501929085019062000407565b8096505050505050509295509295909350565b600181811c908216806200046457607f821691505b602082108114156200048657634e487b7160e01b600052602260045260246000fd5b50919050565b610eef806200049c6000396000f3fe608060405234801561001057600080fd5b50600436106100f55760003560e01c80638da5cb5b11610097578063d5a056d811610066578063d5a056d814610208578063d9daab9b1461021b578063f2fde38b14610223578063fe704a9d1461023657600080fd5b80638da5cb5b14610181578063a9e966b71461019c578063af2b843e146101af578063c731fc7b146101cf57600080fd5b8063458f1a29116100d3578063458f1a2914610140578063600dad1d14610151578063715018a614610166578063798759e91461016e57600080fd5b8063072dbf2f146100fa5780632c4c47621461011857806332db40b91461012d575b600080fd5b61010261023e565b60405161010f9190610b43565b60405180910390f35b61012b610126366004610c1c565b6102a0565b005b61012b61013b366004610cab565b61042e565b60035460405190815260200161010f565b61015961048a565b60405161010f9190610d11565b61012b610513565b61012b61017c366004610d47565b610579565b6000546040516001600160a01b03909116815260200161010f565b61012b6101aa366004610cab565b61060e565b6101c26101bd366004610cab565b61069d565b60405161010f9190610d82565b6101fb6101dd366004610de0565b6001600160a01b03166000908152600a602052604090205460ff1690565b60405161010f9190610e11565b61012b610216366004610de0565b6108c8565b610159610971565b61012b610231366004610de0565b610980565b610159610a4b565b6060600780548060200260200160405190810160405280929190818152602001828054801561029657602002820191906000526020600020905b81546001600160a01b03168152600190910190602001808311610278575b5050505050905090565b6000546001600160a01b03163314806102db5750336000908152600a602052604081205460ff1660068111156102d8576102d8610dfb565b14155b6103005760405162461bcd60e51b81526004016102f790610e39565b60405180910390fd5b604080516080810182524281523360208083019182529282018581526060830185905260068054600181018255600091909152835160049091027ff652222313e28459528d920b65115c16c04f3efc82aaedc97be59f3f377c0d3f810191825592517ff652222313e28459528d920b65115c16c04f3efc82aaedc97be59f3f377c0d40840180546001600160a01b03929092166001600160a01b031990921691909117905590518051939491936103de937ff652222313e28459528d920b65115c16c04f3efc82aaedc97be59f3f377c0d4101929190910190610aaa565b50606082015180516103fa916003840191602090910190610aaa565b505060405130915033907f9e003c88e545ece8ffbfec54d83dd54505596c479a3c3a1de531bf602682c64290600090a35050565b6000546001600160a01b03163314806104695750336000908152600a602052604081205460ff16600681111561046657610466610dfb565b14155b6104855760405162461bcd60e51b81526004016102f790610e39565b600355565b60606004805461049990610e68565b80601f01602080910402602001604051908101604052809291908181526020018280546104c590610e68565b80156102965780601f106104e757610100808354040283529160200191610296565b820191906000526020600020905b8154815290600101906020018083116104f557509395945050505050565b6000546001600160a01b0316331461056d5760405162461bcd60e51b815260206004820181905260248201527f4f776e61626c653a2063616c6c6572206973206e6f7420746865206f776e657260448201526064016102f7565b6105776000610a5a565b565b6000546001600160a01b03163314806105b45750336000908152600a602052604081205460ff1660068111156105b1576105b1610dfb565b14155b6105d05760405162461bcd60e51b81526004016102f790610e39565b6001600160a01b0382166000908152600a60205260409020805482919060ff1916600183600681111561060557610605610dfb565b02179055505050565b6000546001600160a01b03163314806106495750336000908152600a602052604081205460ff16600681111561064657610646610dfb565b14155b6106655760405162461bcd60e51b81526004016102f790610e39565b80600181111561067757610677610dfb565b6008805461ff00191661010083600181111561069557610695610dfb565b021790555050565b6106d160405180608001604052806000815260200160006001600160a01b0316815260200160608152602001606081525090565b60065482106107385760405162461bcd60e51b815260206004820152602d60248201527f4552524f523a20546865206576656e74206e756d626572206d7573742062652060448201526c77697468696e2072616e67652160981b60648201526084016102f7565b6006828154811061074b5761074b610ea3565b9060005260206000209060040201604051806080016040529081600082015481526020016001820160009054906101000a90046001600160a01b03166001600160a01b03166001600160a01b031681526020016002820180546107ad90610e68565b80601f01602080910402602001604051908101604052809291908181526020018280546107d990610e68565b80156108265780601f106107fb57610100808354040283529160200191610826565b820191906000526020600020905b81548152906001019060200180831161080957829003601f168201915b5050505050815260200160038201805461083f90610e68565b80601f016020809104026020016040519081016040528092919081815260200182805461086b90610e68565b80156108b85780601f1061088d576101008083540402835291602001916108b8565b820191906000526020600020905b81548152906001019060200180831161089b57829003601f168201915b5050505050815250509050919050565b6000546001600160a01b03163314806109035750336000908152600a602052604081205460ff16600681111561090057610900610dfb565b14155b61091f5760405162461bcd60e51b81526004016102f790610e39565b600780546001810182556000919091527fa66cc928b5edb82af9bd49922954155ab7b0942694bea4ce44661d9a8736c6880180546001600160a01b0319166001600160a01b0392909216919091179055565b60606002805461049990610e68565b6000546001600160a01b031633146109da5760405162461bcd60e51b815260206004820181905260248201527f4f776e61626c653a2063616c6c6572206973206e6f7420746865206f776e657260448201526064016102f7565b6001600160a01b038116610a3f5760405162461bcd60e51b815260206004820152602660248201527f4f776e61626c653a206e6577206f776e657220697320746865207a65726f206160448201526564647265737360d01b60648201526084016102f7565b610a4881610a5a565b50565b60606001805461049990610e68565b600080546001600160a01b038381166001600160a01b0319831681178455604051919092169283917f8be0079c531659141344cd1fd0a4f28419497f9722a3daafe3b4186f6b6457e09190a35050565b828054610ab690610e68565b90600052602060002090601f016020900481019282610ad85760008555610b1e565b82601f10610af157805160ff1916838001178555610b1e565b82800160010185558215610b1e579182015b82811115610b1e578251825591602001919060010190610b03565b50610b2a929150610b2e565b5090565b5b80821115610b2a5760008155600101610b2f565b6020808252825182820181905260009190848201906040850190845b81811015610b845783516001600160a01b031683529284019291840191600101610b5f565b50909695505050505050565b634e487b7160e01b600052604160045260246000fd5b600067ffffffffffffffff80841115610bc157610bc1610b90565b604051601f8501601f19908116603f01168101908282118183101715610be957610be9610b90565b81604052809350858152868686011115610c0257600080fd5b858560208301376000602087830101525050509392505050565b60008060408385031215610c2f57600080fd5b823567ffffffffffffffff80821115610c4757600080fd5b818501915085601f830112610c5b57600080fd5b610c6a86833560208501610ba6565b93506020850135915080821115610c8057600080fd5b508301601f81018513610c9257600080fd5b610ca185823560208401610ba6565b9150509250929050565b600060208284031215610cbd57600080fd5b5035919050565b6000815180845260005b81811015610cea57602081850181015186830182015201610cce565b81811115610cfc576000602083870101525b50601f01601f19169290920160200192915050565b602081526000610d246020830184610cc4565b9392505050565b80356001600160a01b0381168114610d4257600080fd5b919050565b60008060408385031215610d5a57600080fd5b610d6383610d2b565b9150602083013560078110610d7757600080fd5b809150509250929050565b602081528151602082015260018060a01b0360208301511660408201526000604083015160806060840152610dba60a0840182610cc4565b90506060840151601f19848303016080850152610dd78282610cc4565b95945050505050565b600060208284031215610df257600080fd5b610d2482610d2b565b634e487b7160e01b600052602160045260246000fd5b6020810160078310610e3357634e487b7160e01b600052602160045260246000fd5b91905290565b60208082526015908201527411549493d48e881b9bdd08185d5d1a1bdc9a5e9959605a1b604082015260600190565b600181811c90821680610e7c57607f821691505b60208210811415610e9d57634e487b7160e01b600052602260045260246000fd5b50919050565b634e487b7160e01b600052603260045260246000fdfea2646970667358221220690b3c47d079f67caff2ce3637daa95e8882a5f50421450f45696e5c4f8b9ed664736f6c634300080b0033a2646970667358221220380e3dc7abe1dadd3949a85cef4f68b66aca72700e0a339e626c2ce107ed088064736f6c634300080b0033",
  "immutableReferences": {},
  "source": "// SPDX-License-Identifier: MIT\npragma solidity >=0.4.22 <0.9.0;\npragma abicoder v2;\n\nimport \"./Resource.sol\";\nimport \"@openzeppelin/contracts/proxy/Clones.sol\";\n\ncontract Producer is Ownable {\n  \n  using Clones for Producer;\n\n  string    _name;\n  string    _description;\n  address   _account;\n  address[] _resources;\n  mapping (address => uint) _resourceMap;\n\n  event AddResourceEvent (address indexed ownerAddr, address indexed addr);\n  event ChangeProducerEvent (address indexed src, address indexed dest, address indexed res);\n\n  constructor (\n    string memory name,\n    string memory description,\n    address account\n  ) Ownable() {\n    _name = name;\n    _description = description;\n    _account = account;\n  }\n\n  modifier onlyAuthorized() {\n    require(msg.sender == owner() || msg.sender == _account, addressToString(msg.sender));\n    _;\n  }\n\n  modifier roleInRange(uint i) {\n    require(i >= 0 && i <= uint(type(Role).max), \"ERROR role number out of range\");\n    _;\n  }\n\n  modifier resInRange(uint i) {\n    require(i >= 0 && i < _resources.length, \"ERROR resource number out of range\");\n    _;\n  }\n\n  function GetName ()\n  public view \n  returns (string memory) {\n    return _name;\n  }\n\n  function GetDescription ()\n  public view \n  returns (string memory) {\n    return _description;\n  }\n    \n  function GetAccount ()\n  public view \n  returns (address) {\n    return _account;\n  }\n\n  function GetResource (\n    uint resIndex\n  ) public view resInRange(resIndex)\n  returns (address) {\n    return _resources[resIndex];\n  }\n\n  function GetResources ()\n  public view \n  returns (address[] memory) {\n    return _resources;\n  }\n\n  function CreateResource (\n      string memory name,\n      string memory description,\n      string memory unitOfMeasure,\n      uint quantity,\n      uint role,\n      address[] memory prevProd\n  ) public onlyAuthorized roleInRange(role) {\n      Resource res = new Resource(name, description, unitOfMeasure, quantity, prevProd);\n      res.addAuthorized(_account, Role(role));\n      AddToResources(address(res));\n  }\n\n  function ChangeProducer (\n    address newProducer,\n    address resAddr,\n    uint role\n  ) public onlyAuthorized roleInRange(role) {\n    Resource res = Resource(resAddr);\n    Producer prod = Producer(newProducer);\n    address prodAccont = prod.GetAccount();\n    res.addAuthorized(prodAccont, Role.farmer);\n    res.addAuthorized(_account, Role.disabled);\n    res.transferOwnership(newProducer);\n    _resources[_resourceMap[resAddr]] = address(0);\n    emit ChangeProducerEvent(address(this), newProducer, resAddr);\n  }\n\n  function AddToResources(address res) \n  public onlyAuthorized {\n    _resources.push(res);\n    emit AddResourceEvent(address(this), address(res));\n  }\n\n  function RmFromResources(uint index) \n  public onlyAuthorized {\n    _resources[index] = address(0);\n  }\n\n  function addressToString(address x) \n  internal pure \n  returns (string memory) {\n    bytes memory s = new bytes(40);\n    for (uint i = 0; i < 20; i++) {\n        bytes1 b = bytes1(uint8(uint(uint160(x)) / (2**(8*(19 - i)))));\n        bytes1 hi = bytes1(uint8(b) / 16);\n        bytes1 lo = bytes1(uint8(b) - 16 * uint8(hi));\n        s[2*i] = char(hi);\n        s[2*i+1] = char(lo);            \n    }\n    return string(s);\n  }\n\n  function char(bytes1 b)\n  internal pure\n  returns (bytes1 c) {\n    if (uint8(b) < 10) return bytes1(uint8(b) + 0x30);\n    else return bytes1(uint8(b) + 0x57);\n  }\n}",
  "sourcePath": "/home/mgpop/Dev/Agri_EVM_IOTA/contracts/Producer.sol",
  "compiler": {
    "name": "solc",
    "version": "0.8.11+commit.d7f03943.Emscripten.clang"
  },
  "schemaVersion": "3.4.4",
  "updatedAt": "2022-01-23T14:27:00.263Z",
  "devdoc": {
    "kind": "dev",
    "methods": {
      "owner()": {
        "details": "Returns the address of the current owner."
      },
      "renounceOwnership()": {
        "details": "Leaves the contract without owner. It will not be possible to call `onlyOwner` functions anymore. Can only be called by the current owner. NOTE: Renouncing ownership will leave the contract without an owner, thereby removing any functionality that is only available to the owner."
      },
      "transferOwnership(address)": {
        "details": "Transfers ownership of the contract to a new account (`newOwner`). Can only be called by the current owner."
      }
    },
    "version": 1
  },
  "userdoc": {
    "kind": "user",
    "methods": {},
    "version": 1
  }
}