{
  "contractName": "Producer",
  "abi": [
    {
      "inputs": [
        {
          "internalType": "string",
          "name": "name",
          "type": "string"
        },
        {
          "internalType": "string",
          "name": "description",
          "type": "string"
        }
      ],
      "stateMutability": "nonpayable",
      "type": "constructor"
    },
    {
      "anonymous": false,
      "inputs": [
        {
          "indexed": true,
          "internalType": "address",
          "name": "previousOwner",
          "type": "address"
        },
        {
          "indexed": true,
          "internalType": "address",
          "name": "newOwner",
          "type": "address"
        }
      ],
      "name": "OwnershipTransferred",
      "type": "event"
    },
    {
      "anonymous": false,
      "inputs": [
        {
          "indexed": true,
          "internalType": "address",
          "name": "addr",
          "type": "address"
        },
        {
          "indexed": true,
          "internalType": "uint256",
          "name": "",
          "type": "uint256"
        },
        {
          "indexed": false,
          "internalType": "string",
          "name": "name",
          "type": "string"
        }
      ],
      "name": "addResourceEvent",
      "type": "event"
    },
    {
      "inputs": [],
      "name": "owner",
      "outputs": [
        {
          "internalType": "address",
          "name": "",
          "type": "address"
        }
      ],
      "stateMutability": "view",
      "type": "function"
    },
    {
      "inputs": [],
      "name": "renounceOwnership",
      "outputs": [],
      "stateMutability": "nonpayable",
      "type": "function"
    },
    {
      "inputs": [
        {
          "internalType": "address",
          "name": "newOwner",
          "type": "address"
        }
      ],
      "name": "transferOwnership",
      "outputs": [],
      "stateMutability": "nonpayable",
      "type": "function"
    },
    {
      "inputs": [],
      "name": "GetName",
      "outputs": [
        {
          "internalType": "string",
          "name": "",
          "type": "string"
        }
      ],
      "stateMutability": "view",
      "type": "function"
    },
    {
      "inputs": [
        {
          "internalType": "string",
          "name": "name",
          "type": "string"
        },
        {
          "internalType": "string",
          "name": "description",
          "type": "string"
        }
      ],
      "name": "AddPrimary",
      "outputs": [
        {
          "internalType": "address",
          "name": "",
          "type": "address"
        }
      ],
      "stateMutability": "nonpayable",
      "type": "function"
    },
    {
      "inputs": [
        {
          "internalType": "string",
          "name": "name",
          "type": "string"
        },
        {
          "internalType": "string",
          "name": "description",
          "type": "string"
        },
        {
          "internalType": "address[]",
          "name": "prevProd",
          "type": "address[]"
        }
      ],
      "name": "AddProduct",
      "outputs": [
        {
          "internalType": "address",
          "name": "",
          "type": "address"
        }
      ],
      "stateMutability": "nonpayable",
      "type": "function"
    },
    {
      "inputs": [
        {
          "internalType": "uint256",
          "name": "resIndex",
          "type": "uint256"
        }
      ],
      "name": "GetPrimary",
      "outputs": [
        {
          "internalType": "address",
          "name": "prim",
          "type": "address"
        }
      ],
      "stateMutability": "view",
      "type": "function"
    },
    {
      "inputs": [
        {
          "internalType": "uint256",
          "name": "resIndex",
          "type": "uint256"
        }
      ],
      "name": "GetProduct",
      "outputs": [
        {
          "internalType": "address",
          "name": "prod",
          "type": "address"
        }
      ],
      "stateMutability": "view",
      "type": "function"
    }
  ],
  "bytecode": "0x60806040523480156200001157600080fd5b5060405162004388380380620043888339818101604052810190620000379190620003aa565b620000576200004b6200009160201b60201c565b6200009960201b60201c565b81600190805190602001906200006f9291906200015d565b508060029080519060200190620000889291906200015d565b50505062000494565b600033905090565b60008060009054906101000a900473ffffffffffffffffffffffffffffffffffffffff169050816000806101000a81548173ffffffffffffffffffffffffffffffffffffffff021916908373ffffffffffffffffffffffffffffffffffffffff1602179055508173ffffffffffffffffffffffffffffffffffffffff168173ffffffffffffffffffffffffffffffffffffffff167f8be0079c531659141344cd1fd0a4f28419497f9722a3daafe3b4186f6b6457e060405160405180910390a35050565b8280546200016b906200045e565b90600052602060002090601f0160209004810192826200018f5760008555620001db565b82601f10620001aa57805160ff1916838001178555620001db565b82800160010185558215620001db579182015b82811115620001da578251825591602001919060010190620001bd565b5b509050620001ea9190620001ee565b5090565b5b8082111562000209576000816000905550600101620001ef565b5090565b6000604051905090565b600080fd5b600080fd5b600080fd5b600080fd5b6000601f19601f8301169050919050565b7f4e487b7100000000000000000000000000000000000000000000000000000000600052604160045260246000fd5b62000276826200022b565b810181811067ffffffffffffffff821117156200029857620002976200023c565b5b80604052505050565b6000620002ad6200020d565b9050620002bb82826200026b565b919050565b600067ffffffffffffffff821115620002de57620002dd6200023c565b5b620002e9826200022b565b9050602081019050919050565b60005b8381101562000316578082015181840152602081019050620002f9565b8381111562000326576000848401525b50505050565b6000620003436200033d84620002c0565b620002a1565b90508281526020810184848401111562000362576200036162000226565b5b6200036f848285620002f6565b509392505050565b600082601f8301126200038f576200038e62000221565b5b8151620003a18482602086016200032c565b91505092915050565b60008060408385031215620003c457620003c362000217565b5b600083015167ffffffffffffffff811115620003e557620003e46200021c565b5b620003f38582860162000377565b925050602083015167ffffffffffffffff8111156200041757620004166200021c565b5b620004258582860162000377565b9150509250929050565b7f4e487b7100000000000000000000000000000000000000000000000000000000600052602260045260246000fd5b600060028204905060018216806200047757607f821691505b602082108114156200048e576200048d6200042f565b5b50919050565b613ee480620004a46000396000f3fe60806040523480156200001157600080fd5b5060043610620000945760003560e01c8063a3ca93d61162000063578063a3ca93d61462000133578063d2862bd81462000169578063f2fde38b146200019f578063fe704a9d14620001bf5762000094565b80630e208914146200009957806338e1a67d14620000cf578063715018a614620001055780638da5cb5b1462000111575b600080fd5b620000b76004803603810190620000b1919062000b9a565b620001e1565b604051620000c6919062000c64565b60405180910390f35b620000ed6004803603810190620000e7919062000c81565b62000379565b604051620000fc919062000c64565b60405180910390f35b6200010f6200050e565b005b6200011b6200059f565b6040516200012a919062000c64565b60405180910390f35b6200015160048036038101906200014b919062000d41565b620005c8565b60405162000160919062000c64565b60405180910390f35b62000187600480360381019062000181919062000d41565b62000613565b60405162000196919062000c64565b60405180910390f35b620001bd6004803603810190620001b7919062000d73565b6200065e565b005b620001c962000762565b604051620001d8919062000e38565b60405180910390f35b6000620001ed620007fc565b73ffffffffffffffffffffffffffffffffffffffff166200020d6200059f565b73ffffffffffffffffffffffffffffffffffffffff161462000266576040517f08c379a00000000000000000000000000000000000000000000000000000000081526004016200025d9062000eac565b60405180910390fd5b60008484846040516200027990620008c8565b620002879392919062000f9c565b604051809103906000f080158015620002a4573d6000803e3d6000fd5b5090506003819080600181540180825580915050600190039060005260206000200160009091909190916101000a81548173ffffffffffffffffffffffffffffffffffffffff021916908373ffffffffffffffffffffffffffffffffffffffff16021790555060016003805490506200031e91906200101d565b3373ffffffffffffffffffffffffffffffffffffffff167f9ff24afb13ed0cee00b33d7e651ea6bd18d78d3f20c3f466297c3b8a6539ab1e8760405162000366919062000e38565b60405180910390a3809150509392505050565b600062000385620007fc565b73ffffffffffffffffffffffffffffffffffffffff16620003a56200059f565b73ffffffffffffffffffffffffffffffffffffffff1614620003fe576040517f08c379a0000000000000000000000000000000000000000000000000000000008152600401620003f59062000eac565b60405180910390fd5b600083836040516200041090620008d6565b6200041d92919062001058565b604051809103906000f0801580156200043a573d6000803e3d6000fd5b5090506004819080600181540180825580915050600190039060005260206000200160009091909190916101000a81548173ffffffffffffffffffffffffffffffffffffffff021916908373ffffffffffffffffffffffffffffffffffffffff1602179055506001600480549050620004b491906200101d565b3373ffffffffffffffffffffffffffffffffffffffff167f9ff24afb13ed0cee00b33d7e651ea6bd18d78d3f20c3f466297c3b8a6539ab1e86604051620004fc919062000e38565b60405180910390a38091505092915050565b62000518620007fc565b73ffffffffffffffffffffffffffffffffffffffff16620005386200059f565b73ffffffffffffffffffffffffffffffffffffffff161462000591576040517f08c379a0000000000000000000000000000000000000000000000000000000008152600401620005889062000eac565b60405180910390fd5b6200059d600062000804565b565b60008060009054906101000a900473ffffffffffffffffffffffffffffffffffffffff16905090565b600060048281548110620005e157620005e062001093565b5b9060005260206000200160009054906101000a900473ffffffffffffffffffffffffffffffffffffffff169050919050565b6000600382815481106200062c576200062b62001093565b5b9060005260206000200160009054906101000a900473ffffffffffffffffffffffffffffffffffffffff169050919050565b62000668620007fc565b73ffffffffffffffffffffffffffffffffffffffff16620006886200059f565b73ffffffffffffffffffffffffffffffffffffffff1614620006e1576040517f08c379a0000000000000000000000000000000000000000000000000000000008152600401620006d89062000eac565b60405180910390fd5b600073ffffffffffffffffffffffffffffffffffffffff168173ffffffffffffffffffffffffffffffffffffffff16141562000754576040517f08c379a00000000000000000000000000000000000000000000000000000000081526004016200074b9062001138565b60405180910390fd5b6200075f8162000804565b50565b606060018054620007739062001189565b80601f0160208091040260200160405190810160405280929190818152602001828054620007a19062001189565b8015620007f25780601f10620007c657610100808354040283529160200191620007f2565b820191906000526020600020905b815481529060010190602001808311620007d457829003601f168201915b5050505050905090565b600033905090565b60008060009054906101000a900473ffffffffffffffffffffffffffffffffffffffff169050816000806101000a81548173ffffffffffffffffffffffffffffffffffffffff021916908373ffffffffffffffffffffffffffffffffffffffff1602179055508173ffffffffffffffffffffffffffffffffffffffff168173ffffffffffffffffffffffffffffffffffffffff167f8be0079c531659141344cd1fd0a4f28419497f9722a3daafe3b4186f6b6457e060405160405180910390a35050565b61178680620011c083390190565b611569806200294683390190565b6000604051905090565b600080fd5b600080fd5b600080fd5b600080fd5b6000601f19601f8301169050919050565b7f4e487b7100000000000000000000000000000000000000000000000000000000600052604160045260246000fd5b6200094d8262000902565b810181811067ffffffffffffffff821117156200096f576200096e62000913565b5b80604052505050565b600062000984620008e4565b905062000992828262000942565b919050565b600067ffffffffffffffff821115620009b557620009b462000913565b5b620009c08262000902565b9050602081019050919050565b82818337600083830152505050565b6000620009f3620009ed8462000997565b62000978565b90508281526020810184848401111562000a125762000a11620008fd565b5b62000a1f848285620009cd565b509392505050565b600082601f83011262000a3f5762000a3e620008f8565b5b813562000a51848260208601620009dc565b91505092915050565b600067ffffffffffffffff82111562000a785762000a7762000913565b5b602082029050602081019050919050565b600080fd5b600073ffffffffffffffffffffffffffffffffffffffff82169050919050565b600062000abb8262000a8e565b9050919050565b62000acd8162000aae565b811462000ad957600080fd5b50565b60008135905062000aed8162000ac2565b92915050565b600062000b0a62000b048462000a5a565b62000978565b9050808382526020820190506020840283018581111562000b305762000b2f62000a89565b5b835b8181101562000b5d578062000b48888262000adc565b84526020840193505060208101905062000b32565b5050509392505050565b600082601f83011262000b7f5762000b7e620008f8565b5b813562000b9184826020860162000af3565b91505092915050565b60008060006060848603121562000bb65762000bb5620008ee565b5b600084013567ffffffffffffffff81111562000bd75762000bd6620008f3565b5b62000be58682870162000a27565b935050602084013567ffffffffffffffff81111562000c095762000c08620008f3565b5b62000c178682870162000a27565b925050604084013567ffffffffffffffff81111562000c3b5762000c3a620008f3565b5b62000c498682870162000b67565b9150509250925092565b62000c5e8162000aae565b82525050565b600060208201905062000c7b600083018462000c53565b92915050565b6000806040838503121562000c9b5762000c9a620008ee565b5b600083013567ffffffffffffffff81111562000cbc5762000cbb620008f3565b5b62000cca8582860162000a27565b925050602083013567ffffffffffffffff81111562000cee5762000ced620008f3565b5b62000cfc8582860162000a27565b9150509250929050565b6000819050919050565b62000d1b8162000d06565b811462000d2757600080fd5b50565b60008135905062000d3b8162000d10565b92915050565b60006020828403121562000d5a5762000d59620008ee565b5b600062000d6a8482850162000d2a565b91505092915050565b60006020828403121562000d8c5762000d8b620008ee565b5b600062000d9c8482850162000adc565b91505092915050565b600081519050919050565b600082825260208201905092915050565b60005b8381101562000de157808201518184015260208101905062000dc4565b8381111562000df1576000848401525b50505050565b600062000e048262000da5565b62000e10818562000db0565b935062000e2281856020860162000dc1565b62000e2d8162000902565b840191505092915050565b6000602082019050818103600083015262000e54818462000df7565b905092915050565b7f4f776e61626c653a2063616c6c6572206973206e6f7420746865206f776e6572600082015250565b600062000e9460208362000db0565b915062000ea18262000e5c565b602082019050919050565b6000602082019050818103600083015262000ec78162000e85565b9050919050565b600081519050919050565b600082825260208201905092915050565b6000819050602082019050919050565b62000f058162000aae565b82525050565b600062000f19838362000efa565b60208301905092915050565b6000602082019050919050565b600062000f3f8262000ece565b62000f4b818562000ed9565b935062000f588362000eea565b8060005b8381101562000f8f57815162000f73888262000f0b565b975062000f808362000f25565b92505060018101905062000f5c565b5085935050505092915050565b6000606082019050818103600083015262000fb8818662000df7565b9050818103602083015262000fce818562000df7565b9050818103604083015262000fe4818462000f32565b9050949350505050565b7f4e487b7100000000000000000000000000000000000000000000000000000000600052601160045260246000fd5b60006200102a8262000d06565b9150620010378362000d06565b9250828210156200104d576200104c62000fee565b5b828203905092915050565b6000604082019050818103600083015262001074818562000df7565b905081810360208301526200108a818462000df7565b90509392505050565b7f4e487b7100000000000000000000000000000000000000000000000000000000600052603260045260246000fd5b7f4f776e61626c653a206e6577206f776e657220697320746865207a65726f206160008201527f6464726573730000000000000000000000000000000000000000000000000000602082015250565b60006200112060268362000db0565b91506200112d82620010c2565b604082019050919050565b60006020820190508181036000830152620011538162001111565b9050919050565b7f4e487b7100000000000000000000000000000000000000000000000000000000600052602260045260246000fd5b60006002820490506001821680620011a257607f821691505b60208210811415620011b957620011b86200115a565b5b5091905056fe60806040523480156200001157600080fd5b506040516200178638038062001786833981810160405281019062000037919062000597565b8282620000596200004d620000af60201b60201c565b620000b760201b60201c565b8160019080519060200190620000719291906200017b565b5080600290805190602001906200008a9291906200017b565b5050508060099080519060200190620000a59291906200020c565b50505050620006b5565b600033905090565b60008060009054906101000a900473ffffffffffffffffffffffffffffffffffffffff169050816000806101000a81548173ffffffffffffffffffffffffffffffffffffffff021916908373ffffffffffffffffffffffffffffffffffffffff1602179055508173ffffffffffffffffffffffffffffffffffffffff168173ffffffffffffffffffffffffffffffffffffffff167f8be0079c531659141344cd1fd0a4f28419497f9722a3daafe3b4186f6b6457e060405160405180910390a35050565b82805462000189906200067f565b90600052602060002090601f016020900481019282620001ad5760008555620001f9565b82601f10620001c857805160ff1916838001178555620001f9565b82800160010185558215620001f9579182015b82811115620001f8578251825591602001919060010190620001db565b5b5090506200020891906200029b565b5090565b82805482825590600052602060002090810192821562000288579160200282015b82811115620002875782518260006101000a81548173ffffffffffffffffffffffffffffffffffffffff021916908373ffffffffffffffffffffffffffffffffffffffff160217905550916020019190600101906200022d565b5b5090506200029791906200029b565b5090565b5b80821115620002b65760008160009055506001016200029c565b5090565b6000604051905090565b600080fd5b600080fd5b600080fd5b600080fd5b6000601f19601f8301169050919050565b7f4e487b7100000000000000000000000000000000000000000000000000000000600052604160045260246000fd5b6200032382620002d8565b810181811067ffffffffffffffff82111715620003455762000344620002e9565b5b80604052505050565b60006200035a620002ba565b905062000368828262000318565b919050565b600067ffffffffffffffff8211156200038b576200038a620002e9565b5b6200039682620002d8565b9050602081019050919050565b60005b83811015620003c3578082015181840152602081019050620003a6565b83811115620003d3576000848401525b50505050565b6000620003f0620003ea846200036d565b6200034e565b9050828152602081018484840111156200040f576200040e620002d3565b5b6200041c848285620003a3565b509392505050565b600082601f8301126200043c576200043b620002ce565b5b81516200044e848260208601620003d9565b91505092915050565b600067ffffffffffffffff821115620004755762000474620002e9565b5b602082029050602081019050919050565b600080fd5b600073ffffffffffffffffffffffffffffffffffffffff82169050919050565b6000620004b8826200048b565b9050919050565b620004ca81620004ab565b8114620004d657600080fd5b50565b600081519050620004ea81620004bf565b92915050565b600062000507620005018462000457565b6200034e565b905080838252602082019050602084028301858111156200052d576200052c62000486565b5b835b818110156200055a5780620005458882620004d9565b8452602084019350506020810190506200052f565b5050509392505050565b600082601f8301126200057c576200057b620002ce565b5b81516200058e848260208601620004f0565b91505092915050565b600080600060608486031215620005b357620005b2620002c4565b5b600084015167ffffffffffffffff811115620005d457620005d3620002c9565b5b620005e28682870162000424565b935050602084015167ffffffffffffffff811115620006065762000605620002c9565b5b620006148682870162000424565b925050604084015167ffffffffffffffff811115620006385762000637620002c9565b5b620006468682870162000564565b9150509250925092565b7f4e487b7100000000000000000000000000000000000000000000000000000000600052602260045260246000fd5b600060028204905060018216806200069857607f821691505b60208210811415620006af57620006ae62000650565b5b50919050565b6110c180620006c56000396000f3fe608060405234801561001057600080fd5b50600436106100625760003560e01c80632c4c476214610067578063715018a614610083578063798759e91461008d5780638da5cb5b146100a9578063af2b843e146100c7578063f2fde38b146100f7575b600080fd5b610081600480360381019061007c9190610b41565b610113565b005b61008b6102c1565b005b6100a760048036038101906100a29190610c3c565b610349565b005b6100b1610430565b6040516100be9190610c8b565b60405180910390f35b6100e160048036038101906100dc9190610cdc565b610459565b6040516100ee9190610e6e565b60405180910390f35b610111600480360381019061010c9190610e90565b61061b565b005b61011b610430565b73ffffffffffffffffffffffffffffffffffffffff163373ffffffffffffffffffffffffffffffffffffffff1614806101c557506000600681111561016357610162610ebd565b5b600860003373ffffffffffffffffffffffffffffffffffffffff1673ffffffffffffffffffffffffffffffffffffffff16815260200190815260200160002060009054906101000a900460ff1660068111156101c2576101c1610ebd565b5b14155b6101ce57600080fd5b600660405180608001604052804281526020013373ffffffffffffffffffffffffffffffffffffffff1681526020018481526020018381525090806001815401808255809150506001900390600052602060002090600402016000909190919091506000820151816000015560208201518160010160006101000a81548173ffffffffffffffffffffffffffffffffffffffff021916908373ffffffffffffffffffffffffffffffffffffffff160217905550604082015181600201908051906020019061029d9291906107df565b5060608201518160030190805190602001906102ba929190610865565b5050505050565b6102c9610713565b73ffffffffffffffffffffffffffffffffffffffff166102e7610430565b73ffffffffffffffffffffffffffffffffffffffff161461033d576040517f08c379a000000000000000000000000000000000000000000000000000000000815260040161033490610f49565b60405180910390fd5b610347600061071b565b565b610351610713565b73ffffffffffffffffffffffffffffffffffffffff1661036f610430565b73ffffffffffffffffffffffffffffffffffffffff16146103c5576040517f08c379a00000000000000000000000000000000000000000000000000000000081526004016103bc90610f49565b60405180910390fd5b80600860008473ffffffffffffffffffffffffffffffffffffffff1673ffffffffffffffffffffffffffffffffffffffff16815260200190815260200160002060006101000a81548160ff0219169083600681111561042757610426610ebd565b5b02179055505050565b60008060009054906101000a900473ffffffffffffffffffffffffffffffffffffffff16905090565b6104616108eb565b816006838154811061047657610475610f69565b5b9060005260206000209060040201604051806080016040529081600082015481526020016001820160009054906101000a900473ffffffffffffffffffffffffffffffffffffffff1673ffffffffffffffffffffffffffffffffffffffff1673ffffffffffffffffffffffffffffffffffffffff1681526020016002820180546104ff90610fc7565b80601f016020809104026020016040519081016040528092919081815260200182805461052b90610fc7565b80156105785780601f1061054d57610100808354040283529160200191610578565b820191906000526020600020905b81548152906001019060200180831161055b57829003601f168201915b5050505050815260200160038201805461059190610fc7565b80601f01602080910402602001604051908101604052809291908181526020018280546105bd90610fc7565b801561060a5780601f106105df5761010080835404028352916020019161060a565b820191906000526020600020905b8154815290600101906020018083116105ed57829003601f168201915b505050505081525050915050919050565b610623610713565b73ffffffffffffffffffffffffffffffffffffffff16610641610430565b73ffffffffffffffffffffffffffffffffffffffff1614610697576040517f08c379a000000000000000000000000000000000000000000000000000000000815260040161068e90610f49565b60405180910390fd5b600073ffffffffffffffffffffffffffffffffffffffff168173ffffffffffffffffffffffffffffffffffffffff161415610707576040517f08c379a00000000000000000000000000000000000000000000000000000000081526004016106fe9061106b565b60405180910390fd5b6107108161071b565b50565b600033905090565b60008060009054906101000a900473ffffffffffffffffffffffffffffffffffffffff169050816000806101000a81548173ffffffffffffffffffffffffffffffffffffffff021916908373ffffffffffffffffffffffffffffffffffffffff1602179055508173ffffffffffffffffffffffffffffffffffffffff168173ffffffffffffffffffffffffffffffffffffffff167f8be0079c531659141344cd1fd0a4f28419497f9722a3daafe3b4186f6b6457e060405160405180910390a35050565b8280546107eb90610fc7565b90600052602060002090601f01602090048101928261080d5760008555610854565b82601f1061082657805160ff1916838001178555610854565b82800160010185558215610854579182015b82811115610853578251825591602001919060010190610838565b5b5090506108619190610929565b5090565b82805461087190610fc7565b90600052602060002090601f01602090048101928261089357600085556108da565b82601f106108ac57805160ff19168380011785556108da565b828001600101855582156108da579182015b828111156108d95782518255916020019190600101906108be565b5b5090506108e79190610929565b5090565b604051806080016040528060008152602001600073ffffffffffffffffffffffffffffffffffffffff16815260200160608152602001606081525090565b5b8082111561094257600081600090555060010161092a565b5090565b6000604051905090565b600080fd5b600080fd5b600080fd5b600080fd5b6000601f19601f8301169050919050565b7f4e487b7100000000000000000000000000000000000000000000000000000000600052604160045260246000fd5b6109ad82610964565b810181811067ffffffffffffffff821117156109cc576109cb610975565b5b80604052505050565b60006109df610946565b90506109eb82826109a4565b919050565b600067ffffffffffffffff821115610a0b57610a0a610975565b5b610a1482610964565b9050602081019050919050565b82818337600083830152505050565b6000610a43610a3e846109f0565b6109d5565b905082815260208101848484011115610a5f57610a5e61095f565b5b610a6a848285610a21565b509392505050565b600082601f830112610a8757610a8661095a565b5b8135610a97848260208601610a30565b91505092915050565b600067ffffffffffffffff821115610abb57610aba610975565b5b610ac482610964565b9050602081019050919050565b6000610ae4610adf84610aa0565b6109d5565b905082815260208101848484011115610b0057610aff61095f565b5b610b0b848285610a21565b509392505050565b600082601f830112610b2857610b2761095a565b5b8135610b38848260208601610ad1565b91505092915050565b60008060408385031215610b5857610b57610950565b5b600083013567ffffffffffffffff811115610b7657610b75610955565b5b610b8285828601610a72565b925050602083013567ffffffffffffffff811115610ba357610ba2610955565b5b610baf85828601610b13565b9150509250929050565b600073ffffffffffffffffffffffffffffffffffffffff82169050919050565b6000610be482610bb9565b9050919050565b610bf481610bd9565b8114610bff57600080fd5b50565b600081359050610c1181610beb565b92915050565b60078110610c2457600080fd5b50565b600081359050610c3681610c17565b92915050565b60008060408385031215610c5357610c52610950565b5b6000610c6185828601610c02565b9250506020610c7285828601610c27565b9150509250929050565b610c8581610bd9565b82525050565b6000602082019050610ca06000830184610c7c565b92915050565b6000819050919050565b610cb981610ca6565b8114610cc457600080fd5b50565b600081359050610cd681610cb0565b92915050565b600060208284031215610cf257610cf1610950565b5b6000610d0084828501610cc7565b91505092915050565b610d1281610ca6565b82525050565b610d2181610bd9565b82525050565b600081519050919050565b600082825260208201905092915050565b60005b83811015610d61578082015181840152602081019050610d46565b83811115610d70576000848401525b50505050565b6000610d8182610d27565b610d8b8185610d32565b9350610d9b818560208601610d43565b610da481610964565b840191505092915050565b600081519050919050565b600082825260208201905092915050565b6000610dd682610daf565b610de08185610dba565b9350610df0818560208601610d43565b610df981610964565b840191505092915050565b6000608083016000830151610e1c6000860182610d09565b506020830151610e2f6020860182610d18565b5060408301518482036040860152610e478282610d76565b91505060608301518482036060860152610e618282610dcb565b9150508091505092915050565b60006020820190508181036000830152610e888184610e04565b905092915050565b600060208284031215610ea657610ea5610950565b5b6000610eb484828501610c02565b91505092915050565b7f4e487b7100000000000000000000000000000000000000000000000000000000600052602160045260246000fd5b600082825260208201905092915050565b7f4f776e61626c653a2063616c6c6572206973206e6f7420746865206f776e6572600082015250565b6000610f33602083610eec565b9150610f3e82610efd565b602082019050919050565b60006020820190508181036000830152610f6281610f26565b9050919050565b7f4e487b7100000000000000000000000000000000000000000000000000000000600052603260045260246000fd5b7f4e487b7100000000000000000000000000000000000000000000000000000000600052602260045260246000fd5b60006002820490506001821680610fdf57607f821691505b60208210811415610ff357610ff2610f98565b5b50919050565b7f4f776e61626c653a206e6577206f776e657220697320746865207a65726f206160008201527f6464726573730000000000000000000000000000000000000000000000000000602082015250565b6000611055602683610eec565b915061106082610ff9565b604082019050919050565b6000602082019050818103600083015261108481611048565b905091905056fea2646970667358221220f1885a419d70c8af401d0dc0d41d76a128e282b648ec04f7743c0f4a38a0340a64736f6c634300080a003360806040523480156200001157600080fd5b5060405162001569380380620015698339818101604052810190620000379190620003ae565b8181620000596200004d6200009560201b60201c565b6200009d60201b60201c565b81600190805190602001906200007192919062000161565b5080600290805190602001906200008a92919062000161565b505050505062000498565b600033905090565b60008060009054906101000a900473ffffffffffffffffffffffffffffffffffffffff169050816000806101000a81548173ffffffffffffffffffffffffffffffffffffffff021916908373ffffffffffffffffffffffffffffffffffffffff1602179055508173ffffffffffffffffffffffffffffffffffffffff168173ffffffffffffffffffffffffffffffffffffffff167f8be0079c531659141344cd1fd0a4f28419497f9722a3daafe3b4186f6b6457e060405160405180910390a35050565b8280546200016f9062000462565b90600052602060002090601f016020900481019282620001935760008555620001df565b82601f10620001ae57805160ff1916838001178555620001df565b82800160010185558215620001df579182015b82811115620001de578251825591602001919060010190620001c1565b5b509050620001ee9190620001f2565b5090565b5b808211156200020d576000816000905550600101620001f3565b5090565b6000604051905090565b600080fd5b600080fd5b600080fd5b600080fd5b6000601f19601f8301169050919050565b7f4e487b7100000000000000000000000000000000000000000000000000000000600052604160045260246000fd5b6200027a826200022f565b810181811067ffffffffffffffff821117156200029c576200029b62000240565b5b80604052505050565b6000620002b162000211565b9050620002bf82826200026f565b919050565b600067ffffffffffffffff821115620002e257620002e162000240565b5b620002ed826200022f565b9050602081019050919050565b60005b838110156200031a578082015181840152602081019050620002fd565b838111156200032a576000848401525b50505050565b6000620003476200034184620002c4565b620002a5565b9050828152602081018484840111156200036657620003656200022a565b5b62000373848285620002fa565b509392505050565b600082601f83011262000393576200039262000225565b5b8151620003a584826020860162000330565b91505092915050565b60008060408385031215620003c857620003c76200021b565b5b600083015167ffffffffffffffff811115620003e957620003e862000220565b5b620003f7858286016200037b565b925050602083015167ffffffffffffffff8111156200041b576200041a62000220565b5b62000429858286016200037b565b9150509250929050565b7f4e487b7100000000000000000000000000000000000000000000000000000000600052602260045260246000fd5b600060028204905060018216806200047b57607f821691505b6020821081141562000492576200049162000433565b5b50919050565b6110c180620004a86000396000f3fe608060405234801561001057600080fd5b50600436106100625760003560e01c80632c4c476214610067578063715018a614610083578063798759e91461008d5780638da5cb5b146100a9578063af2b843e146100c7578063f2fde38b146100f7575b600080fd5b610081600480360381019061007c9190610b41565b610113565b005b61008b6102c1565b005b6100a760048036038101906100a29190610c3c565b610349565b005b6100b1610430565b6040516100be9190610c8b565b60405180910390f35b6100e160048036038101906100dc9190610cdc565b610459565b6040516100ee9190610e6e565b60405180910390f35b610111600480360381019061010c9190610e90565b61061b565b005b61011b610430565b73ffffffffffffffffffffffffffffffffffffffff163373ffffffffffffffffffffffffffffffffffffffff1614806101c557506000600681111561016357610162610ebd565b5b600860003373ffffffffffffffffffffffffffffffffffffffff1673ffffffffffffffffffffffffffffffffffffffff16815260200190815260200160002060009054906101000a900460ff1660068111156101c2576101c1610ebd565b5b14155b6101ce57600080fd5b600660405180608001604052804281526020013373ffffffffffffffffffffffffffffffffffffffff1681526020018481526020018381525090806001815401808255809150506001900390600052602060002090600402016000909190919091506000820151816000015560208201518160010160006101000a81548173ffffffffffffffffffffffffffffffffffffffff021916908373ffffffffffffffffffffffffffffffffffffffff160217905550604082015181600201908051906020019061029d9291906107df565b5060608201518160030190805190602001906102ba929190610865565b5050505050565b6102c9610713565b73ffffffffffffffffffffffffffffffffffffffff166102e7610430565b73ffffffffffffffffffffffffffffffffffffffff161461033d576040517f08c379a000000000000000000000000000000000000000000000000000000000815260040161033490610f49565b60405180910390fd5b610347600061071b565b565b610351610713565b73ffffffffffffffffffffffffffffffffffffffff1661036f610430565b73ffffffffffffffffffffffffffffffffffffffff16146103c5576040517f08c379a00000000000000000000000000000000000000000000000000000000081526004016103bc90610f49565b60405180910390fd5b80600860008473ffffffffffffffffffffffffffffffffffffffff1673ffffffffffffffffffffffffffffffffffffffff16815260200190815260200160002060006101000a81548160ff0219169083600681111561042757610426610ebd565b5b02179055505050565b60008060009054906101000a900473ffffffffffffffffffffffffffffffffffffffff16905090565b6104616108eb565b816006838154811061047657610475610f69565b5b9060005260206000209060040201604051806080016040529081600082015481526020016001820160009054906101000a900473ffffffffffffffffffffffffffffffffffffffff1673ffffffffffffffffffffffffffffffffffffffff1673ffffffffffffffffffffffffffffffffffffffff1681526020016002820180546104ff90610fc7565b80601f016020809104026020016040519081016040528092919081815260200182805461052b90610fc7565b80156105785780601f1061054d57610100808354040283529160200191610578565b820191906000526020600020905b81548152906001019060200180831161055b57829003601f168201915b5050505050815260200160038201805461059190610fc7565b80601f01602080910402602001604051908101604052809291908181526020018280546105bd90610fc7565b801561060a5780601f106105df5761010080835404028352916020019161060a565b820191906000526020600020905b8154815290600101906020018083116105ed57829003601f168201915b505050505081525050915050919050565b610623610713565b73ffffffffffffffffffffffffffffffffffffffff16610641610430565b73ffffffffffffffffffffffffffffffffffffffff1614610697576040517f08c379a000000000000000000000000000000000000000000000000000000000815260040161068e90610f49565b60405180910390fd5b600073ffffffffffffffffffffffffffffffffffffffff168173ffffffffffffffffffffffffffffffffffffffff161415610707576040517f08c379a00000000000000000000000000000000000000000000000000000000081526004016106fe9061106b565b60405180910390fd5b6107108161071b565b50565b600033905090565b60008060009054906101000a900473ffffffffffffffffffffffffffffffffffffffff169050816000806101000a81548173ffffffffffffffffffffffffffffffffffffffff021916908373ffffffffffffffffffffffffffffffffffffffff1602179055508173ffffffffffffffffffffffffffffffffffffffff168173ffffffffffffffffffffffffffffffffffffffff167f8be0079c531659141344cd1fd0a4f28419497f9722a3daafe3b4186f6b6457e060405160405180910390a35050565b8280546107eb90610fc7565b90600052602060002090601f01602090048101928261080d5760008555610854565b82601f1061082657805160ff1916838001178555610854565b82800160010185558215610854579182015b82811115610853578251825591602001919060010190610838565b5b5090506108619190610929565b5090565b82805461087190610fc7565b90600052602060002090601f01602090048101928261089357600085556108da565b82601f106108ac57805160ff19168380011785556108da565b828001600101855582156108da579182015b828111156108d95782518255916020019190600101906108be565b5b5090506108e79190610929565b5090565b604051806080016040528060008152602001600073ffffffffffffffffffffffffffffffffffffffff16815260200160608152602001606081525090565b5b8082111561094257600081600090555060010161092a565b5090565b6000604051905090565b600080fd5b600080fd5b600080fd5b600080fd5b6000601f19601f8301169050919050565b7f4e487b7100000000000000000000000000000000000000000000000000000000600052604160045260246000fd5b6109ad82610964565b810181811067ffffffffffffffff821117156109cc576109cb610975565b5b80604052505050565b60006109df610946565b90506109eb82826109a4565b919050565b600067ffffffffffffffff821115610a0b57610a0a610975565b5b610a1482610964565b9050602081019050919050565b82818337600083830152505050565b6000610a43610a3e846109f0565b6109d5565b905082815260208101848484011115610a5f57610a5e61095f565b5b610a6a848285610a21565b509392505050565b600082601f830112610a8757610a8661095a565b5b8135610a97848260208601610a30565b91505092915050565b600067ffffffffffffffff821115610abb57610aba610975565b5b610ac482610964565b9050602081019050919050565b6000610ae4610adf84610aa0565b6109d5565b905082815260208101848484011115610b0057610aff61095f565b5b610b0b848285610a21565b509392505050565b600082601f830112610b2857610b2761095a565b5b8135610b38848260208601610ad1565b91505092915050565b60008060408385031215610b5857610b57610950565b5b600083013567ffffffffffffffff811115610b7657610b75610955565b5b610b8285828601610a72565b925050602083013567ffffffffffffffff811115610ba357610ba2610955565b5b610baf85828601610b13565b9150509250929050565b600073ffffffffffffffffffffffffffffffffffffffff82169050919050565b6000610be482610bb9565b9050919050565b610bf481610bd9565b8114610bff57600080fd5b50565b600081359050610c1181610beb565b92915050565b60078110610c2457600080fd5b50565b600081359050610c3681610c17565b92915050565b60008060408385031215610c5357610c52610950565b5b6000610c6185828601610c02565b9250506020610c7285828601610c27565b9150509250929050565b610c8581610bd9565b82525050565b6000602082019050610ca06000830184610c7c565b92915050565b6000819050919050565b610cb981610ca6565b8114610cc457600080fd5b50565b600081359050610cd681610cb0565b92915050565b600060208284031215610cf257610cf1610950565b5b6000610d0084828501610cc7565b91505092915050565b610d1281610ca6565b82525050565b610d2181610bd9565b82525050565b600081519050919050565b600082825260208201905092915050565b60005b83811015610d61578082015181840152602081019050610d46565b83811115610d70576000848401525b50505050565b6000610d8182610d27565b610d8b8185610d32565b9350610d9b818560208601610d43565b610da481610964565b840191505092915050565b600081519050919050565b600082825260208201905092915050565b6000610dd682610daf565b610de08185610dba565b9350610df0818560208601610d43565b610df981610964565b840191505092915050565b6000608083016000830151610e1c6000860182610d09565b506020830151610e2f6020860182610d18565b5060408301518482036040860152610e478282610d76565b91505060608301518482036060860152610e618282610dcb565b9150508091505092915050565b60006020820190508181036000830152610e888184610e04565b905092915050565b600060208284031215610ea657610ea5610950565b5b6000610eb484828501610c02565b91505092915050565b7f4e487b7100000000000000000000000000000000000000000000000000000000600052602160045260246000fd5b600082825260208201905092915050565b7f4f776e61626c653a2063616c6c6572206973206e6f7420746865206f776e6572600082015250565b6000610f33602083610eec565b9150610f3e82610efd565b602082019050919050565b60006020820190508181036000830152610f6281610f26565b9050919050565b7f4e487b7100000000000000000000000000000000000000000000000000000000600052603260045260246000fd5b7f4e487b7100000000000000000000000000000000000000000000000000000000600052602260045260246000fd5b60006002820490506001821680610fdf57607f821691505b60208210811415610ff357610ff2610f98565b5b50919050565b7f4f776e61626c653a206e6577206f776e657220697320746865207a65726f206160008201527f6464726573730000000000000000000000000000000000000000000000000000602082015250565b6000611055602683610eec565b915061106082610ff9565b604082019050919050565b6000602082019050818103600083015261108481611048565b905091905056fea264697066735822122094c7738ea9e0b19519d5f3ad8aa89e737c044c567f83b571b6c8ae6bab75ff4364736f6c634300080a0033a2646970667358221220f2d079e82413e5ccdeff61bc13fecb565e72c0d4f8a6314857c85cbc1fa1932664736f6c634300080a0033",
  "immutableReferences": {},
  "source": "// SPDX-License-Identifier: MIT\npragma solidity >=0.4.22 <0.9.0;\n\nimport \"./Product.sol\";\nimport \"./Primary.sol\";\nimport \"@openzeppelin/contracts/proxy/Clones.sol\";\n\ncontract Producer is Ownable {\n  \n  string    _name;\n  string    _description;\n  address[] _products;\n  address[] _primaryResources;\n  \n  event addResourceEvent (address indexed addr, uint indexed, string name);\n\n  constructor (\n    string memory name,\n    string memory description\n  ) Ownable() {\n    _name = name;\n    _description = description;\n  }\n\n  function GetName ()\n    public\n    view \n    returns (string memory) {\n      return _name;\n    }\n\n  function AddPrimary (\n      string memory name,\n      string memory description\n  ) public\n    onlyOwner\n    returns (address) {\n    Primary prim = new Primary(name, description);\n    _primaryResources.push(address(prim));\n    emit addResourceEvent(msg.sender, _primaryResources.length - 1, name);\n    return address(prim);\n  }\n\n  function AddProduct (\n      string memory name,\n      string memory description,\n      address[] memory prevProd\n  ) public\n    onlyOwner\n    returns (address) {\n    Product prod = new Product(name, description, prevProd);\n    _products.push(address(prod));\n    //      for (uint i = 0; i > prevProd.length; i++) {\n    //        require(Resource._primaryResources[prevProd[i]]._producer == msg.sender);\n    //      }\n    emit addResourceEvent(msg.sender, _products.length - 1, name);\n    return address(prod);\n  }\n\n  function GetPrimary (\n    uint resIndex\n  ) public\n    view\n    returns (address prim) {\n    prim = _primaryResources[resIndex];\n  }\n\n  function GetProduct (\n    uint resIndex\n  ) public\n    view\n    returns (address prod) {\n    prod = _products[resIndex];\n  }\n\n//   function changeProducer ( address newProducer, uint productId ) public onlyOwner {\n//     // newProducer.call(addProduct(  name, description, prevProd  ));\n//     (abi.encodeWithSignature(\"changeProducer(address)\", newProducer ));\n//     _resourceLink[productId]._id = address(0);\n//   }\n  \n}\n",
  "sourcePath": "/home/mgpop/Studies/Dev/Agri_EVM_IOTA/contracts/Producer.sol",
  "compiler": {
    "name": "solc",
    "version": "0.8.10+commit.fc410830.Emscripten.clang"
  },
  "schemaVersion": "3.4.4",
  "updatedAt": "2022-01-02T17:09:40.176Z",
  "devdoc": {
    "kind": "dev",
    "methods": {
      "owner()": {
        "details": "Returns the address of the current owner."
      },
      "renounceOwnership()": {
        "details": "Leaves the contract without owner. It will not be possible to call `onlyOwner` functions anymore. Can only be called by the current owner. NOTE: Renouncing ownership will leave the contract without an owner, thereby removing any functionality that is only available to the owner."
      },
      "transferOwnership(address)": {
        "details": "Transfers ownership of the contract to a new account (`newOwner`). Can only be called by the current owner."
      }
    },
    "version": 1
  },
  "userdoc": {
    "kind": "user",
    "methods": {},
    "version": 1
  }
}