{
  "contractName": "Producer",
  "abi": [
    {
      "inputs": [
        {
          "internalType": "string",
          "name": "name",
          "type": "string"
        },
        {
          "internalType": "string",
          "name": "description",
          "type": "string"
        },
        {
          "internalType": "address",
          "name": "account",
          "type": "address"
        }
      ],
      "stateMutability": "nonpayable",
      "type": "constructor"
    },
    {
      "anonymous": false,
      "inputs": [
        {
          "indexed": true,
          "internalType": "address",
          "name": "ownerAddr",
          "type": "address"
        },
        {
          "indexed": true,
          "internalType": "address",
          "name": "addr",
          "type": "address"
        }
      ],
      "name": "AddResourceEvent",
      "type": "event"
    },
    {
      "anonymous": false,
      "inputs": [
        {
          "indexed": true,
          "internalType": "address",
          "name": "src",
          "type": "address"
        },
        {
          "indexed": true,
          "internalType": "address",
          "name": "dest",
          "type": "address"
        },
        {
          "indexed": true,
          "internalType": "address",
          "name": "res",
          "type": "address"
        }
      ],
      "name": "ChangeProducerEvent",
      "type": "event"
    },
    {
      "anonymous": false,
      "inputs": [
        {
          "indexed": true,
          "internalType": "address",
          "name": "previousOwner",
          "type": "address"
        },
        {
          "indexed": true,
          "internalType": "address",
          "name": "newOwner",
          "type": "address"
        }
      ],
      "name": "OwnershipTransferred",
      "type": "event"
    },
    {
      "inputs": [],
      "name": "owner",
      "outputs": [
        {
          "internalType": "address",
          "name": "",
          "type": "address"
        }
      ],
      "stateMutability": "view",
      "type": "function"
    },
    {
      "inputs": [],
      "name": "renounceOwnership",
      "outputs": [],
      "stateMutability": "nonpayable",
      "type": "function"
    },
    {
      "inputs": [
        {
          "internalType": "address",
          "name": "newOwner",
          "type": "address"
        }
      ],
      "name": "transferOwnership",
      "outputs": [],
      "stateMutability": "nonpayable",
      "type": "function"
    },
    {
      "inputs": [
        {
          "internalType": "string",
          "name": "name",
          "type": "string"
        },
        {
          "internalType": "string",
          "name": "description",
          "type": "string"
        },
        {
          "internalType": "string",
          "name": "unitOfMeasure",
          "type": "string"
        },
        {
          "internalType": "uint256",
          "name": "quantity",
          "type": "uint256"
        },
        {
          "internalType": "uint256",
          "name": "role",
          "type": "uint256"
        },
        {
          "internalType": "address[]",
          "name": "prevProd",
          "type": "address[]"
        }
      ],
      "name": "CreateResource",
      "outputs": [],
      "stateMutability": "nonpayable",
      "type": "function"
    },
    {
      "inputs": [
        {
          "internalType": "address",
          "name": "newProducer",
          "type": "address"
        },
        {
          "internalType": "address",
          "name": "resAddr",
          "type": "address"
        },
        {
          "internalType": "uint256",
          "name": "role",
          "type": "uint256"
        }
      ],
      "name": "ChangeProducer",
      "outputs": [],
      "stateMutability": "nonpayable",
      "type": "function"
    },
    {
      "inputs": [
        {
          "internalType": "address",
          "name": "newProducer",
          "type": "address"
        },
        {
          "internalType": "address",
          "name": "resAddr",
          "type": "address"
        },
        {
          "internalType": "bytes32",
          "name": "salt",
          "type": "bytes32"
        },
        {
          "internalType": "uint256",
          "name": "role",
          "type": "uint256"
        },
        {
          "internalType": "uint256",
          "name": "quantity",
          "type": "uint256"
        }
      ],
      "name": "TransferQuantity",
      "outputs": [],
      "stateMutability": "nonpayable",
      "type": "function"
    },
    {
      "inputs": [
        {
          "internalType": "address",
          "name": "resAddr",
          "type": "address"
        },
        {
          "internalType": "bytes32",
          "name": "salt",
          "type": "bytes32"
        }
      ],
      "name": "GetClonesAddress",
      "outputs": [
        {
          "internalType": "address",
          "name": "",
          "type": "address"
        }
      ],
      "stateMutability": "view",
      "type": "function"
    },
    {
      "inputs": [
        {
          "internalType": "address",
          "name": "res",
          "type": "address"
        }
      ],
      "name": "AddToResources",
      "outputs": [],
      "stateMutability": "nonpayable",
      "type": "function"
    },
    {
      "inputs": [
        {
          "internalType": "uint256",
          "name": "index",
          "type": "uint256"
        }
      ],
      "name": "RmFromResources",
      "outputs": [],
      "stateMutability": "nonpayable",
      "type": "function"
    },
    {
      "inputs": [],
      "name": "GetName",
      "outputs": [
        {
          "internalType": "string",
          "name": "",
          "type": "string"
        }
      ],
      "stateMutability": "view",
      "type": "function"
    },
    {
      "inputs": [],
      "name": "GetDescription",
      "outputs": [
        {
          "internalType": "string",
          "name": "",
          "type": "string"
        }
      ],
      "stateMutability": "view",
      "type": "function"
    },
    {
      "inputs": [],
      "name": "GetAccount",
      "outputs": [
        {
          "internalType": "address",
          "name": "",
          "type": "address"
        }
      ],
      "stateMutability": "view",
      "type": "function"
    },
    {
      "inputs": [
        {
          "internalType": "uint256",
          "name": "resIndex",
          "type": "uint256"
        }
      ],
      "name": "GetResource",
      "outputs": [
        {
          "internalType": "address",
          "name": "",
          "type": "address"
        }
      ],
      "stateMutability": "view",
      "type": "function"
    },
    {
      "inputs": [],
      "name": "GetResources",
      "outputs": [
        {
          "internalType": "address[]",
          "name": "",
          "type": "address[]"
        }
      ],
      "stateMutability": "view",
      "type": "function"
    }
  ],
  "bytecode": "0x60806040523480156200001157600080fd5b5060405162002b7838038062002b78833981016040819052620000349162000257565b6200003f3362000094565b825162000054906001906020860190620000e4565b5081516200006a906002906020850190620000e4565b50600380546001600160a01b0319166001600160a01b039290921691909117905550620003219050565b600080546001600160a01b038381166001600160a01b0319831681178455604051919092169283917f8be0079c531659141344cd1fd0a4f28419497f9722a3daafe3b4186f6b6457e09190a35050565b828054620000f290620002e4565b90600052602060002090601f01602090048101928262000116576000855562000161565b82601f106200013157805160ff191683800117855562000161565b8280016001018555821562000161579182015b828111156200016157825182559160200191906001019062000144565b506200016f92915062000173565b5090565b5b808211156200016f576000815560010162000174565b634e487b7160e01b600052604160045260246000fd5b600082601f830112620001b257600080fd5b81516001600160401b0380821115620001cf57620001cf6200018a565b604051601f8301601f19908116603f01168101908282118183101715620001fa57620001fa6200018a565b816040528381526020925086838588010111156200021757600080fd5b600091505b838210156200023b57858201830151818301840152908201906200021c565b838211156200024d5760008385830101525b9695505050505050565b6000806000606084860312156200026d57600080fd5b83516001600160401b03808211156200028557600080fd5b6200029387838801620001a0565b94506020860151915080821115620002aa57600080fd5b50620002b986828701620001a0565b604086015190935090506001600160a01b0381168114620002d957600080fd5b809150509250925092565b600181811c90821680620002f957607f821691505b602082108114156200031b57634e487b7160e01b600052602260045260246000fd5b50919050565b61284780620003316000396000f3fe60806040523480156200001157600080fd5b5060043610620000fd5760003560e01c8063b88f1af91162000097578063d9daab9b116200006e578063d9daab9b14620001ed578063ea59490c1462000206578063f2fde38b146200021d578063fe704a9d146200023457600080fd5b8063b88f1af914620001a8578063c7d1bb5014620001bf578063c9d64ab614620001d657600080fd5b80638da5cb5b11620000d85780638da5cb5b146200014f5780638e7a0b031462000161578063aeff645e1462000178578063b749ba46146200019157600080fd5b806310f01d18146200010257806341799829146200012c578063715018a61462000145575b600080fd5b6003546001600160a01b03165b6040516001600160a01b0390911681526020015b60405180910390f35b620001436200013d36600462000fad565b6200023e565b005b62000143620005f9565b6000546001600160a01b03166200010f565b6200010f6200017236600462001003565b62000663565b62000182620006f8565b60405162000123919062001063565b6200010f620001a236600462001078565b6200075c565b62000143620001b9366004620010a7565b620007b5565b62000143620001d0366004620010ed565b62000a49565b62000143620001e736600462001003565b62000b07565b620001f762000b93565b60405162000123919062001164565b6200014362000217366004620012ce565b62000c24565b620001436200022e366004620010ed565b62000d4e565b620001f762000e1f565b6000546001600160a01b03163314806200026257506003546001600160a01b031633145b6200028a5760405162461bcd60e51b815260040162000281906200139a565b60405180910390fd5b816006811115620002af5760405162461bcd60e51b81526004016200028190620013c9565b60008590506000816001600160a01b031663458f1a296040518163ffffffff1660e01b8152600401602060405180830381865afa158015620002f5573d6000803e3d6000fd5b505050506040513d601f19601f820116820180604052508101906200031b919062001400565b90506001600160a01b0382166332db40b96200033886846200141a565b6040518263ffffffff1660e01b81526004016200035791815260200190565b600060405180830381600087803b1580156200037257600080fd5b505af115801562000387573d6000803e3d6000fd5b50505050600062000399888862000e30565b60405163f2fde38b60e01b81523060048201529091506001600160a01b0382169063f2fde38b90602401600060405180830381600087803b158015620003de57600080fd5b505af1158015620003f3573d6000803e3d6000fd5b5050505060008990506000816001600160a01b03166310f01d186040518163ffffffff1660e01b8152600401602060405180830381865afa1580156200043d573d6000803e3d6000fd5b505050506040513d601f19601f8201168201806040525081019062000463919062001440565b60405163d838fcc360e01b81526001600160a01b038083166004830152602482018b90529192509084169063d838fcc390604401600060405180830381600087803b158015620004b257600080fd5b505af1158015620004c7573d6000803e3d6000fd5b505060035460405163d838fcc360e01b81526001600160a01b03918216600482015260006024820152908616925063d838fcc39150604401600060405180830381600087803b1580156200051a57600080fd5b505af11580156200052f573d6000803e3d6000fd5b50506040516332db40b960e01b8152600481018a90526001600160a01b03861692506332db40b99150602401600060405180830381600087803b1580156200057657600080fd5b505af11580156200058b573d6000803e3d6000fd5b505060405163f2fde38b60e01b81526001600160a01b038e811660048301528616925063f2fde38b9150602401600060405180830381600087803b158015620005d357600080fd5b505af1158015620005e8573d6000803e3d6000fd5b505050505050505050505050505050565b6000546001600160a01b03163314620006555760405162461bcd60e51b815260206004820181905260248201527f4f776e61626c653a2063616c6c6572206973206e6f7420746865206f776e6572604482015260640162000281565b62000661600062000ed2565b565b6000816004548110620006c45760405162461bcd60e51b815260206004820152602260248201527f4552524f52207265736f75726365206e756d626572206f7574206f662072616e604482015261676560f01b606482015260840162000281565b60048381548110620006da57620006da62001460565b6000918252602090912001546001600160a01b031691505b50919050565b606060048054806020026020016040519081016040528092919081815260200182805480156200075257602002820191906000526020600020905b81546001600160a01b0316815260019091019060200180831162000733575b5050505050905090565b600080546001600160a01b03163314806200078157506003546001600160a01b031633145b620007a05760405162461bcd60e51b815260040162000281906200139a565b620007ac838362000f22565b90505b92915050565b6000546001600160a01b0316331480620007d957506003546001600160a01b031633145b620007f85760405162461bcd60e51b815260040162000281906200139a565b8060068111156200081d5760405162461bcd60e51b81526004016200028190620013c9565b600083905060008590506000816001600160a01b03166310f01d186040518163ffffffff1660e01b8152600401602060405180830381865afa15801562000868573d6000803e3d6000fd5b505050506040513d601f19601f820116820180604052508101906200088e919062001440565b60405163d838fcc360e01b81526001600160a01b038083166004830152602482018890529192509084169063d838fcc390604401600060405180830381600087803b158015620008dd57600080fd5b505af1158015620008f2573d6000803e3d6000fd5b505060035460405163d838fcc360e01b81526001600160a01b03918216600482015260006024820152908616925063d838fcc39150604401600060405180830381600087803b1580156200094557600080fd5b505af11580156200095a573d6000803e3d6000fd5b505060405163f2fde38b60e01b81526001600160a01b038a811660048301528616925063f2fde38b9150602401600060405180830381600087803b158015620009a257600080fd5b505af1158015620009b7573d6000803e3d6000fd5b5050506001600160a01b03871660009081526005602052604081205460048054929350918110620009ec57620009ec62001460565b6000918252602082200180546001600160a01b0319166001600160a01b03938416179055604051888316928a169130917f4b5e014c755fdb6a52024ce15f7b6996231b7240cb5556f40c3671e175f516ea9190a450505050505050565b6000546001600160a01b031633148062000a6d57506003546001600160a01b031633145b62000a8c5760405162461bcd60e51b815260040162000281906200139a565b6004805460018101825560009182527f8a35acfbc15ff81a39ae7d344fd709f28e8600b4aa8c65c6b64bfe7fe36bd19b0180546001600160a01b0319166001600160a01b038416908117909155604051909130917f5e2190ddb640c06212c3e4cf9aa4bdc116646a4e2d65935751b16cecd25746569190a350565b6000546001600160a01b031633148062000b2b57506003546001600160a01b031633145b62000b4a5760405162461bcd60e51b815260040162000281906200139a565b60006004828154811062000b625762000b6262001460565b9060005260206000200160006101000a8154816001600160a01b0302191690836001600160a01b0316021790555050565b60606002805462000ba49062001476565b80601f016020809104026020016040519081016040528092919081815260200182805462000bd29062001476565b8015620007525780601f1062000bf75761010080835404028352916020019162000752565b820191906000526020600020905b81548152906001019060200180831162000c0557509395945050505050565b6000546001600160a01b031633148062000c4857506003546001600160a01b031633145b62000c675760405162461bcd60e51b815260040162000281906200139a565b81600681111562000c8c5760405162461bcd60e51b81526004016200028190620013c9565b6000878787878660405162000ca19062000f89565b62000cb1959493929190620014ad565b604051809103906000f08015801562000cce573d6000803e3d6000fd5b5060035460405163d838fcc360e01b81526001600160a01b0391821660048201526024810187905291925082169063d838fcc390604401600060405180830381600087803b15801562000d2057600080fd5b505af115801562000d35573d6000803e3d6000fd5b5050505062000d448162000a49565b5050505050505050565b6000546001600160a01b0316331462000daa5760405162461bcd60e51b815260206004820181905260248201527f4f776e61626c653a2063616c6c6572206973206e6f7420746865206f776e6572604482015260640162000281565b6001600160a01b03811662000e115760405162461bcd60e51b815260206004820152602660248201527f4f776e61626c653a206e6577206f776e657220697320746865207a65726f206160448201526564647265737360d01b606482015260840162000281565b62000e1c8162000ed2565b50565b60606001805462000ba49062001476565b6000604051733d602d80600a3d3981f3363d3d373d3d3d363d7360601b81528360601b60148201526e5af43d82803e903d91602b57fd5bf360881b6028820152826037826000f59150506001600160a01b038116620007af5760405162461bcd60e51b815260206004820152601760248201527f455243313136373a2063726561746532206661696c6564000000000000000000604482015260640162000281565b600080546001600160a01b038381166001600160a01b0319831681178455604051919092169283917f8be0079c531659141344cd1fd0a4f28419497f9722a3daafe3b4186f6b6457e09190a35050565b6000620007ac838330604051733d602d80600a3d3981f3363d3d373d3d3d363d7360601b8152606093841b60148201526f5af43d82803e903d91602b57fd5bf3ff60801b6028820152921b6038830152604c8201526037808220606c830152605591012090565b6112fd806200151583390190565b6001600160a01b038116811462000e1c57600080fd5b600080600080600060a0868803121562000fc657600080fd5b853562000fd38162000f97565b9450602086013562000fe58162000f97565b94979496505050506040830135926060810135926080909101359150565b6000602082840312156200101657600080fd5b5035919050565b600081518084526020808501945080840160005b83811015620010585781516001600160a01b03168752958201959082019060010162001031565b509495945050505050565b602081526000620007ac60208301846200101d565b600080604083850312156200108c57600080fd5b8235620010998162000f97565b946020939093013593505050565b600080600060608486031215620010bd57600080fd5b8335620010ca8162000f97565b92506020840135620010dc8162000f97565b929592945050506040919091013590565b6000602082840312156200110057600080fd5b81356200110d8162000f97565b9392505050565b6000815180845260005b818110156200113c576020818501810151868301820152016200111e565b818111156200114f576000602083870101525b50601f01601f19169290920160200192915050565b602081526000620007ac602083018462001114565b634e487b7160e01b600052604160045260246000fd5b604051601f8201601f1916810167ffffffffffffffff81118282101715620011bb57620011bb62001179565b604052919050565b600082601f830112620011d557600080fd5b813567ffffffffffffffff811115620011f257620011f262001179565b62001207601f8201601f19166020016200118f565b8181528460208386010111156200121d57600080fd5b816020850160208301376000918101602001919091529392505050565b600082601f8301126200124c57600080fd5b8135602067ffffffffffffffff8211156200126b576200126b62001179565b8160051b6200127c8282016200118f565b92835284810182019282810190878511156200129757600080fd5b83870192505b84831015620012c3578235620012b38162000f97565b825291830191908301906200129d565b979650505050505050565b60008060008060008060c08789031215620012e857600080fd5b863567ffffffffffffffff808211156200130157600080fd5b6200130f8a838b01620011c3565b975060208901359150808211156200132657600080fd5b620013348a838b01620011c3565b965060408901359150808211156200134b57600080fd5b620013598a838b01620011c3565b9550606089013594506080890135935060a08901359150808211156200137e57600080fd5b506200138d89828a016200123a565b9150509295509295509295565b60208082526015908201527411549493d4881bdb9b1e48185d5d1a1bdc9a5e9959605a1b604082015260600190565b6020808252601e908201527f4552524f5220726f6c65206e756d626572206f7574206f662072616e67650000604082015260600190565b6000602082840312156200141357600080fd5b5051919050565b6000828210156200143b57634e487b7160e01b600052601160045260246000fd5b500390565b6000602082840312156200145357600080fd5b81516200110d8162000f97565b634e487b7160e01b600052603260045260246000fd5b600181811c908216806200148b57607f821691505b60208210811415620006f257634e487b7160e01b600052602260045260246000fd5b60a081526000620014c260a083018862001114565b8281036020840152620014d6818862001114565b90508281036040840152620014ec818762001114565b905084606084015282810360808401526200150881856200101d565b9897505050505050505056fe60806040523480156200001157600080fd5b50604051620012fd380380620012fd8339810160408190526200003491620002f8565b6200003f33620000cc565b8451620000549060019060208801906200011c565b5083516200006a9060029060208701906200011c565b508251620000809060049060208601906200011c565b50600382905580516200009b906007906020840190620001ab565b508051620000b3576009805460ff19169055620000c1565b6009805460ff191660011790555b50505050506200047d565b600080546001600160a01b038381166001600160a01b0319831681178455604051919092169283917f8be0079c531659141344cd1fd0a4f28419497f9722a3daafe3b4186f6b6457e09190a35050565b8280546200012a9062000440565b90600052602060002090601f0160209004810192826200014e576000855562000199565b82601f106200016957805160ff191683800117855562000199565b8280016001018555821562000199579182015b82811115620001995782518255916020019190600101906200017c565b50620001a792915062000203565b5090565b82805482825590600052602060002090810192821562000199579160200282015b828111156200019957825182546001600160a01b0319166001600160a01b03909116178255602090920191600190910190620001cc565b5b80821115620001a7576000815560010162000204565b634e487b7160e01b600052604160045260246000fd5b604051601f8201601f191681016001600160401b03811182821017156200025b576200025b6200021a565b604052919050565b600082601f8301126200027557600080fd5b81516001600160401b038111156200029157620002916200021a565b6020620002a7601f8301601f1916820162000230565b8281528582848701011115620002bc57600080fd5b60005b83811015620002dc578581018301518282018401528201620002bf565b83811115620002ee5760008385840101525b5095945050505050565b600080600080600060a086880312156200031157600080fd5b85516001600160401b03808211156200032957600080fd5b6200033789838a0162000263565b96506020915081880151818111156200034f57600080fd5b6200035d8a828b0162000263565b9650506040880151818111156200037357600080fd5b620003818a828b0162000263565b955050606088015193506080880151818111156200039e57600080fd5b8801601f81018a13620003b057600080fd5b805182811115620003c557620003c56200021a565b8060051b9250620003d884840162000230565b818152928201840192848101908c851115620003f357600080fd5b928501925b848410156200042d57835192506001600160a01b03831683146200041c5760008081fd5b8282529285019290850190620003f8565b8096505050505050509295509295909350565b600181811c908216806200045557607f821691505b602082108114156200047757634e487b7160e01b600052602260045260246000fd5b50919050565b610e70806200048d6000396000f3fe608060405234801561001057600080fd5b50600436106100ea5760003560e01c8063af2b843e1161008c578063d838fcc311610066578063d838fcc3146101ea578063d9daab9b146101fd578063f2fde38b14610205578063fe704a9d1461021857600080fd5b8063af2b843e1461017e578063c731fc7b1461019e578063d5a056d8146101d757600080fd5b8063458f1a29116100c8578063458f1a2914610135578063600dad1d14610146578063715018a61461015b5780638da5cb5b1461016357600080fd5b8063072dbf2f146100ef5780632c4c47621461010d57806332db40b914610122575b600080fd5b6100f7610220565b6040516101049190610adb565b60405180910390f35b61012061011b366004610bb4565b610282565b005b610120610130366004610c43565b610410565b600354604051908152602001610104565b61014e61046c565b6040516101049190610ca9565b6101206104f5565b6000546040516001600160a01b039091168152602001610104565b61019161018c366004610c43565b61055b565b6040516101049190610cc3565b6101ca6101ac366004610d3d565b6001600160a01b03166000908152600a602052604090205460ff1690565b6040516101049190610d6e565b6101206101e5366004610d3d565b610789565b6101206101f8366004610d96565b610832565b61014e610929565b610120610213366004610d3d565b610938565b61014e6109e3565b6060600780548060200260200160405190810160405280929190818152602001828054801561027857602002820191906000526020600020905b81546001600160a01b0316815260019091019060200180831161025a575b5050505050905090565b6000546001600160a01b03163314806102bd5750336000908152600a602052604081205460ff1660068111156102ba576102ba610d58565b14155b6102e25760405162461bcd60e51b81526004016102d990610dc0565b60405180910390fd5b604080516080810182524281523360208083019182529282018581526060830185905260068054600181018255600091909152835160049091027ff652222313e28459528d920b65115c16c04f3efc82aaedc97be59f3f377c0d3f810191825592517ff652222313e28459528d920b65115c16c04f3efc82aaedc97be59f3f377c0d40840180546001600160a01b03929092166001600160a01b031990921691909117905590518051939491936103c0937ff652222313e28459528d920b65115c16c04f3efc82aaedc97be59f3f377c0d4101929190910190610a42565b50606082015180516103dc916003840191602090910190610a42565b505060405130915033907f9e003c88e545ece8ffbfec54d83dd54505596c479a3c3a1de531bf602682c64290600090a35050565b6000546001600160a01b031633148061044b5750336000908152600a602052604081205460ff16600681111561044857610448610d58565b14155b6104675760405162461bcd60e51b81526004016102d990610dc0565b600355565b60606004805461047b90610def565b80601f01602080910402602001604051908101604052809291908181526020018280546104a790610def565b80156102785780601f106104c957610100808354040283529160200191610278565b820191906000526020600020905b8154815290600101906020018083116104d757509395945050505050565b6000546001600160a01b0316331461054f5760405162461bcd60e51b815260206004820181905260248201527f4f776e61626c653a2063616c6c6572206973206e6f7420746865206f776e657260448201526064016102d9565b61055960006109f2565b565b61058f60405180608001604052806000815260200160006001600160a01b0316815260200160608152602001606081525090565b8160065481106105f75760405162461bcd60e51b815260206004820152602d60248201527f4552524f523a20546865206576656e74206e756d626572206d7573742062652060448201526c77697468696e2072616e67652160981b60648201526084016102d9565b6006838154811061060a5761060a610e24565b9060005260206000209060040201604051806080016040529081600082015481526020016001820160009054906101000a90046001600160a01b03166001600160a01b03166001600160a01b0316815260200160028201805461066c90610def565b80601f016020809104026020016040519081016040528092919081815260200182805461069890610def565b80156106e55780601f106106ba576101008083540402835291602001916106e5565b820191906000526020600020905b8154815290600101906020018083116106c857829003601f168201915b505050505081526020016003820180546106fe90610def565b80601f016020809104026020016040519081016040528092919081815260200182805461072a90610def565b80156107775780601f1061074c57610100808354040283529160200191610777565b820191906000526020600020905b81548152906001019060200180831161075a57829003601f168201915b50505050508152505091505b50919050565b6000546001600160a01b03163314806107c45750336000908152600a602052604081205460ff1660068111156107c1576107c1610d58565b14155b6107e05760405162461bcd60e51b81526004016102d990610dc0565b600780546001810182556000919091527fa66cc928b5edb82af9bd49922954155ab7b0942694bea4ce44661d9a8736c6880180546001600160a01b0319166001600160a01b0392909216919091179055565b6000546001600160a01b031633148061086d5750336000908152600a602052604081205460ff16600681111561086a5761086a610d58565b14155b6108895760405162461bcd60e51b81526004016102d990610dc0565b8060068111156108db5760405162461bcd60e51b815260206004820152601e60248201527f4552524f5220726f6c65206e756d626572206f7574206f662072616e6765000060448201526064016102d9565b8160068111156108ed576108ed610d58565b6001600160a01b0384166000908152600a60205260409020805460ff1916600183600681111561091f5761091f610d58565b0217905550505050565b60606002805461047b90610def565b3361094b6000546001600160a01b031690565b6001600160a01b0316148061096957506000546001600160a01b0316155b61097257600080fd5b6001600160a01b0381166109d75760405162461bcd60e51b815260206004820152602660248201527f4f776e61626c653a206e6577206f776e657220697320746865207a65726f206160448201526564647265737360d01b60648201526084016102d9565b6109e0816109f2565b50565b60606001805461047b90610def565b600080546001600160a01b038381166001600160a01b0319831681178455604051919092169283917f8be0079c531659141344cd1fd0a4f28419497f9722a3daafe3b4186f6b6457e09190a35050565b828054610a4e90610def565b90600052602060002090601f016020900481019282610a705760008555610ab6565b82601f10610a8957805160ff1916838001178555610ab6565b82800160010185558215610ab6579182015b82811115610ab6578251825591602001919060010190610a9b565b50610ac2929150610ac6565b5090565b5b80821115610ac25760008155600101610ac7565b6020808252825182820181905260009190848201906040850190845b81811015610b1c5783516001600160a01b031683529284019291840191600101610af7565b50909695505050505050565b634e487b7160e01b600052604160045260246000fd5b600067ffffffffffffffff80841115610b5957610b59610b28565b604051601f8501601f19908116603f01168101908282118183101715610b8157610b81610b28565b81604052809350858152868686011115610b9a57600080fd5b858560208301376000602087830101525050509392505050565b60008060408385031215610bc757600080fd5b823567ffffffffffffffff80821115610bdf57600080fd5b818501915085601f830112610bf357600080fd5b610c0286833560208501610b3e565b93506020850135915080821115610c1857600080fd5b508301601f81018513610c2a57600080fd5b610c3985823560208401610b3e565b9150509250929050565b600060208284031215610c5557600080fd5b5035919050565b6000815180845260005b81811015610c8257602081850181015186830182015201610c66565b81811115610c94576000602083870101525b50601f01601f19169290920160200192915050565b602081526000610cbc6020830184610c5c565b9392505050565b602081528151602082015260018060a01b0360208301511660408201526000604083015160806060840152610cfb60a0840182610c5c565b90506060840151601f19848303016080850152610d188282610c5c565b95945050505050565b80356001600160a01b0381168114610d3857600080fd5b919050565b600060208284031215610d4f57600080fd5b610cbc82610d21565b634e487b7160e01b600052602160045260246000fd5b6020810160078310610d9057634e487b7160e01b600052602160045260246000fd5b91905290565b60008060408385031215610da957600080fd5b610db283610d21565b946020939093013593505050565b60208082526015908201527411549493d48e881b9bdd08185d5d1a1bdc9a5e9959605a1b604082015260600190565b600181811c90821680610e0357607f821691505b6020821081141561078357634e487b7160e01b600052602260045260246000fd5b634e487b7160e01b600052603260045260246000fdfea26469706673582212201366f285e2fb313cfbf745906cdad8297bf089a7cadee13f523e44f91dee201264736f6c634300080b0033a26469706673582212202f797ccc7e33087048171c76e53ca3f955b83c748624f24a8b2e7c4d52dabeb864736f6c634300080b0033",
  "immutableReferences": {},
  "source": "// SPDX-License-Identifier: MIT\npragma solidity >=0.4.22 <0.9.0;\npragma abicoder v2;\n\nimport \"./Resource.sol\";\nimport \"@openzeppelin/contracts/proxy/Clones.sol\";\n\ncontract Producer is Ownable {\n\n  string    private  _name;\n  string    private  _description;\n  address   private  _account;\n  address[] private  _resources;\n  mapping (address => uint) private _resourceMap;\n\n  event AddResourceEvent (address indexed ownerAddr, \n                          address indexed addr);\n  event ChangeProducerEvent ( address indexed src, \n                              address indexed dest,\n                              address indexed res);\n\n  constructor (\n    string memory name,\n    string memory description,\n    address account\n  ) Ownable() {\n    _name = name;\n    _description = description;\n    _account = account;\n  }\n\n  modifier onlyAuthorized() {\n    require(msg.sender == owner() || msg.sender == _account,\n              \"ERROR only authorized\");\n    _;\n  }\n\n  function CreateResource (\n      string memory name,\n      string memory description,\n      string memory unitOfMeasure,\n      uint quantity,\n      uint role,\n      address[] memory prevProd\n  ) public onlyAuthorized roleInRange(role) {\n      Resource res = new Resource(name, description, unitOfMeasure, quantity, prevProd);\n      res.addAuthorized(_account, role);\n      AddToResources(address(res));\n  }\n\n  function ChangeProducer (\n    address newProducer,\n    address resAddr,\n    uint role\n  ) public onlyAuthorized roleInRange(role) {\n    Resource res = Resource(resAddr);\n    Producer prod = Producer(newProducer);\n    address prodAccont = prod.GetAccount();\n    res.addAuthorized(prodAccont, role);\n    res.addAuthorized(_account, 0);\n    res.transferOwnership(newProducer);\n    _resources[_resourceMap[resAddr]] = address(0);\n    emit ChangeProducerEvent(address(this), newProducer, resAddr);\n  }\n\n  function TransferQuantity (\n    address newProducer,\n    address resAddr,\n    bytes32 salt,\n    uint role,\n    uint quantity\n  ) public onlyAuthorized roleInRange(role) {\n    Resource oldRes = Resource(resAddr);\n    uint oldQuantity =oldRes.GetQuantity();\n    oldRes.SetQuantity(oldQuantity - quantity);\n    Resource res = Resource(Clones.cloneDeterministic(resAddr, salt));\n    res.transferOwnership(address(this));\n    Producer prod = Producer(newProducer);\n    address prodAccont = prod.GetAccount();\n    res.addAuthorized(prodAccont, role);\n    res.addAuthorized(_account, 0);\n    res.SetQuantity(quantity);\n    res.transferOwnership(newProducer);\n  }\n\n  modifier roleInRange(uint i) {\n    require(i >= 0 && i <= uint(type(Role).max),\n              \"ERROR role number out of range\");\n    _;\n  }\n\n  modifier resInRange(uint i) {\n    require(i >= 0 && i < _resources.length,\n              \"ERROR resource number out of range\");\n    _;\n  }\n\n  function GetClonesAddress (\n    address resAddr,\n    bytes32 salt\n  ) public onlyAuthorized view\n  returns (address) {\n    return Clones.predictDeterministicAddress(resAddr, salt);\n  }\n\n  function AddToResources(address res) \n  public onlyAuthorized {\n    _resources.push(res);\n    emit AddResourceEvent(address(this), address(res));\n  }\n\n  function RmFromResources(uint index) \n  public onlyAuthorized {\n    _resources[index] = address(0);\n  }\n\n  function GetName ()\n  public view \n  returns (string memory) {\n    return _name;\n  }\n\n  function GetDescription ()\n  public view \n  returns (string memory) {\n    return _description;\n  }\n    \n  function GetAccount ()\n  public view \n  returns (address) {\n    return _account;\n  }\n\n  function GetResource (\n    uint resIndex\n  ) public view resInRange(resIndex)\n  returns (address) {\n    return _resources[resIndex];\n  }\n\n  function GetResources ()\n  public view \n  returns (address[] memory) {\n    return _resources;\n  }\n}",
  "sourcePath": "/home/mgpop/Dev/Agri_EVM_IOTA/contracts/Producer.sol",
  "compiler": {
    "name": "solc",
    "version": "0.8.11+commit.d7f03943.Emscripten.clang"
  },
  "schemaVersion": "3.4.4",
  "updatedAt": "2022-02-02T22:17:02.134Z",
  "devdoc": {
    "kind": "dev",
    "methods": {
      "owner()": {
        "details": "Returns the address of the current owner."
      },
      "renounceOwnership()": {
        "details": "Leaves the contract without owner. It will not be possible to call `onlyOwner` functions anymore. Can only be called by the current owner. NOTE: Renouncing ownership will leave the contract without an owner, thereby removing any functionality that is only available to the owner."
      },
      "transferOwnership(address)": {
        "details": "Transfers ownership of the contract to a new account (`newOwner`). Can only be called by the current owner."
      }
    },
    "version": 1
  },
  "userdoc": {
    "kind": "user",
    "methods": {},
    "version": 1
  }
}