{
  "contractName": "Producer",
  "abi": [
    {
      "inputs": [
        {
          "internalType": "string",
          "name": "name",
          "type": "string"
        },
        {
          "internalType": "string",
          "name": "description",
          "type": "string"
        }
      ],
      "stateMutability": "nonpayable",
      "type": "constructor"
    },
    {
      "anonymous": false,
      "inputs": [
        {
          "indexed": true,
          "internalType": "address",
          "name": "previousOwner",
          "type": "address"
        },
        {
          "indexed": true,
          "internalType": "address",
          "name": "newOwner",
          "type": "address"
        }
      ],
      "name": "OwnershipTransferred",
      "type": "event"
    },
    {
      "anonymous": false,
      "inputs": [
        {
          "indexed": true,
          "internalType": "address",
          "name": "addr",
          "type": "address"
        },
        {
          "indexed": true,
          "internalType": "address",
          "name": "",
          "type": "address"
        }
      ],
      "name": "addPrimaryResource",
      "type": "event"
    },
    {
      "inputs": [],
      "name": "owner",
      "outputs": [
        {
          "internalType": "address",
          "name": "",
          "type": "address"
        }
      ],
      "stateMutability": "view",
      "type": "function",
      "constant": true
    },
    {
      "inputs": [],
      "name": "renounceOwnership",
      "outputs": [],
      "stateMutability": "nonpayable",
      "type": "function"
    },
    {
      "inputs": [
        {
          "internalType": "address",
          "name": "newOwner",
          "type": "address"
        }
      ],
      "name": "transferOwnership",
      "outputs": [],
      "stateMutability": "nonpayable",
      "type": "function"
    },
    {
      "inputs": [
        {
          "internalType": "string",
          "name": "name",
          "type": "string"
        },
        {
          "internalType": "string",
          "name": "description",
          "type": "string"
        }
      ],
      "name": "addPrimary",
      "outputs": [],
      "stateMutability": "nonpayable",
      "type": "function"
    },
    {
      "inputs": [
        {
          "internalType": "string",
          "name": "name",
          "type": "string"
        },
        {
          "internalType": "string",
          "name": "description",
          "type": "string"
        },
        {
          "internalType": "bytes20[]",
          "name": "prevProd",
          "type": "bytes20[]"
        }
      ],
      "name": "addProduct",
      "outputs": [],
      "stateMutability": "nonpayable",
      "type": "function"
    }
  ],
  "bytecode": "0x60806040523480156200001157600080fd5b50604051620042fe380380620042fe833981810160405281019062000037919062000405565b620000576200004b620000ec60201b60201c565b620000f460201b60201c565b81600190805190602001906200006f929190620001b8565b50806002908051906020019062000088929190620001b8565b50600073ffffffffffffffffffffffffffffffffffffffff163373ffffffffffffffffffffffffffffffffffffffff167f4a797844994e5cc4f53021a4e1a1a95969ba691d850d05c589d14fe558f4afb860405160405180910390a35050620004ef565b600033905090565b60008060009054906101000a900473ffffffffffffffffffffffffffffffffffffffff169050816000806101000a81548173ffffffffffffffffffffffffffffffffffffffff021916908373ffffffffffffffffffffffffffffffffffffffff1602179055508173ffffffffffffffffffffffffffffffffffffffff168173ffffffffffffffffffffffffffffffffffffffff167f8be0079c531659141344cd1fd0a4f28419497f9722a3daafe3b4186f6b6457e060405160405180910390a35050565b828054620001c690620004b9565b90600052602060002090601f016020900481019282620001ea576000855562000236565b82601f106200020557805160ff191683800117855562000236565b8280016001018555821562000236579182015b828111156200023557825182559160200191906001019062000218565b5b50905062000245919062000249565b5090565b5b80821115620002645760008160009055506001016200024a565b5090565b6000604051905090565b600080fd5b600080fd5b600080fd5b600080fd5b6000601f19601f8301169050919050565b7f4e487b7100000000000000000000000000000000000000000000000000000000600052604160045260246000fd5b620002d18262000286565b810181811067ffffffffffffffff82111715620002f357620002f262000297565b5b80604052505050565b60006200030862000268565b9050620003168282620002c6565b919050565b600067ffffffffffffffff82111562000339576200033862000297565b5b620003448262000286565b9050602081019050919050565b60005b838110156200037157808201518184015260208101905062000354565b8381111562000381576000848401525b50505050565b60006200039e62000398846200031b565b620002fc565b905082815260208101848484011115620003bd57620003bc62000281565b5b620003ca84828562000351565b509392505050565b600082601f830112620003ea57620003e96200027c565b5b8151620003fc84826020860162000387565b91505092915050565b600080604083850312156200041f576200041e62000272565b5b600083015167ffffffffffffffff81111562000440576200043f62000277565b5b6200044e85828601620003d2565b925050602083015167ffffffffffffffff81111562000472576200047162000277565b5b6200048085828601620003d2565b9150509250929050565b7f4e487b7100000000000000000000000000000000000000000000000000000000600052602260045260246000fd5b60006002820490506001821680620004d257607f821691505b60208210811415620004e957620004e86200048a565b5b50919050565b613dff80620004ff6000396000f3fe60806040523480156200001157600080fd5b50600436106200005e5760003560e01c806317d4964a1462000063578063715018a614620000835780638da5cb5b146200008f578063e7fc396114620000b1578063f2fde38b14620000d1575b600080fd5b6200008160048036038101906200007b9190620007d0565b620000f1565b005b6200008d6200018b565b005b620000996200021c565b604051620000a89190620008ce565b60405180910390f35b620000cf6004803603810190620000c99190620008eb565b62000245565b005b620000ef6004803603810190620000e99190620009a1565b62000336565b005b6000838383604051620001049062000506565b620001129392919062000b34565b604051809103906000f0801580156200012f573d6000803e3d6000fd5b50905060038160601b9080600181540180825580915050600190039060005260206000200160009091909190916101000a81548173ffffffffffffffffffffffffffffffffffffffff021916908360601c021790555050505050565b620001956200043a565b73ffffffffffffffffffffffffffffffffffffffff16620001b56200021c565b73ffffffffffffffffffffffffffffffffffffffff16146200020e576040517f08c379a0000000000000000000000000000000000000000000000000000000008152600401620002059062000bd6565b60405180910390fd5b6200021a600062000442565b565b60008060009054906101000a900473ffffffffffffffffffffffffffffffffffffffff16905090565b60008282604051620002579062000514565b6200026492919062000bf8565b604051809103906000f08015801562000281573d6000803e3d6000fd5b50905060048160601b9080600181540180825580915050600190039060005260206000200160009091909190916101000a81548173ffffffffffffffffffffffffffffffffffffffff021916908360601c02179055508073ffffffffffffffffffffffffffffffffffffffff163373ffffffffffffffffffffffffffffffffffffffff167f4a797844994e5cc4f53021a4e1a1a95969ba691d850d05c589d14fe558f4afb860405160405180910390a3505050565b620003406200043a565b73ffffffffffffffffffffffffffffffffffffffff16620003606200021c565b73ffffffffffffffffffffffffffffffffffffffff1614620003b9576040517f08c379a0000000000000000000000000000000000000000000000000000000008152600401620003b09062000bd6565b60405180910390fd5b600073ffffffffffffffffffffffffffffffffffffffff168173ffffffffffffffffffffffffffffffffffffffff1614156200042c576040517f08c379a0000000000000000000000000000000000000000000000000000000008152600401620004239062000ca9565b60405180910390fd5b620004378162000442565b50565b600033905090565b60008060009054906101000a900473ffffffffffffffffffffffffffffffffffffffff169050816000806101000a81548173ffffffffffffffffffffffffffffffffffffffff021916908373ffffffffffffffffffffffffffffffffffffffff1602179055508173ffffffffffffffffffffffffffffffffffffffff168173ffffffffffffffffffffffffffffffffffffffff167f8be0079c531659141344cd1fd0a4f28419497f9722a3daafe3b4186f6b6457e060405160405180910390a35050565b6119808062000ccc83390190565b61177e806200264c83390190565b6000604051905090565b600080fd5b600080fd5b600080fd5b600080fd5b6000601f19601f8301169050919050565b7f4e487b7100000000000000000000000000000000000000000000000000000000600052604160045260246000fd5b6200058b8262000540565b810181811067ffffffffffffffff82111715620005ad57620005ac62000551565b5b80604052505050565b6000620005c262000522565b9050620005d0828262000580565b919050565b600067ffffffffffffffff821115620005f357620005f262000551565b5b620005fe8262000540565b9050602081019050919050565b82818337600083830152505050565b6000620006316200062b84620005d5565b620005b6565b90508281526020810184848401111562000650576200064f6200053b565b5b6200065d8482856200060b565b509392505050565b600082601f8301126200067d576200067c62000536565b5b81356200068f8482602086016200061a565b91505092915050565b600067ffffffffffffffff821115620006b657620006b562000551565b5b602082029050602081019050919050565b600080fd5b60007fffffffffffffffffffffffffffffffffffffffff00000000000000000000000082169050919050565b6200070381620006cc565b81146200070f57600080fd5b50565b6000813590506200072381620006f8565b92915050565b6000620007406200073a8462000698565b620005b6565b90508083825260208201905060208402830185811115620007665762000765620006c7565b5b835b818110156200079357806200077e888262000712565b84526020840193505060208101905062000768565b5050509392505050565b600082601f830112620007b557620007b462000536565b5b8135620007c784826020860162000729565b91505092915050565b600080600060608486031215620007ec57620007eb6200052c565b5b600084013567ffffffffffffffff8111156200080d576200080c62000531565b5b6200081b8682870162000665565b935050602084013567ffffffffffffffff8111156200083f576200083e62000531565b5b6200084d8682870162000665565b925050604084013567ffffffffffffffff81111562000871576200087062000531565b5b6200087f868287016200079d565b9150509250925092565b600073ffffffffffffffffffffffffffffffffffffffff82169050919050565b6000620008b68262000889565b9050919050565b620008c881620008a9565b82525050565b6000602082019050620008e56000830184620008bd565b92915050565b600080604083850312156200090557620009046200052c565b5b600083013567ffffffffffffffff81111562000926576200092562000531565b5b620009348582860162000665565b925050602083013567ffffffffffffffff81111562000958576200095762000531565b5b620009668582860162000665565b9150509250929050565b6200097b81620008a9565b81146200098757600080fd5b50565b6000813590506200099b8162000970565b92915050565b600060208284031215620009ba57620009b96200052c565b5b6000620009ca848285016200098a565b91505092915050565b600081519050919050565b600082825260208201905092915050565b60005b8381101562000a0f578082015181840152602081019050620009f2565b8381111562000a1f576000848401525b50505050565b600062000a3282620009d3565b62000a3e8185620009de565b935062000a50818560208601620009ef565b62000a5b8162000540565b840191505092915050565b600081519050919050565b600082825260208201905092915050565b6000819050602082019050919050565b62000a9d81620006cc565b82525050565b600062000ab1838362000a92565b60208301905092915050565b6000602082019050919050565b600062000ad78262000a66565b62000ae3818562000a71565b935062000af08362000a82565b8060005b8381101562000b2757815162000b0b888262000aa3565b975062000b188362000abd565b92505060018101905062000af4565b5085935050505092915050565b6000606082019050818103600083015262000b50818662000a25565b9050818103602083015262000b66818562000a25565b9050818103604083015262000b7c818462000aca565b9050949350505050565b7f4f776e61626c653a2063616c6c6572206973206e6f7420746865206f776e6572600082015250565b600062000bbe602083620009de565b915062000bcb8262000b86565b602082019050919050565b6000602082019050818103600083015262000bf18162000baf565b9050919050565b6000604082019050818103600083015262000c14818562000a25565b9050818103602083015262000c2a818462000a25565b90509392505050565b7f4f776e61626c653a206e6577206f776e657220697320746865207a65726f206160008201527f6464726573730000000000000000000000000000000000000000000000000000602082015250565b600062000c91602683620009de565b915062000c9e8262000c33565b604082019050919050565b6000602082019050818103600083015262000cc48162000c82565b905091905056fe60806040523480156200001157600080fd5b50604051620019803803806200198083398181016040528101906200003791906200057c565b8282620000596200004d620000af60201b60201c565b620000b760201b60201c565b8160029080519060200190620000719291906200017b565b5080600390805190602001906200008a9291906200017b565b50505080600a9080519060200190620000a59291906200020c565b505050506200069a565b600033905090565b60008060009054906101000a900473ffffffffffffffffffffffffffffffffffffffff169050816000806101000a81548173ffffffffffffffffffffffffffffffffffffffff021916908373ffffffffffffffffffffffffffffffffffffffff1602179055508173ffffffffffffffffffffffffffffffffffffffff168173ffffffffffffffffffffffffffffffffffffffff167f8be0079c531659141344cd1fd0a4f28419497f9722a3daafe3b4186f6b6457e060405160405180910390a35050565b828054620001899062000664565b90600052602060002090601f016020900481019282620001ad5760008555620001f9565b82601f10620001c857805160ff1916838001178555620001f9565b82800160010185558215620001f9579182015b82811115620001f8578251825591602001919060010190620001db565b5b50905062000208919062000288565b5090565b82805482825590600052602060002090810192821562000275579160200282015b82811115620002745782518260006101000a81548173ffffffffffffffffffffffffffffffffffffffff021916908360601c0217905550916020019190600101906200022d565b5b50905062000284919062000288565b5090565b5b80821115620002a357600081600090555060010162000289565b5090565b6000604051905090565b600080fd5b600080fd5b600080fd5b600080fd5b6000601f19601f8301169050919050565b7f4e487b7100000000000000000000000000000000000000000000000000000000600052604160045260246000fd5b6200031082620002c5565b810181811067ffffffffffffffff82111715620003325762000331620002d6565b5b80604052505050565b600062000347620002a7565b905062000355828262000305565b919050565b600067ffffffffffffffff821115620003785762000377620002d6565b5b6200038382620002c5565b9050602081019050919050565b60005b83811015620003b057808201518184015260208101905062000393565b83811115620003c0576000848401525b50505050565b6000620003dd620003d7846200035a565b6200033b565b905082815260208101848484011115620003fc57620003fb620002c0565b5b6200040984828562000390565b509392505050565b600082601f830112620004295762000428620002bb565b5b81516200043b848260208601620003c6565b91505092915050565b600067ffffffffffffffff821115620004625762000461620002d6565b5b602082029050602081019050919050565b600080fd5b60007fffffffffffffffffffffffffffffffffffffffff00000000000000000000000082169050919050565b620004af8162000478565b8114620004bb57600080fd5b50565b600081519050620004cf81620004a4565b92915050565b6000620004ec620004e68462000444565b6200033b565b9050808382526020820190506020840283018581111562000512576200051162000473565b5b835b818110156200053f57806200052a8882620004be565b84526020840193505060208101905062000514565b5050509392505050565b600082601f830112620005615762000560620002bb565b5b815162000573848260208601620004d5565b91505092915050565b600080600060608486031215620005985762000597620002b1565b5b600084015167ffffffffffffffff811115620005b957620005b8620002b6565b5b620005c78682870162000411565b935050602084015167ffffffffffffffff811115620005eb57620005ea620002b6565b5b620005f98682870162000411565b925050604084015167ffffffffffffffff8111156200061d576200061c620002b6565b5b6200062b8682870162000549565b9150509250925092565b7f4e487b7100000000000000000000000000000000000000000000000000000000600052602260045260246000fd5b600060028204905060018216806200067d57607f821691505b6020821081141562000694576200069362000635565b5b50919050565b6112d680620006aa6000396000f3fe608060405234801561001057600080fd5b50600436106100885760003560e01c80638da5cb5b1161005b5780638da5cb5b146100ed578063d4e4c84d1461010b578063e1ba30a914610127578063f2fde38b1461015757610088565b8063349846fc1461008d578063715018a6146100a9578063798759e9146100b3578063893d20e8146100cf575b600080fd5b6100a760048036038101906100a29190610b3b565b610173565b005b6100b1610233565b005b6100cd60048036038101906100c89190610b8d565b6102bb565b005b6100d76103a2565b6040516100e49190610bdc565b60405180910390f35b6100f56103b1565b6040516101029190610bdc565b60405180910390f35b61012560048036038101906101209190610dde565b6103da565b005b610141600480360381019061013c9190610e8c565b610588565b60405161014e919061101e565b60405180910390f35b610171600480360381019061016c9190610b3b565b61079e565b005b61017b610896565b73ffffffffffffffffffffffffffffffffffffffff166101996103b1565b73ffffffffffffffffffffffffffffffffffffffff16146101ef576040517f08c379a00000000000000000000000000000000000000000000000000000000081526004016101e69061109d565b60405180910390fd5b80600160006101000a81548173ffffffffffffffffffffffffffffffffffffffff021916908373ffffffffffffffffffffffffffffffffffffffff16021790555050565b61023b610896565b73ffffffffffffffffffffffffffffffffffffffff166102596103b1565b73ffffffffffffffffffffffffffffffffffffffff16146102af576040517f08c379a00000000000000000000000000000000000000000000000000000000081526004016102a69061109d565b60405180910390fd5b6102b9600061089e565b565b6102c3610896565b73ffffffffffffffffffffffffffffffffffffffff166102e16103b1565b73ffffffffffffffffffffffffffffffffffffffff1614610337576040517f08c379a000000000000000000000000000000000000000000000000000000000815260040161032e9061109d565b60405180910390fd5b80600960008473ffffffffffffffffffffffffffffffffffffffff1673ffffffffffffffffffffffffffffffffffffffff16815260200190815260200160002060006101000a81548160ff02191690836006811115610399576103986110bd565b5b02179055505050565b60006103ac6103b1565b905090565b60008060009054906101000a900473ffffffffffffffffffffffffffffffffffffffff16905090565b6103e26103b1565b73ffffffffffffffffffffffffffffffffffffffff163373ffffffffffffffffffffffffffffffffffffffff16148061048c57506000600681111561042a576104296110bd565b5b600960003373ffffffffffffffffffffffffffffffffffffffff1673ffffffffffffffffffffffffffffffffffffffff16815260200190815260200160002060009054906101000a900460ff166006811115610489576104886110bd565b5b14155b61049557600080fd5b600460405180608001604052804281526020013373ffffffffffffffffffffffffffffffffffffffff1681526020018481526020018381525090806001815401808255809150506001900390600052602060002090600402016000909190919091506000820151816000015560208201518160010160006101000a81548173ffffffffffffffffffffffffffffffffffffffff021916908373ffffffffffffffffffffffffffffffffffffffff1602179055506040820151816002019080519060200190610564929190610962565b5060608201518160030190805190602001906105819291906109e8565b5050505050565b610590610a6e565b816000811015806105a657506004805490508111155b6105e5576040517f08c379a00000000000000000000000000000000000000000000000000000000081526004016105dc9061115e565b60405180910390fd5b600483815481106105f9576105f861117e565b5b9060005260206000209060040201604051806080016040529081600082015481526020016001820160009054906101000a900473ffffffffffffffffffffffffffffffffffffffff1673ffffffffffffffffffffffffffffffffffffffff1673ffffffffffffffffffffffffffffffffffffffff168152602001600282018054610682906111dc565b80601f01602080910402602001604051908101604052809291908181526020018280546106ae906111dc565b80156106fb5780601f106106d0576101008083540402835291602001916106fb565b820191906000526020600020905b8154815290600101906020018083116106de57829003601f168201915b50505050508152602001600382018054610714906111dc565b80601f0160208091040260200160405190810160405280929190818152602001828054610740906111dc565b801561078d5780601f106107625761010080835404028352916020019161078d565b820191906000526020600020905b81548152906001019060200180831161077057829003601f168201915b505050505081525050915050919050565b6107a6610896565b73ffffffffffffffffffffffffffffffffffffffff166107c46103b1565b73ffffffffffffffffffffffffffffffffffffffff161461081a576040517f08c379a00000000000000000000000000000000000000000000000000000000081526004016108119061109d565b60405180910390fd5b600073ffffffffffffffffffffffffffffffffffffffff168173ffffffffffffffffffffffffffffffffffffffff16141561088a576040517f08c379a000000000000000000000000000000000000000000000000000000000815260040161088190611280565b60405180910390fd5b6108938161089e565b50565b600033905090565b60008060009054906101000a900473ffffffffffffffffffffffffffffffffffffffff169050816000806101000a81548173ffffffffffffffffffffffffffffffffffffffff021916908373ffffffffffffffffffffffffffffffffffffffff1602179055508173ffffffffffffffffffffffffffffffffffffffff168173ffffffffffffffffffffffffffffffffffffffff167f8be0079c531659141344cd1fd0a4f28419497f9722a3daafe3b4186f6b6457e060405160405180910390a35050565b82805461096e906111dc565b90600052602060002090601f01602090048101928261099057600085556109d7565b82601f106109a957805160ff19168380011785556109d7565b828001600101855582156109d7579182015b828111156109d65782518255916020019190600101906109bb565b5b5090506109e49190610aac565b5090565b8280546109f4906111dc565b90600052602060002090601f016020900481019282610a165760008555610a5d565b82601f10610a2f57805160ff1916838001178555610a5d565b82800160010185558215610a5d579182015b82811115610a5c578251825591602001919060010190610a41565b5b509050610a6a9190610aac565b5090565b604051806080016040528060008152602001600073ffffffffffffffffffffffffffffffffffffffff16815260200160608152602001606081525090565b5b80821115610ac5576000816000905550600101610aad565b5090565b6000604051905090565b600080fd5b600080fd5b600073ffffffffffffffffffffffffffffffffffffffff82169050919050565b6000610b0882610add565b9050919050565b610b1881610afd565b8114610b2357600080fd5b50565b600081359050610b3581610b0f565b92915050565b600060208284031215610b5157610b50610ad3565b5b6000610b5f84828501610b26565b91505092915050565b60078110610b7557600080fd5b50565b600081359050610b8781610b68565b92915050565b60008060408385031215610ba457610ba3610ad3565b5b6000610bb285828601610b26565b9250506020610bc385828601610b78565b9150509250929050565b610bd681610afd565b82525050565b6000602082019050610bf16000830184610bcd565b92915050565b600080fd5b600080fd5b6000601f19601f8301169050919050565b7f4e487b7100000000000000000000000000000000000000000000000000000000600052604160045260246000fd5b610c4a82610c01565b810181811067ffffffffffffffff82111715610c6957610c68610c12565b5b80604052505050565b6000610c7c610ac9565b9050610c888282610c41565b919050565b600067ffffffffffffffff821115610ca857610ca7610c12565b5b610cb182610c01565b9050602081019050919050565b82818337600083830152505050565b6000610ce0610cdb84610c8d565b610c72565b905082815260208101848484011115610cfc57610cfb610bfc565b5b610d07848285610cbe565b509392505050565b600082601f830112610d2457610d23610bf7565b5b8135610d34848260208601610ccd565b91505092915050565b600067ffffffffffffffff821115610d5857610d57610c12565b5b610d6182610c01565b9050602081019050919050565b6000610d81610d7c84610d3d565b610c72565b905082815260208101848484011115610d9d57610d9c610bfc565b5b610da8848285610cbe565b509392505050565b600082601f830112610dc557610dc4610bf7565b5b8135610dd5848260208601610d6e565b91505092915050565b60008060408385031215610df557610df4610ad3565b5b600083013567ffffffffffffffff811115610e1357610e12610ad8565b5b610e1f85828601610d0f565b925050602083013567ffffffffffffffff811115610e4057610e3f610ad8565b5b610e4c85828601610db0565b9150509250929050565b6000819050919050565b610e6981610e56565b8114610e7457600080fd5b50565b600081359050610e8681610e60565b92915050565b600060208284031215610ea257610ea1610ad3565b5b6000610eb084828501610e77565b91505092915050565b610ec281610e56565b82525050565b610ed181610afd565b82525050565b600081519050919050565b600082825260208201905092915050565b60005b83811015610f11578082015181840152602081019050610ef6565b83811115610f20576000848401525b50505050565b6000610f3182610ed7565b610f3b8185610ee2565b9350610f4b818560208601610ef3565b610f5481610c01565b840191505092915050565b600081519050919050565b600082825260208201905092915050565b6000610f8682610f5f565b610f908185610f6a565b9350610fa0818560208601610ef3565b610fa981610c01565b840191505092915050565b6000608083016000830151610fcc6000860182610eb9565b506020830151610fdf6020860182610ec8565b5060408301518482036040860152610ff78282610f26565b915050606083015184820360608601526110118282610f7b565b9150508091505092915050565b600060208201905081810360008301526110388184610fb4565b905092915050565b600082825260208201905092915050565b7f4f776e61626c653a2063616c6c6572206973206e6f7420746865206f776e6572600082015250565b6000611087602083611040565b915061109282611051565b602082019050919050565b600060208201905081810360008301526110b68161107a565b9050919050565b7f4e487b7100000000000000000000000000000000000000000000000000000000600052602160045260246000fd5b7f4552524f523a20546865206576656e74206e756d626572206d7573742062652060008201527f77697468696e2072616e67652100000000000000000000000000000000000000602082015250565b6000611148602d83611040565b9150611153826110ec565b604082019050919050565b600060208201905081810360008301526111778161113b565b9050919050565b7f4e487b7100000000000000000000000000000000000000000000000000000000600052603260045260246000fd5b7f4e487b7100000000000000000000000000000000000000000000000000000000600052602260045260246000fd5b600060028204905060018216806111f457607f821691505b60208210811415611208576112076111ad565b5b50919050565b7f4f776e61626c653a206e6577206f776e657220697320746865207a65726f206160008201527f6464726573730000000000000000000000000000000000000000000000000000602082015250565b600061126a602683611040565b91506112758261120e565b604082019050919050565b600060208201905081810360008301526112998161125d565b905091905056fea26469706673582212204ab9622f1f44f437a725afc6dc219146b0fa6ac629fc3ecf7925b9eb3921232f64736f6c634300080a003360806040523480156200001157600080fd5b506040516200177e3803806200177e8339818101604052810190620000379190620003ae565b8181620000596200004d6200009560201b60201c565b6200009d60201b60201c565b81600290805190602001906200007192919062000161565b5080600390805190602001906200008a92919062000161565b505050505062000498565b600033905090565b60008060009054906101000a900473ffffffffffffffffffffffffffffffffffffffff169050816000806101000a81548173ffffffffffffffffffffffffffffffffffffffff021916908373ffffffffffffffffffffffffffffffffffffffff1602179055508173ffffffffffffffffffffffffffffffffffffffff168173ffffffffffffffffffffffffffffffffffffffff167f8be0079c531659141344cd1fd0a4f28419497f9722a3daafe3b4186f6b6457e060405160405180910390a35050565b8280546200016f9062000462565b90600052602060002090601f016020900481019282620001935760008555620001df565b82601f10620001ae57805160ff1916838001178555620001df565b82800160010185558215620001df579182015b82811115620001de578251825591602001919060010190620001c1565b5b509050620001ee9190620001f2565b5090565b5b808211156200020d576000816000905550600101620001f3565b5090565b6000604051905090565b600080fd5b600080fd5b600080fd5b600080fd5b6000601f19601f8301169050919050565b7f4e487b7100000000000000000000000000000000000000000000000000000000600052604160045260246000fd5b6200027a826200022f565b810181811067ffffffffffffffff821117156200029c576200029b62000240565b5b80604052505050565b6000620002b162000211565b9050620002bf82826200026f565b919050565b600067ffffffffffffffff821115620002e257620002e162000240565b5b620002ed826200022f565b9050602081019050919050565b60005b838110156200031a578082015181840152602081019050620002fd565b838111156200032a576000848401525b50505050565b6000620003476200034184620002c4565b620002a5565b9050828152602081018484840111156200036657620003656200022a565b5b62000373848285620002fa565b509392505050565b600082601f83011262000393576200039262000225565b5b8151620003a584826020860162000330565b91505092915050565b60008060408385031215620003c857620003c76200021b565b5b600083015167ffffffffffffffff811115620003e957620003e862000220565b5b620003f7858286016200037b565b925050602083015167ffffffffffffffff8111156200041b576200041a62000220565b5b62000429858286016200037b565b9150509250929050565b7f4e487b7100000000000000000000000000000000000000000000000000000000600052602260045260246000fd5b600060028204905060018216806200047b57607f821691505b6020821081141562000492576200049162000433565b5b50919050565b6112d680620004a86000396000f3fe608060405234801561001057600080fd5b50600436106100885760003560e01c80638da5cb5b1161005b5780638da5cb5b146100ed578063d4e4c84d1461010b578063e1ba30a914610127578063f2fde38b1461015757610088565b8063349846fc1461008d578063715018a6146100a9578063798759e9146100b3578063893d20e8146100cf575b600080fd5b6100a760048036038101906100a29190610b3b565b610173565b005b6100b1610233565b005b6100cd60048036038101906100c89190610b8d565b6102bb565b005b6100d76103a2565b6040516100e49190610bdc565b60405180910390f35b6100f56103b1565b6040516101029190610bdc565b60405180910390f35b61012560048036038101906101209190610dde565b6103da565b005b610141600480360381019061013c9190610e8c565b610588565b60405161014e919061101e565b60405180910390f35b610171600480360381019061016c9190610b3b565b61079e565b005b61017b610896565b73ffffffffffffffffffffffffffffffffffffffff166101996103b1565b73ffffffffffffffffffffffffffffffffffffffff16146101ef576040517f08c379a00000000000000000000000000000000000000000000000000000000081526004016101e69061109d565b60405180910390fd5b80600160006101000a81548173ffffffffffffffffffffffffffffffffffffffff021916908373ffffffffffffffffffffffffffffffffffffffff16021790555050565b61023b610896565b73ffffffffffffffffffffffffffffffffffffffff166102596103b1565b73ffffffffffffffffffffffffffffffffffffffff16146102af576040517f08c379a00000000000000000000000000000000000000000000000000000000081526004016102a69061109d565b60405180910390fd5b6102b9600061089e565b565b6102c3610896565b73ffffffffffffffffffffffffffffffffffffffff166102e16103b1565b73ffffffffffffffffffffffffffffffffffffffff1614610337576040517f08c379a000000000000000000000000000000000000000000000000000000000815260040161032e9061109d565b60405180910390fd5b80600960008473ffffffffffffffffffffffffffffffffffffffff1673ffffffffffffffffffffffffffffffffffffffff16815260200190815260200160002060006101000a81548160ff02191690836006811115610399576103986110bd565b5b02179055505050565b60006103ac6103b1565b905090565b60008060009054906101000a900473ffffffffffffffffffffffffffffffffffffffff16905090565b6103e26103b1565b73ffffffffffffffffffffffffffffffffffffffff163373ffffffffffffffffffffffffffffffffffffffff16148061048c57506000600681111561042a576104296110bd565b5b600960003373ffffffffffffffffffffffffffffffffffffffff1673ffffffffffffffffffffffffffffffffffffffff16815260200190815260200160002060009054906101000a900460ff166006811115610489576104886110bd565b5b14155b61049557600080fd5b600460405180608001604052804281526020013373ffffffffffffffffffffffffffffffffffffffff1681526020018481526020018381525090806001815401808255809150506001900390600052602060002090600402016000909190919091506000820151816000015560208201518160010160006101000a81548173ffffffffffffffffffffffffffffffffffffffff021916908373ffffffffffffffffffffffffffffffffffffffff1602179055506040820151816002019080519060200190610564929190610962565b5060608201518160030190805190602001906105819291906109e8565b5050505050565b610590610a6e565b816000811015806105a657506004805490508111155b6105e5576040517f08c379a00000000000000000000000000000000000000000000000000000000081526004016105dc9061115e565b60405180910390fd5b600483815481106105f9576105f861117e565b5b9060005260206000209060040201604051806080016040529081600082015481526020016001820160009054906101000a900473ffffffffffffffffffffffffffffffffffffffff1673ffffffffffffffffffffffffffffffffffffffff1673ffffffffffffffffffffffffffffffffffffffff168152602001600282018054610682906111dc565b80601f01602080910402602001604051908101604052809291908181526020018280546106ae906111dc565b80156106fb5780601f106106d0576101008083540402835291602001916106fb565b820191906000526020600020905b8154815290600101906020018083116106de57829003601f168201915b50505050508152602001600382018054610714906111dc565b80601f0160208091040260200160405190810160405280929190818152602001828054610740906111dc565b801561078d5780601f106107625761010080835404028352916020019161078d565b820191906000526020600020905b81548152906001019060200180831161077057829003601f168201915b505050505081525050915050919050565b6107a6610896565b73ffffffffffffffffffffffffffffffffffffffff166107c46103b1565b73ffffffffffffffffffffffffffffffffffffffff161461081a576040517f08c379a00000000000000000000000000000000000000000000000000000000081526004016108119061109d565b60405180910390fd5b600073ffffffffffffffffffffffffffffffffffffffff168173ffffffffffffffffffffffffffffffffffffffff16141561088a576040517f08c379a000000000000000000000000000000000000000000000000000000000815260040161088190611280565b60405180910390fd5b6108938161089e565b50565b600033905090565b60008060009054906101000a900473ffffffffffffffffffffffffffffffffffffffff169050816000806101000a81548173ffffffffffffffffffffffffffffffffffffffff021916908373ffffffffffffffffffffffffffffffffffffffff1602179055508173ffffffffffffffffffffffffffffffffffffffff168173ffffffffffffffffffffffffffffffffffffffff167f8be0079c531659141344cd1fd0a4f28419497f9722a3daafe3b4186f6b6457e060405160405180910390a35050565b82805461096e906111dc565b90600052602060002090601f01602090048101928261099057600085556109d7565b82601f106109a957805160ff19168380011785556109d7565b828001600101855582156109d7579182015b828111156109d65782518255916020019190600101906109bb565b5b5090506109e49190610aac565b5090565b8280546109f4906111dc565b90600052602060002090601f016020900481019282610a165760008555610a5d565b82601f10610a2f57805160ff1916838001178555610a5d565b82800160010185558215610a5d579182015b82811115610a5c578251825591602001919060010190610a41565b5b509050610a6a9190610aac565b5090565b604051806080016040528060008152602001600073ffffffffffffffffffffffffffffffffffffffff16815260200160608152602001606081525090565b5b80821115610ac5576000816000905550600101610aad565b5090565b6000604051905090565b600080fd5b600080fd5b600073ffffffffffffffffffffffffffffffffffffffff82169050919050565b6000610b0882610add565b9050919050565b610b1881610afd565b8114610b2357600080fd5b50565b600081359050610b3581610b0f565b92915050565b600060208284031215610b5157610b50610ad3565b5b6000610b5f84828501610b26565b91505092915050565b60078110610b7557600080fd5b50565b600081359050610b8781610b68565b92915050565b60008060408385031215610ba457610ba3610ad3565b5b6000610bb285828601610b26565b9250506020610bc385828601610b78565b9150509250929050565b610bd681610afd565b82525050565b6000602082019050610bf16000830184610bcd565b92915050565b600080fd5b600080fd5b6000601f19601f8301169050919050565b7f4e487b7100000000000000000000000000000000000000000000000000000000600052604160045260246000fd5b610c4a82610c01565b810181811067ffffffffffffffff82111715610c6957610c68610c12565b5b80604052505050565b6000610c7c610ac9565b9050610c888282610c41565b919050565b600067ffffffffffffffff821115610ca857610ca7610c12565b5b610cb182610c01565b9050602081019050919050565b82818337600083830152505050565b6000610ce0610cdb84610c8d565b610c72565b905082815260208101848484011115610cfc57610cfb610bfc565b5b610d07848285610cbe565b509392505050565b600082601f830112610d2457610d23610bf7565b5b8135610d34848260208601610ccd565b91505092915050565b600067ffffffffffffffff821115610d5857610d57610c12565b5b610d6182610c01565b9050602081019050919050565b6000610d81610d7c84610d3d565b610c72565b905082815260208101848484011115610d9d57610d9c610bfc565b5b610da8848285610cbe565b509392505050565b600082601f830112610dc557610dc4610bf7565b5b8135610dd5848260208601610d6e565b91505092915050565b60008060408385031215610df557610df4610ad3565b5b600083013567ffffffffffffffff811115610e1357610e12610ad8565b5b610e1f85828601610d0f565b925050602083013567ffffffffffffffff811115610e4057610e3f610ad8565b5b610e4c85828601610db0565b9150509250929050565b6000819050919050565b610e6981610e56565b8114610e7457600080fd5b50565b600081359050610e8681610e60565b92915050565b600060208284031215610ea257610ea1610ad3565b5b6000610eb084828501610e77565b91505092915050565b610ec281610e56565b82525050565b610ed181610afd565b82525050565b600081519050919050565b600082825260208201905092915050565b60005b83811015610f11578082015181840152602081019050610ef6565b83811115610f20576000848401525b50505050565b6000610f3182610ed7565b610f3b8185610ee2565b9350610f4b818560208601610ef3565b610f5481610c01565b840191505092915050565b600081519050919050565b600082825260208201905092915050565b6000610f8682610f5f565b610f908185610f6a565b9350610fa0818560208601610ef3565b610fa981610c01565b840191505092915050565b6000608083016000830151610fcc6000860182610eb9565b506020830151610fdf6020860182610ec8565b5060408301518482036040860152610ff78282610f26565b915050606083015184820360608601526110118282610f7b565b9150508091505092915050565b600060208201905081810360008301526110388184610fb4565b905092915050565b600082825260208201905092915050565b7f4f776e61626c653a2063616c6c6572206973206e6f7420746865206f776e6572600082015250565b6000611087602083611040565b915061109282611051565b602082019050919050565b600060208201905081810360008301526110b68161107a565b9050919050565b7f4e487b7100000000000000000000000000000000000000000000000000000000600052602160045260246000fd5b7f4552524f523a20546865206576656e74206e756d626572206d7573742062652060008201527f77697468696e2072616e67652100000000000000000000000000000000000000602082015250565b6000611148602d83611040565b9150611153826110ec565b604082019050919050565b600060208201905081810360008301526111778161113b565b9050919050565b7f4e487b7100000000000000000000000000000000000000000000000000000000600052603260045260246000fd5b7f4e487b7100000000000000000000000000000000000000000000000000000000600052602260045260246000fd5b600060028204905060018216806111f457607f821691505b60208210811415611208576112076111ad565b5b50919050565b7f4f776e61626c653a206e6577206f776e657220697320746865207a65726f206160008201527f6464726573730000000000000000000000000000000000000000000000000000602082015250565b600061126a602683611040565b91506112758261120e565b604082019050919050565b600060208201905081810360008301526112998161125d565b905091905056fea264697066735822122023bdf31448d90b8d9777b39eb0e64487c5373c920435de5d0a258499e06dcad564736f6c634300080a0033a264697066735822122046b733d1a53df1b6272e2fe31dff4480ba4bf066599f6422e903ba526ab33fb264736f6c634300080a0033",
  "immutableReferences": {},
  "source": "// SPDX-License-Identifier: MIT\npragma solidity >=0.4.22 <0.9.0;\n\nimport \"./Primary.sol\";\nimport \"./Product.sol\";\n\ncontract Producer is Ownable {\n  \n  string    _name;\n  string    _description;\n  bytes20[] _products;\n  bytes20[] _primaryResources;\n\n  event addPrimaryResource (address indexed addr, address indexed);\n\n  constructor ( string memory name, string memory description ) {\n    _name = name;\n    _description = description;\n    emit addPrimaryResource(msg.sender, address(0));\n  }\n\n  function addPrimary ( string memory name, string memory description ) public {\n    Primary primaryResource = new Primary(name, description);\n    _primaryResources.push(bytes20(address(primaryResource)));\n    emit addPrimaryResource(msg.sender, address(primaryResource));\n  }\n\n  function addProduct ( string memory name, string memory description, bytes20[] memory prevProd ) public {\n    Product agriProd = new Product(name, description, prevProd);\n    _products.push(bytes20(address(agriProd)));\n  }\n\n//   function changeProducer ( address newProducer, uint productId ) public onlyOwner {\n//     // newProducer.call(addProduct(  name, description, prevProd  ));\n//     (abi.encodeWithSignature(\"changeProducer(address)\", newProducer ));\n//     _resourceLink[productId]._id = address(0);\n//   }\n  \n}\n",
  "sourcePath": "/home/mgpop/Studies/Dev/AgriChain_EVM_IOTA.02/contracts/Producer.sol",
  "compiler": {
    "name": "solc",
    "version": "0.8.10+commit.fc410830.Emscripten.clang"
  },
  "schemaVersion": "3.4.4",
  "updatedAt": "2021-12-21T08:01:52.975Z",
  "networkType": "ethereum",
  "devdoc": {
    "kind": "dev",
    "methods": {
      "owner()": {
        "details": "Returns the address of the current owner."
      },
      "renounceOwnership()": {
        "details": "Leaves the contract without owner. It will not be possible to call `onlyOwner` functions anymore. Can only be called by the current owner. NOTE: Renouncing ownership will leave the contract without an owner, thereby removing any functionality that is only available to the owner."
      },
      "transferOwnership(address)": {
        "details": "Transfers ownership of the contract to a new account (`newOwner`). Can only be called by the current owner."
      }
    },
    "version": 1
  },
  "userdoc": {
    "kind": "user",
    "methods": {},
    "version": 1
  }
}