{
  "contractName": "Resource",
  "abi": [
    {
      "inputs": [
        {
          "internalType": "string",
          "name": "name",
          "type": "string"
        },
        {
          "internalType": "string",
          "name": "description",
          "type": "string"
        },
        {
          "internalType": "string",
          "name": "unitOfMeasure",
          "type": "string"
        },
        {
          "internalType": "uint256",
          "name": "quantity",
          "type": "uint256"
        },
        {
          "internalType": "address[]",
          "name": "origins",
          "type": "address[]"
        }
      ],
      "stateMutability": "nonpayable",
      "type": "constructor"
    },
    {
      "anonymous": false,
      "inputs": [
        {
          "indexed": true,
          "internalType": "address",
          "name": "previousOwner",
          "type": "address"
        },
        {
          "indexed": true,
          "internalType": "address",
          "name": "newOwner",
          "type": "address"
        }
      ],
      "name": "OwnershipTransferred",
      "type": "event"
    },
    {
      "anonymous": false,
      "inputs": [
        {
          "indexed": true,
          "internalType": "address",
          "name": "registrant",
          "type": "address"
        },
        {
          "indexed": true,
          "internalType": "address",
          "name": "resource",
          "type": "address"
        }
      ],
      "name": "agriEvent",
      "type": "event"
    },
    {
      "inputs": [],
      "name": "owner",
      "outputs": [
        {
          "internalType": "address",
          "name": "",
          "type": "address"
        }
      ],
      "stateMutability": "view",
      "type": "function"
    },
    {
      "inputs": [],
      "name": "renounceOwnership",
      "outputs": [],
      "stateMutability": "nonpayable",
      "type": "function"
    },
    {
      "inputs": [
        {
          "internalType": "address",
          "name": "newOwner",
          "type": "address"
        }
      ],
      "name": "transferOwnership",
      "outputs": [],
      "stateMutability": "nonpayable",
      "type": "function"
    },
    {
      "inputs": [
        {
          "internalType": "uint256",
          "name": "quantity",
          "type": "uint256"
        }
      ],
      "name": "SetQuantity",
      "outputs": [],
      "stateMutability": "nonpayable",
      "type": "function"
    },
    {
      "inputs": [],
      "name": "GetName",
      "outputs": [
        {
          "internalType": "string",
          "name": "",
          "type": "string"
        }
      ],
      "stateMutability": "view",
      "type": "function"
    },
    {
      "inputs": [],
      "name": "GetDescription",
      "outputs": [
        {
          "internalType": "string",
          "name": "",
          "type": "string"
        }
      ],
      "stateMutability": "view",
      "type": "function"
    },
    {
      "inputs": [],
      "name": "GetUnitOfMeasure",
      "outputs": [
        {
          "internalType": "string",
          "name": "",
          "type": "string"
        }
      ],
      "stateMutability": "view",
      "type": "function"
    },
    {
      "inputs": [],
      "name": "GetQuantity",
      "outputs": [
        {
          "internalType": "uint256",
          "name": "",
          "type": "uint256"
        }
      ],
      "stateMutability": "view",
      "type": "function"
    },
    {
      "inputs": [],
      "name": "GetOrigins",
      "outputs": [
        {
          "internalType": "address[]",
          "name": "",
          "type": "address[]"
        }
      ],
      "stateMutability": "view",
      "type": "function"
    },
    {
      "inputs": [
        {
          "internalType": "address",
          "name": "originAddr",
          "type": "address"
        }
      ],
      "name": "AddOrigin",
      "outputs": [],
      "stateMutability": "nonpayable",
      "type": "function"
    },
    {
      "inputs": [
        {
          "internalType": "uint256",
          "name": "state",
          "type": "uint256"
        }
      ],
      "name": "setState",
      "outputs": [],
      "stateMutability": "nonpayable",
      "type": "function"
    },
    {
      "inputs": [
        {
          "internalType": "address",
          "name": "authAddr",
          "type": "address"
        },
        {
          "internalType": "enum Role",
          "name": "role",
          "type": "uint8"
        }
      ],
      "name": "addAuthorized",
      "outputs": [],
      "stateMutability": "nonpayable",
      "type": "function"
    },
    {
      "inputs": [
        {
          "internalType": "address",
          "name": "authAddress",
          "type": "address"
        }
      ],
      "name": "getAuthorized",
      "outputs": [
        {
          "internalType": "enum Role",
          "name": "",
          "type": "uint8"
        }
      ],
      "stateMutability": "view",
      "type": "function"
    },
    {
      "inputs": [
        {
          "internalType": "string",
          "name": "name",
          "type": "string"
        },
        {
          "internalType": "bytes",
          "name": "parameters",
          "type": "bytes"
        }
      ],
      "name": "AddEvent",
      "outputs": [],
      "stateMutability": "nonpayable",
      "type": "function"
    },
    {
      "inputs": [
        {
          "internalType": "uint256",
          "name": "eventNr",
          "type": "uint256"
        }
      ],
      "name": "ReadEvent",
      "outputs": [
        {
          "components": [
            {
              "internalType": "uint256",
              "name": "dateTime",
              "type": "uint256"
            },
            {
              "internalType": "address",
              "name": "registrant",
              "type": "address"
            },
            {
              "internalType": "string",
              "name": "name",
              "type": "string"
            },
            {
              "internalType": "bytes",
              "name": "parameters",
              "type": "bytes"
            }
          ],
          "internalType": "struct Resource.AgriEvent",
          "name": "",
          "type": "tuple"
        }
      ],
      "stateMutability": "view",
      "type": "function"
    }
  ],
  "bytecode": "0x60806040523480156200001157600080fd5b506040516200138b3803806200138b833981016040819052620000349162000307565b6200003f33620000db565b8451620000549060019060208801906200012b565b5083516200006a9060029060208701906200012b565b508251620000809060049060208601906200012b565b50600382905580516200009b906007906020840190620001ba565b506008805461ff0019166101001790558051620000c2576008805460ff19169055620000d0565b6008805460ff191660011790555b50505050506200048c565b600080546001600160a01b038381166001600160a01b0319831681178455604051919092169283917f8be0079c531659141344cd1fd0a4f28419497f9722a3daafe3b4186f6b6457e09190a35050565b82805462000139906200044f565b90600052602060002090601f0160209004810192826200015d5760008555620001a8565b82601f106200017857805160ff1916838001178555620001a8565b82800160010185558215620001a8579182015b82811115620001a85782518255916020019190600101906200018b565b50620001b692915062000212565b5090565b828054828255906000526020600020908101928215620001a8579160200282015b82811115620001a857825182546001600160a01b0319166001600160a01b03909116178255602090920191600190910190620001db565b5b80821115620001b6576000815560010162000213565b634e487b7160e01b600052604160045260246000fd5b604051601f8201601f191681016001600160401b03811182821017156200026a576200026a62000229565b604052919050565b600082601f8301126200028457600080fd5b81516001600160401b03811115620002a057620002a062000229565b6020620002b6601f8301601f191682016200023f565b8281528582848701011115620002cb57600080fd5b60005b83811015620002eb578581018301518282018401528201620002ce565b83811115620002fd5760008385840101525b5095945050505050565b600080600080600060a086880312156200032057600080fd5b85516001600160401b03808211156200033857600080fd5b6200034689838a0162000272565b96506020915081880151818111156200035e57600080fd5b6200036c8a828b0162000272565b9650506040880151818111156200038257600080fd5b620003908a828b0162000272565b95505060608801519350608088015181811115620003ad57600080fd5b8801601f81018a13620003bf57600080fd5b805182811115620003d457620003d462000229565b8060051b9250620003e78484016200023f565b818152928201840192848101908c8511156200040257600080fd5b928501925b848410156200043c57835192506001600160a01b03831683146200042b5760008081fd5b828252928501929085019062000407565b8096505050505050509295509295909350565b600181811c908216806200046457607f821691505b602082108114156200048657634e487b7160e01b600052602260045260246000fd5b50919050565b610eef806200049c6000396000f3fe608060405234801561001057600080fd5b50600436106100f55760003560e01c80638da5cb5b11610097578063d5a056d811610066578063d5a056d814610208578063d9daab9b1461021b578063f2fde38b14610223578063fe704a9d1461023657600080fd5b80638da5cb5b14610181578063a9e966b71461019c578063af2b843e146101af578063c731fc7b146101cf57600080fd5b8063458f1a29116100d3578063458f1a2914610140578063600dad1d14610151578063715018a614610166578063798759e91461016e57600080fd5b8063072dbf2f146100fa5780632c4c47621461011857806332db40b91461012d575b600080fd5b61010261023e565b60405161010f9190610b43565b60405180910390f35b61012b610126366004610c1c565b6102a0565b005b61012b61013b366004610cab565b61042e565b60035460405190815260200161010f565b61015961048a565b60405161010f9190610d11565b61012b610513565b61012b61017c366004610d47565b610579565b6000546040516001600160a01b03909116815260200161010f565b61012b6101aa366004610cab565b61060e565b6101c26101bd366004610cab565b61069d565b60405161010f9190610d82565b6101fb6101dd366004610de0565b6001600160a01b03166000908152600a602052604090205460ff1690565b60405161010f9190610e11565b61012b610216366004610de0565b6108c8565b610159610971565b61012b610231366004610de0565b610980565b610159610a4b565b6060600780548060200260200160405190810160405280929190818152602001828054801561029657602002820191906000526020600020905b81546001600160a01b03168152600190910190602001808311610278575b5050505050905090565b6000546001600160a01b03163314806102db5750336000908152600a602052604081205460ff1660068111156102d8576102d8610dfb565b14155b6103005760405162461bcd60e51b81526004016102f790610e39565b60405180910390fd5b604080516080810182524281523360208083019182529282018581526060830185905260068054600181018255600091909152835160049091027ff652222313e28459528d920b65115c16c04f3efc82aaedc97be59f3f377c0d3f810191825592517ff652222313e28459528d920b65115c16c04f3efc82aaedc97be59f3f377c0d40840180546001600160a01b03929092166001600160a01b031990921691909117905590518051939491936103de937ff652222313e28459528d920b65115c16c04f3efc82aaedc97be59f3f377c0d4101929190910190610aaa565b50606082015180516103fa916003840191602090910190610aaa565b505060405130915033907f9e003c88e545ece8ffbfec54d83dd54505596c479a3c3a1de531bf602682c64290600090a35050565b6000546001600160a01b03163314806104695750336000908152600a602052604081205460ff16600681111561046657610466610dfb565b14155b6104855760405162461bcd60e51b81526004016102f790610e39565b600355565b60606004805461049990610e68565b80601f01602080910402602001604051908101604052809291908181526020018280546104c590610e68565b80156102965780601f106104e757610100808354040283529160200191610296565b820191906000526020600020905b8154815290600101906020018083116104f557509395945050505050565b6000546001600160a01b0316331461056d5760405162461bcd60e51b815260206004820181905260248201527f4f776e61626c653a2063616c6c6572206973206e6f7420746865206f776e657260448201526064016102f7565b6105776000610a5a565b565b6000546001600160a01b03163314806105b45750336000908152600a602052604081205460ff1660068111156105b1576105b1610dfb565b14155b6105d05760405162461bcd60e51b81526004016102f790610e39565b6001600160a01b0382166000908152600a60205260409020805482919060ff1916600183600681111561060557610605610dfb565b02179055505050565b6000546001600160a01b03163314806106495750336000908152600a602052604081205460ff16600681111561064657610646610dfb565b14155b6106655760405162461bcd60e51b81526004016102f790610e39565b80600181111561067757610677610dfb565b6008805461ff00191661010083600181111561069557610695610dfb565b021790555050565b6106d160405180608001604052806000815260200160006001600160a01b0316815260200160608152602001606081525090565b60065482106107385760405162461bcd60e51b815260206004820152602d60248201527f4552524f523a20546865206576656e74206e756d626572206d7573742062652060448201526c77697468696e2072616e67652160981b60648201526084016102f7565b6006828154811061074b5761074b610ea3565b9060005260206000209060040201604051806080016040529081600082015481526020016001820160009054906101000a90046001600160a01b03166001600160a01b03166001600160a01b031681526020016002820180546107ad90610e68565b80601f01602080910402602001604051908101604052809291908181526020018280546107d990610e68565b80156108265780601f106107fb57610100808354040283529160200191610826565b820191906000526020600020905b81548152906001019060200180831161080957829003601f168201915b5050505050815260200160038201805461083f90610e68565b80601f016020809104026020016040519081016040528092919081815260200182805461086b90610e68565b80156108b85780601f1061088d576101008083540402835291602001916108b8565b820191906000526020600020905b81548152906001019060200180831161089b57829003601f168201915b5050505050815250509050919050565b6000546001600160a01b03163314806109035750336000908152600a602052604081205460ff16600681111561090057610900610dfb565b14155b61091f5760405162461bcd60e51b81526004016102f790610e39565b600780546001810182556000919091527fa66cc928b5edb82af9bd49922954155ab7b0942694bea4ce44661d9a8736c6880180546001600160a01b0319166001600160a01b0392909216919091179055565b60606002805461049990610e68565b6000546001600160a01b031633146109da5760405162461bcd60e51b815260206004820181905260248201527f4f776e61626c653a2063616c6c6572206973206e6f7420746865206f776e657260448201526064016102f7565b6001600160a01b038116610a3f5760405162461bcd60e51b815260206004820152602660248201527f4f776e61626c653a206e6577206f776e657220697320746865207a65726f206160448201526564647265737360d01b60648201526084016102f7565b610a4881610a5a565b50565b60606001805461049990610e68565b600080546001600160a01b038381166001600160a01b0319831681178455604051919092169283917f8be0079c531659141344cd1fd0a4f28419497f9722a3daafe3b4186f6b6457e09190a35050565b828054610ab690610e68565b90600052602060002090601f016020900481019282610ad85760008555610b1e565b82601f10610af157805160ff1916838001178555610b1e565b82800160010185558215610b1e579182015b82811115610b1e578251825591602001919060010190610b03565b50610b2a929150610b2e565b5090565b5b80821115610b2a5760008155600101610b2f565b6020808252825182820181905260009190848201906040850190845b81811015610b845783516001600160a01b031683529284019291840191600101610b5f565b50909695505050505050565b634e487b7160e01b600052604160045260246000fd5b600067ffffffffffffffff80841115610bc157610bc1610b90565b604051601f8501601f19908116603f01168101908282118183101715610be957610be9610b90565b81604052809350858152868686011115610c0257600080fd5b858560208301376000602087830101525050509392505050565b60008060408385031215610c2f57600080fd5b823567ffffffffffffffff80821115610c4757600080fd5b818501915085601f830112610c5b57600080fd5b610c6a86833560208501610ba6565b93506020850135915080821115610c8057600080fd5b508301601f81018513610c9257600080fd5b610ca185823560208401610ba6565b9150509250929050565b600060208284031215610cbd57600080fd5b5035919050565b6000815180845260005b81811015610cea57602081850181015186830182015201610cce565b81811115610cfc576000602083870101525b50601f01601f19169290920160200192915050565b602081526000610d246020830184610cc4565b9392505050565b80356001600160a01b0381168114610d4257600080fd5b919050565b60008060408385031215610d5a57600080fd5b610d6383610d2b565b9150602083013560078110610d7757600080fd5b809150509250929050565b602081528151602082015260018060a01b0360208301511660408201526000604083015160806060840152610dba60a0840182610cc4565b90506060840151601f19848303016080850152610dd78282610cc4565b95945050505050565b600060208284031215610df257600080fd5b610d2482610d2b565b634e487b7160e01b600052602160045260246000fd5b6020810160078310610e3357634e487b7160e01b600052602160045260246000fd5b91905290565b60208082526015908201527411549493d48e881b9bdd08185d5d1a1bdc9a5e9959605a1b604082015260600190565b600181811c90821680610e7c57607f821691505b60208210811415610e9d57634e487b7160e01b600052602260045260246000fd5b50919050565b634e487b7160e01b600052603260045260246000fdfea2646970667358221220690b3c47d079f67caff2ce3637daa95e8882a5f50421450f45696e5c4f8b9ed664736f6c634300080b0033",
  "immutableReferences": {},
  "source": "// SPDX-License-Identifier: MIT\npragma solidity >=0.4.22 <0.9.0;\n\nimport \"@openzeppelin/contracts/access/Ownable.sol\";\n\nenum Role {\n    disabled,\n    farmer,\n    agrifirm,\n    certifier,\n    publicbody,\n    retailer,\n    reseller\n  }\n\ncontract Resource is Ownable {\n\n  string        _name;\n  string        _description;\n  uint          _quantity;\n  string        _unitOfMeasure;\n  uint32        _minTimeInterval;\n  AgriEvent[]   _agriEvents;  \n  address[]     _origins;\n  ResourceType  _resourceType;\n  ResourceState _resourceState;\n  \n  enum ResourceType {\n    primary,\n    product\n  }\n\n  enum ResourceState {\n    pending,\n    stable\n  }\n  \n  struct AgriEvent {\n    uint dateTime;\n    address registrant;\n    string name;\n    bytes parameters;\n  }\n\n  struct CertifyingEvent {\n    AgriEvent baseEvent;\n    string link;\n  }\n\n  address[] _roles;\n  mapping ( address => Role ) _authorized;\n  \n    \n  event agriEvent (address indexed registrant, address indexed resource);\n  \n  constructor (\n    string memory name,\n    string memory description,\n    string memory unitOfMeasure,\n    uint quantity,\n    address[] memory origins\n  ) Ownable() {\n    _name = name;\n    _description = description;\n    _unitOfMeasure = unitOfMeasure;\n    _quantity = quantity;\n    _origins = origins;\n    _resourceState = ResourceState.stable;\n    if (origins.length == 0){\n      _resourceType = ResourceType.primary;\n    } else {\n      _resourceType = ResourceType.product;\n    }\n  }\n  \n  modifier onlyStable(){\n    require(_resourceState == ResourceState.stable, \"ERROR: resource status is pending\");\n    _;\n  }\n\n  modifier onlyAuthorized() {\n    require(msg.sender == owner() || _authorized[msg.sender] != Role.disabled, \"ERROR: not authorized\");\n    _;\n  }\n\n  function SetQuantity(uint quantity) onlyAuthorized public {\n    require(quantity >= 0, \"Cannot be negative\");\n    _quantity =  quantity;\n  }\n\n  function GetName ()\n    public\n    view \n  returns ( string memory ) {\n    return _name;\n  }\n\n  function GetDescription ()\n    public\n    view \n  returns ( string memory ) {\n    return _description;\n  }\n\n  function GetUnitOfMeasure ()\n    public\n    view \n  returns ( string memory ) {\n    return _unitOfMeasure;\n  }\n\n  function GetQuantity ()\n    public\n    view \n  returns ( uint ) {\n    return _quantity;\n  }\n\n  function GetOrigins ()\n    public\n    view \n  returns ( address[] memory ) {\n    return _origins;\n  }\n\n  function AddOrigin (\n    address originAddr\n  ) onlyAuthorized\n    public {\n    _origins.push(originAddr);\n  }\n\n\n  function setState (\n    uint state\n  ) onlyAuthorized\n    public {  \n    _resourceState = ResourceState(state);\n  }\n\n  function addAuthorized (\n    address authAddr,\n    Role role\n  ) onlyAuthorized\n    public {\n    _authorized[authAddr] = role;\n  }\n\n  function getAuthorized (\n    address authAddress\n  ) public\n    view \n  returns ( Role ) {\n    return _authorized[authAddress];\n  }\n\n  function AddEvent (\n    string memory name,\n    bytes memory parameters\n  ) onlyAuthorized public {\n    _agriEvents.push(AgriEvent( block.timestamp, msg.sender, name, parameters ));\n    emit agriEvent( msg.sender, address(this));\n  }\n    \n  function ReadEvent(\n    uint eventNr\n  ) public view\n  returns ( AgriEvent memory) {\n  require(eventNr >= 0 && eventNr < _agriEvents.length, \"ERROR: The event number must be within range!\");\n    return _agriEvents[eventNr];\n  } \n}\n",
  "sourcePath": "/home/mgpop/Dev/Agri_EVM_IOTA/contracts/Resource.sol",
  "compiler": {
    "name": "solc",
    "version": "0.8.11+commit.d7f03943.Emscripten.clang"
  },
  "schemaVersion": "3.4.4",
  "updatedAt": "2022-01-23T14:27:00.272Z",
  "devdoc": {
    "kind": "dev",
    "methods": {
      "owner()": {
        "details": "Returns the address of the current owner."
      },
      "renounceOwnership()": {
        "details": "Leaves the contract without owner. It will not be possible to call `onlyOwner` functions anymore. Can only be called by the current owner. NOTE: Renouncing ownership will leave the contract without an owner, thereby removing any functionality that is only available to the owner."
      },
      "transferOwnership(address)": {
        "details": "Transfers ownership of the contract to a new account (`newOwner`). Can only be called by the current owner."
      }
    },
    "version": 1
  },
  "userdoc": {
    "kind": "user",
    "methods": {},
    "version": 1
  }
}