{
  "contractName": "Resource",
  "abi": [
    {
      "inputs": [
        {
          "internalType": "string",
          "name": "name",
          "type": "string"
        },
        {
          "internalType": "string",
          "name": "description",
          "type": "string"
        },
        {
          "internalType": "string",
          "name": "unitOfMeasure",
          "type": "string"
        },
        {
          "internalType": "uint256",
          "name": "quantity",
          "type": "uint256"
        },
        {
          "internalType": "address[]",
          "name": "origins",
          "type": "address[]"
        }
      ],
      "stateMutability": "nonpayable",
      "type": "constructor"
    },
    {
      "anonymous": false,
      "inputs": [
        {
          "indexed": true,
          "internalType": "address",
          "name": "previousOwner",
          "type": "address"
        },
        {
          "indexed": true,
          "internalType": "address",
          "name": "newOwner",
          "type": "address"
        }
      ],
      "name": "OwnershipTransferred",
      "type": "event"
    },
    {
      "anonymous": false,
      "inputs": [
        {
          "indexed": true,
          "internalType": "address",
          "name": "registrant",
          "type": "address"
        },
        {
          "indexed": true,
          "internalType": "address",
          "name": "resource",
          "type": "address"
        }
      ],
      "name": "agriEvent",
      "type": "event"
    },
    {
      "inputs": [],
      "name": "owner",
      "outputs": [
        {
          "internalType": "address",
          "name": "",
          "type": "address"
        }
      ],
      "stateMutability": "view",
      "type": "function"
    },
    {
      "inputs": [],
      "name": "renounceOwnership",
      "outputs": [],
      "stateMutability": "nonpayable",
      "type": "function"
    },
    {
      "inputs": [
        {
          "internalType": "address",
          "name": "newOwner",
          "type": "address"
        }
      ],
      "name": "transferOwnership",
      "outputs": [],
      "stateMutability": "nonpayable",
      "type": "function"
    },
    {
      "inputs": [
        {
          "internalType": "string",
          "name": "name",
          "type": "string"
        },
        {
          "internalType": "bytes",
          "name": "parameters",
          "type": "bytes"
        }
      ],
      "name": "AddEvent",
      "outputs": [],
      "stateMutability": "nonpayable",
      "type": "function"
    },
    {
      "inputs": [
        {
          "internalType": "uint256",
          "name": "quantity",
          "type": "uint256"
        }
      ],
      "name": "SetQuantity",
      "outputs": [],
      "stateMutability": "nonpayable",
      "type": "function"
    },
    {
      "inputs": [
        {
          "internalType": "address",
          "name": "originAddr",
          "type": "address"
        }
      ],
      "name": "AddOrigin",
      "outputs": [],
      "stateMutability": "nonpayable",
      "type": "function"
    },
    {
      "inputs": [
        {
          "internalType": "address",
          "name": "authAddr",
          "type": "address"
        },
        {
          "internalType": "uint256",
          "name": "role",
          "type": "uint256"
        }
      ],
      "name": "addAuthorized",
      "outputs": [],
      "stateMutability": "nonpayable",
      "type": "function"
    },
    {
      "inputs": [
        {
          "internalType": "uint256",
          "name": "eventNr",
          "type": "uint256"
        }
      ],
      "name": "ReadEvent",
      "outputs": [
        {
          "components": [
            {
              "internalType": "uint256",
              "name": "dateTime",
              "type": "uint256"
            },
            {
              "internalType": "address",
              "name": "registrant",
              "type": "address"
            },
            {
              "internalType": "string",
              "name": "name",
              "type": "string"
            },
            {
              "internalType": "bytes",
              "name": "parameters",
              "type": "bytes"
            }
          ],
          "internalType": "struct Resource.AgriEvent",
          "name": "",
          "type": "tuple"
        }
      ],
      "stateMutability": "view",
      "type": "function"
    },
    {
      "inputs": [],
      "name": "GetName",
      "outputs": [
        {
          "internalType": "string",
          "name": "",
          "type": "string"
        }
      ],
      "stateMutability": "view",
      "type": "function"
    },
    {
      "inputs": [],
      "name": "GetDescription",
      "outputs": [
        {
          "internalType": "string",
          "name": "",
          "type": "string"
        }
      ],
      "stateMutability": "view",
      "type": "function"
    },
    {
      "inputs": [],
      "name": "GetUnitOfMeasure",
      "outputs": [
        {
          "internalType": "string",
          "name": "",
          "type": "string"
        }
      ],
      "stateMutability": "view",
      "type": "function"
    },
    {
      "inputs": [],
      "name": "GetQuantity",
      "outputs": [
        {
          "internalType": "uint256",
          "name": "",
          "type": "uint256"
        }
      ],
      "stateMutability": "view",
      "type": "function"
    },
    {
      "inputs": [],
      "name": "GetOrigins",
      "outputs": [
        {
          "internalType": "address[]",
          "name": "",
          "type": "address[]"
        }
      ],
      "stateMutability": "view",
      "type": "function"
    },
    {
      "inputs": [
        {
          "internalType": "address",
          "name": "authAddress",
          "type": "address"
        }
      ],
      "name": "getAuthorized",
      "outputs": [
        {
          "internalType": "enum Role",
          "name": "",
          "type": "uint8"
        }
      ],
      "stateMutability": "view",
      "type": "function"
    }
  ],
  "bytecode": "0x60806040523480156200001157600080fd5b50604051620012fd380380620012fd8339810160408190526200003491620002f8565b6200003f33620000cc565b8451620000549060019060208801906200011c565b5083516200006a9060029060208701906200011c565b508251620000809060049060208601906200011c565b50600382905580516200009b906007906020840190620001ab565b508051620000b3576009805460ff19169055620000c1565b6009805460ff191660011790555b50505050506200047d565b600080546001600160a01b038381166001600160a01b0319831681178455604051919092169283917f8be0079c531659141344cd1fd0a4f28419497f9722a3daafe3b4186f6b6457e09190a35050565b8280546200012a9062000440565b90600052602060002090601f0160209004810192826200014e576000855562000199565b82601f106200016957805160ff191683800117855562000199565b8280016001018555821562000199579182015b82811115620001995782518255916020019190600101906200017c565b50620001a792915062000203565b5090565b82805482825590600052602060002090810192821562000199579160200282015b828111156200019957825182546001600160a01b0319166001600160a01b03909116178255602090920191600190910190620001cc565b5b80821115620001a7576000815560010162000204565b634e487b7160e01b600052604160045260246000fd5b604051601f8201601f191681016001600160401b03811182821017156200025b576200025b6200021a565b604052919050565b600082601f8301126200027557600080fd5b81516001600160401b038111156200029157620002916200021a565b6020620002a7601f8301601f1916820162000230565b8281528582848701011115620002bc57600080fd5b60005b83811015620002dc578581018301518282018401528201620002bf565b83811115620002ee5760008385840101525b5095945050505050565b600080600080600060a086880312156200031157600080fd5b85516001600160401b03808211156200032957600080fd5b6200033789838a0162000263565b96506020915081880151818111156200034f57600080fd5b6200035d8a828b0162000263565b9650506040880151818111156200037357600080fd5b620003818a828b0162000263565b955050606088015193506080880151818111156200039e57600080fd5b8801601f81018a13620003b057600080fd5b805182811115620003c557620003c56200021a565b8060051b9250620003d884840162000230565b818152928201840192848101908c851115620003f357600080fd5b928501925b848410156200042d57835192506001600160a01b03831683146200041c5760008081fd5b8282529285019290850190620003f8565b8096505050505050509295509295909350565b600181811c908216806200045557607f821691505b602082108114156200047757634e487b7160e01b600052602260045260246000fd5b50919050565b610e70806200048d6000396000f3fe608060405234801561001057600080fd5b50600436106100ea5760003560e01c8063af2b843e1161008c578063d838fcc311610066578063d838fcc3146101ea578063d9daab9b146101fd578063f2fde38b14610205578063fe704a9d1461021857600080fd5b8063af2b843e1461017e578063c731fc7b1461019e578063d5a056d8146101d757600080fd5b8063458f1a29116100c8578063458f1a2914610135578063600dad1d14610146578063715018a61461015b5780638da5cb5b1461016357600080fd5b8063072dbf2f146100ef5780632c4c47621461010d57806332db40b914610122575b600080fd5b6100f7610220565b6040516101049190610adb565b60405180910390f35b61012061011b366004610bb4565b610282565b005b610120610130366004610c43565b610410565b600354604051908152602001610104565b61014e61046c565b6040516101049190610ca9565b6101206104f5565b6000546040516001600160a01b039091168152602001610104565b61019161018c366004610c43565b61055b565b6040516101049190610cc3565b6101ca6101ac366004610d3d565b6001600160a01b03166000908152600a602052604090205460ff1690565b6040516101049190610d6e565b6101206101e5366004610d3d565b610789565b6101206101f8366004610d96565b610832565b61014e610929565b610120610213366004610d3d565b610938565b61014e6109e3565b6060600780548060200260200160405190810160405280929190818152602001828054801561027857602002820191906000526020600020905b81546001600160a01b0316815260019091019060200180831161025a575b5050505050905090565b6000546001600160a01b03163314806102bd5750336000908152600a602052604081205460ff1660068111156102ba576102ba610d58565b14155b6102e25760405162461bcd60e51b81526004016102d990610dc0565b60405180910390fd5b604080516080810182524281523360208083019182529282018581526060830185905260068054600181018255600091909152835160049091027ff652222313e28459528d920b65115c16c04f3efc82aaedc97be59f3f377c0d3f810191825592517ff652222313e28459528d920b65115c16c04f3efc82aaedc97be59f3f377c0d40840180546001600160a01b03929092166001600160a01b031990921691909117905590518051939491936103c0937ff652222313e28459528d920b65115c16c04f3efc82aaedc97be59f3f377c0d4101929190910190610a42565b50606082015180516103dc916003840191602090910190610a42565b505060405130915033907f9e003c88e545ece8ffbfec54d83dd54505596c479a3c3a1de531bf602682c64290600090a35050565b6000546001600160a01b031633148061044b5750336000908152600a602052604081205460ff16600681111561044857610448610d58565b14155b6104675760405162461bcd60e51b81526004016102d990610dc0565b600355565b60606004805461047b90610def565b80601f01602080910402602001604051908101604052809291908181526020018280546104a790610def565b80156102785780601f106104c957610100808354040283529160200191610278565b820191906000526020600020905b8154815290600101906020018083116104d757509395945050505050565b6000546001600160a01b0316331461054f5760405162461bcd60e51b815260206004820181905260248201527f4f776e61626c653a2063616c6c6572206973206e6f7420746865206f776e657260448201526064016102d9565b61055960006109f2565b565b61058f60405180608001604052806000815260200160006001600160a01b0316815260200160608152602001606081525090565b8160065481106105f75760405162461bcd60e51b815260206004820152602d60248201527f4552524f523a20546865206576656e74206e756d626572206d7573742062652060448201526c77697468696e2072616e67652160981b60648201526084016102d9565b6006838154811061060a5761060a610e24565b9060005260206000209060040201604051806080016040529081600082015481526020016001820160009054906101000a90046001600160a01b03166001600160a01b03166001600160a01b0316815260200160028201805461066c90610def565b80601f016020809104026020016040519081016040528092919081815260200182805461069890610def565b80156106e55780601f106106ba576101008083540402835291602001916106e5565b820191906000526020600020905b8154815290600101906020018083116106c857829003601f168201915b505050505081526020016003820180546106fe90610def565b80601f016020809104026020016040519081016040528092919081815260200182805461072a90610def565b80156107775780601f1061074c57610100808354040283529160200191610777565b820191906000526020600020905b81548152906001019060200180831161075a57829003601f168201915b50505050508152505091505b50919050565b6000546001600160a01b03163314806107c45750336000908152600a602052604081205460ff1660068111156107c1576107c1610d58565b14155b6107e05760405162461bcd60e51b81526004016102d990610dc0565b600780546001810182556000919091527fa66cc928b5edb82af9bd49922954155ab7b0942694bea4ce44661d9a8736c6880180546001600160a01b0319166001600160a01b0392909216919091179055565b6000546001600160a01b031633148061086d5750336000908152600a602052604081205460ff16600681111561086a5761086a610d58565b14155b6108895760405162461bcd60e51b81526004016102d990610dc0565b8060068111156108db5760405162461bcd60e51b815260206004820152601e60248201527f4552524f5220726f6c65206e756d626572206f7574206f662072616e6765000060448201526064016102d9565b8160068111156108ed576108ed610d58565b6001600160a01b0384166000908152600a60205260409020805460ff1916600183600681111561091f5761091f610d58565b0217905550505050565b60606002805461047b90610def565b3361094b6000546001600160a01b031690565b6001600160a01b0316148061096957506000546001600160a01b0316155b61097257600080fd5b6001600160a01b0381166109d75760405162461bcd60e51b815260206004820152602660248201527f4f776e61626c653a206e6577206f776e657220697320746865207a65726f206160448201526564647265737360d01b60648201526084016102d9565b6109e0816109f2565b50565b60606001805461047b90610def565b600080546001600160a01b038381166001600160a01b0319831681178455604051919092169283917f8be0079c531659141344cd1fd0a4f28419497f9722a3daafe3b4186f6b6457e09190a35050565b828054610a4e90610def565b90600052602060002090601f016020900481019282610a705760008555610ab6565b82601f10610a8957805160ff1916838001178555610ab6565b82800160010185558215610ab6579182015b82811115610ab6578251825591602001919060010190610a9b565b50610ac2929150610ac6565b5090565b5b80821115610ac25760008155600101610ac7565b6020808252825182820181905260009190848201906040850190845b81811015610b1c5783516001600160a01b031683529284019291840191600101610af7565b50909695505050505050565b634e487b7160e01b600052604160045260246000fd5b600067ffffffffffffffff80841115610b5957610b59610b28565b604051601f8501601f19908116603f01168101908282118183101715610b8157610b81610b28565b81604052809350858152868686011115610b9a57600080fd5b858560208301376000602087830101525050509392505050565b60008060408385031215610bc757600080fd5b823567ffffffffffffffff80821115610bdf57600080fd5b818501915085601f830112610bf357600080fd5b610c0286833560208501610b3e565b93506020850135915080821115610c1857600080fd5b508301601f81018513610c2a57600080fd5b610c3985823560208401610b3e565b9150509250929050565b600060208284031215610c5557600080fd5b5035919050565b6000815180845260005b81811015610c8257602081850181015186830182015201610c66565b81811115610c94576000602083870101525b50601f01601f19169290920160200192915050565b602081526000610cbc6020830184610c5c565b9392505050565b602081528151602082015260018060a01b0360208301511660408201526000604083015160806060840152610cfb60a0840182610c5c565b90506060840151601f19848303016080850152610d188282610c5c565b95945050505050565b80356001600160a01b0381168114610d3857600080fd5b919050565b600060208284031215610d4f57600080fd5b610cbc82610d21565b634e487b7160e01b600052602160045260246000fd5b6020810160078310610d9057634e487b7160e01b600052602160045260246000fd5b91905290565b60008060408385031215610da957600080fd5b610db283610d21565b946020939093013593505050565b60208082526015908201527411549493d48e881b9bdd08185d5d1a1bdc9a5e9959605a1b604082015260600190565b600181811c90821680610e0357607f821691505b6020821081141561078357634e487b7160e01b600052602260045260246000fd5b634e487b7160e01b600052603260045260246000fdfea26469706673582212201366f285e2fb313cfbf745906cdad8297bf089a7cadee13f523e44f91dee201264736f6c634300080b0033",
  "immutableReferences": {},
  "source": "// SPDX-License-Identifier: MIT\npragma solidity >=0.4.22 <0.9.0;\n\nimport \"@openzeppelin/contracts/access/Ownable.sol\";\n\nenum Role {\n    disabled,\n    farmer,\n    agrifirm,\n    certifier,\n    publicbody,\n    retailer,\n    reseller\n  }\n\ncontract Resource is Ownable {\n\n  string        private _name;\n  string        private _description;\n  uint          private _quantity;\n  string        private _unitOfMeasure;\n  uint32        private _minTimeInterval;\n  AgriEvent[]   private _agriEvents;  \n  address[]     private _origins;\n  address[]     private _roles;\n  ResourceType  private _resourceType;\n  mapping ( address => Role ) private _authorized;\n  \n  enum ResourceType {\n    primary,\n    product\n  }\n  \n  struct AgriEvent {\n    uint dateTime;\n    address registrant;\n    string name;\n    bytes parameters;\n  }\n    \n  event agriEvent (address indexed registrant, address indexed resource);\n  \n  constructor (\n    string memory name,\n    string memory description,\n    string memory unitOfMeasure,\n    uint quantity,\n    address[] memory origins\n  ) Ownable() {\n    _name = name;\n    _description = description;\n    _unitOfMeasure = unitOfMeasure;\n    _quantity = quantity;\n    _origins = origins;\n    if (origins.length == 0){\n      _resourceType = ResourceType.primary;\n    } else {\n      _resourceType = ResourceType.product;\n    }\n  }\n  \n  function transferOwnership(\n    address newOwner\n  ) public override onlyOwnerOrUninitialized {\n    require(newOwner != address(0), \"Ownable: new owner is the zero address\");\n    _transferOwnership(newOwner);\n  }\n\n  modifier onlyOwnerOrUninitialized(){\n    require(owner() == msg.sender || owner() == address(0));\n    _;\n  }\n\n  modifier roleInRange(uint i) {\n    require(i >= 0 && i <= uint(type(Role).max), \n              \"ERROR role number out of range\");\n    _;\n  }\n  modifier eventInRange(uint eventNr) {\n    require(eventNr >= 0 && eventNr < _agriEvents.length, \n              \"ERROR: The event number must be within range!\");\n    _;\n  }\n  modifier onlyAuthorized() {\n    require(msg.sender == owner() || _authorized[msg.sender] != Role.disabled,\n              \"ERROR: not authorized\");\n    _;\n  }\n  modifier onlyCertifiers() {\n    require(msg.sender == owner() || _authorized[msg.sender] != Role.disabled,\n              \"ERROR: not authorized\");\n    _;\n  }\n\n  function AddEvent (\n    string memory name,\n    bytes memory parameters\n  ) onlyAuthorized public {\n    _agriEvents.push(AgriEvent(block.timestamp, msg.sender, name, parameters));\n    emit agriEvent( msg.sender, address(this));\n  }\n\n  function SetQuantity(uint quantity)\n    onlyAuthorized public {\n    _quantity = quantity;\n  }\n\n  function AddOrigin (\n    address originAddr\n  ) onlyAuthorized public {\n    _origins.push(originAddr);\n  }\n\n  function addAuthorized (\n    address authAddr,\n    uint role\n  ) onlyAuthorized roleInRange(role) public {\n    _authorized[authAddr] = Role(role);\n  }\n    \n  function ReadEvent(\n    uint eventNr\n  ) public view eventInRange(eventNr)\n  returns ( AgriEvent memory) {\n    return _agriEvents[eventNr];\n  }\n\n  function GetName ()\n    public view \n  returns ( string memory ) {\n    return _name;\n  }\n\n  function GetDescription ()\n    public view \n  returns ( string memory ) {\n    return _description;\n  }\n\n  function GetUnitOfMeasure ()\n    public view \n  returns ( string memory ) {\n    return _unitOfMeasure;\n  }\n\n  function GetQuantity ()\n    public view \n  returns ( uint ) {\n    return _quantity;\n  }\n\n  function GetOrigins ()\n    public view \n  returns ( address[] memory ) {\n    return _origins;\n  }\n\n  function getAuthorized (\n    address authAddress\n  ) public view \n  returns ( Role ) {\n    return _authorized[authAddress];\n  } \n}\n",
  "sourcePath": "/home/mgpop/Dev/Agri_EVM_IOTA/contracts/Resource.sol",
  "compiler": {
    "name": "solc",
    "version": "0.8.11+commit.d7f03943.Emscripten.clang"
  },
  "schemaVersion": "3.4.4",
  "updatedAt": "2022-02-03T09:53:41.146Z",
  "devdoc": {
    "kind": "dev",
    "methods": {
      "owner()": {
        "details": "Returns the address of the current owner."
      },
      "renounceOwnership()": {
        "details": "Leaves the contract without owner. It will not be possible to call `onlyOwner` functions anymore. Can only be called by the current owner. NOTE: Renouncing ownership will leave the contract without an owner, thereby removing any functionality that is only available to the owner."
      },
      "transferOwnership(address)": {
        "details": "Transfers ownership of the contract to a new account (`newOwner`). Can only be called by the current owner."
      }
    },
    "version": 1
  },
  "userdoc": {
    "kind": "user",
    "methods": {},
    "version": 1
  }
}