{
  "contractName": "Resource",
  "abi": [
    {
      "inputs": [
        {
          "internalType": "string",
          "name": "name",
          "type": "string"
        },
        {
          "internalType": "string",
          "name": "description",
          "type": "string"
        },
        {
          "internalType": "address[]",
          "name": "origins",
          "type": "address[]"
        }
      ],
      "stateMutability": "nonpayable",
      "type": "constructor"
    },
    {
      "anonymous": false,
      "inputs": [
        {
          "indexed": true,
          "internalType": "address",
          "name": "previousOwner",
          "type": "address"
        },
        {
          "indexed": true,
          "internalType": "address",
          "name": "newOwner",
          "type": "address"
        }
      ],
      "name": "OwnershipTransferred",
      "type": "event"
    },
    {
      "anonymous": false,
      "inputs": [
        {
          "indexed": true,
          "internalType": "address",
          "name": "registrant",
          "type": "address"
        },
        {
          "indexed": true,
          "internalType": "address",
          "name": "resource",
          "type": "address"
        }
      ],
      "name": "agriEvent",
      "type": "event"
    },
    {
      "inputs": [],
      "name": "owner",
      "outputs": [
        {
          "internalType": "address",
          "name": "",
          "type": "address"
        }
      ],
      "stateMutability": "view",
      "type": "function"
    },
    {
      "inputs": [],
      "name": "renounceOwnership",
      "outputs": [],
      "stateMutability": "nonpayable",
      "type": "function"
    },
    {
      "inputs": [
        {
          "internalType": "address",
          "name": "newOwner",
          "type": "address"
        }
      ],
      "name": "transferOwnership",
      "outputs": [],
      "stateMutability": "nonpayable",
      "type": "function"
    },
    {
      "inputs": [
        {
          "internalType": "address",
          "name": "authAddr",
          "type": "address"
        },
        {
          "internalType": "enum Role",
          "name": "role",
          "type": "uint8"
        }
      ],
      "name": "addAuthorized",
      "outputs": [],
      "stateMutability": "nonpayable",
      "type": "function"
    },
    {
      "inputs": [
        {
          "internalType": "address",
          "name": "authAddress",
          "type": "address"
        }
      ],
      "name": "getAuthorized",
      "outputs": [
        {
          "internalType": "enum Role",
          "name": "",
          "type": "uint8"
        }
      ],
      "stateMutability": "view",
      "type": "function"
    },
    {
      "inputs": [
        {
          "internalType": "string",
          "name": "name",
          "type": "string"
        },
        {
          "internalType": "string",
          "name": "parameters",
          "type": "string"
        }
      ],
      "name": "AddEvent",
      "outputs": [],
      "stateMutability": "nonpayable",
      "type": "function"
    },
    {
      "inputs": [
        {
          "internalType": "uint256",
          "name": "eventNr",
          "type": "uint256"
        }
      ],
      "name": "ReadEvent",
      "outputs": [
        {
          "components": [
            {
              "internalType": "uint256",
              "name": "dateTime",
              "type": "uint256"
            },
            {
              "internalType": "address",
              "name": "registrant",
              "type": "address"
            },
            {
              "internalType": "string",
              "name": "name",
              "type": "string"
            },
            {
              "internalType": "string",
              "name": "parameters",
              "type": "string"
            }
          ],
          "internalType": "struct Resource.AgriEvent",
          "name": "",
          "type": "tuple"
        }
      ],
      "stateMutability": "view",
      "type": "function"
    }
  ],
  "bytecode": "0x60806040523480156200001157600080fd5b50604051620018e7380380620018e7833981810160405281019062000037919062000601565b620000576200004b6200011960201b60201c565b6200012160201b60201c565b82600190805190602001906200006f929190620001e5565b50816002908051906020019062000088929190620001e5565b508060079080519060200190620000a192919062000276565b50600081511415620000e1576000600860006101000a81548160ff02191690836001811115620000d657620000d5620006ba565b5b021790555062000110565b6001600860006101000a81548160ff021916908360018111156200010a5762000109620006ba565b5b02179055505b5050506200074e565b600033905090565b60008060009054906101000a900473ffffffffffffffffffffffffffffffffffffffff169050816000806101000a81548173ffffffffffffffffffffffffffffffffffffffff021916908373ffffffffffffffffffffffffffffffffffffffff1602179055508173ffffffffffffffffffffffffffffffffffffffff168173ffffffffffffffffffffffffffffffffffffffff167f8be0079c531659141344cd1fd0a4f28419497f9722a3daafe3b4186f6b6457e060405160405180910390a35050565b828054620001f39062000718565b90600052602060002090601f01602090048101928262000217576000855562000263565b82601f106200023257805160ff191683800117855562000263565b8280016001018555821562000263579182015b828111156200026257825182559160200191906001019062000245565b5b50905062000272919062000305565b5090565b828054828255906000526020600020908101928215620002f2579160200282015b82811115620002f15782518260006101000a81548173ffffffffffffffffffffffffffffffffffffffff021916908373ffffffffffffffffffffffffffffffffffffffff1602179055509160200191906001019062000297565b5b50905062000301919062000305565b5090565b5b808211156200032057600081600090555060010162000306565b5090565b6000604051905090565b600080fd5b600080fd5b600080fd5b600080fd5b6000601f19601f8301169050919050565b7f4e487b7100000000000000000000000000000000000000000000000000000000600052604160045260246000fd5b6200038d8262000342565b810181811067ffffffffffffffff82111715620003af57620003ae62000353565b5b80604052505050565b6000620003c462000324565b9050620003d2828262000382565b919050565b600067ffffffffffffffff821115620003f557620003f462000353565b5b620004008262000342565b9050602081019050919050565b60005b838110156200042d57808201518184015260208101905062000410565b838111156200043d576000848401525b50505050565b60006200045a6200045484620003d7565b620003b8565b9050828152602081018484840111156200047957620004786200033d565b5b620004868482856200040d565b509392505050565b600082601f830112620004a657620004a562000338565b5b8151620004b884826020860162000443565b91505092915050565b600067ffffffffffffffff821115620004df57620004de62000353565b5b602082029050602081019050919050565b600080fd5b600073ffffffffffffffffffffffffffffffffffffffff82169050919050565b60006200052282620004f5565b9050919050565b620005348162000515565b81146200054057600080fd5b50565b600081519050620005548162000529565b92915050565b6000620005716200056b84620004c1565b620003b8565b90508083825260208201905060208402830185811115620005975762000596620004f0565b5b835b81811015620005c45780620005af888262000543565b84526020840193505060208101905062000599565b5050509392505050565b600082601f830112620005e657620005e562000338565b5b8151620005f88482602086016200055a565b91505092915050565b6000806000606084860312156200061d576200061c6200032e565b5b600084015167ffffffffffffffff8111156200063e576200063d62000333565b5b6200064c868287016200048e565b935050602084015167ffffffffffffffff81111562000670576200066f62000333565b5b6200067e868287016200048e565b925050604084015167ffffffffffffffff811115620006a257620006a162000333565b5b620006b086828701620005ce565b9150509250925092565b7f4e487b7100000000000000000000000000000000000000000000000000000000600052602160045260246000fd5b7f4e487b7100000000000000000000000000000000000000000000000000000000600052602260045260246000fd5b600060028204905060018216806200073157607f821691505b60208210811415620007485762000747620006e9565b5b50919050565b611189806200075e6000396000f3fe608060405234801561001057600080fd5b506004361061007d5760003560e01c806397be307f1161005b57806397be307f146100c6578063af2b843e146100e2578063c731fc7b14610112578063f2fde38b146101425761007d565b8063715018a614610082578063798759e91461008c5780638da5cb5b146100a8575b600080fd5b61008a61015e565b005b6100a660048036038101906100a19190610aa6565b6101e6565b005b6100b06102cd565b6040516100bd9190610af5565b60405180910390f35b6100e060048036038101906100db9190610c56565b6102f6565b005b6100fc60048036038101906100f79190610d04565b6104fe565b6040516101099190610e41565b60405180910390f35b61012c60048036038101906101279190610e63565b610714565b6040516101399190610f07565b60405180910390f35b61015c60048036038101906101579190610e63565b61076a565b005b610166610862565b73ffffffffffffffffffffffffffffffffffffffff166101846102cd565b73ffffffffffffffffffffffffffffffffffffffff16146101da576040517f08c379a00000000000000000000000000000000000000000000000000000000081526004016101d190610f7f565b60405180910390fd5b6101e4600061086a565b565b6101ee610862565b73ffffffffffffffffffffffffffffffffffffffff1661020c6102cd565b73ffffffffffffffffffffffffffffffffffffffff1614610262576040517f08c379a000000000000000000000000000000000000000000000000000000000815260040161025990610f7f565b60405180910390fd5b80600a60008473ffffffffffffffffffffffffffffffffffffffff1673ffffffffffffffffffffffffffffffffffffffff16815260200190815260200160002060006101000a81548160ff021916908360068111156102c4576102c3610e90565b5b02179055505050565b60008060009054906101000a900473ffffffffffffffffffffffffffffffffffffffff16905090565b6102fe6102cd565b73ffffffffffffffffffffffffffffffffffffffff163373ffffffffffffffffffffffffffffffffffffffff1614806103a857506000600681111561034657610345610e90565b5b600a60003373ffffffffffffffffffffffffffffffffffffffff1673ffffffffffffffffffffffffffffffffffffffff16815260200190815260200160002060009054906101000a900460ff1660068111156103a5576103a4610e90565b5b14155b6103b157600080fd5b600660405180608001604052804281526020013373ffffffffffffffffffffffffffffffffffffffff1681526020018481526020018381525090806001815401808255809150506001900390600052602060002090600402016000909190919091506000820151816000015560208201518160010160006101000a81548173ffffffffffffffffffffffffffffffffffffffff021916908373ffffffffffffffffffffffffffffffffffffffff160217905550604082015181600201908051906020019061048092919061092e565b50606082015181600301908051906020019061049d92919061092e565b5050503073ffffffffffffffffffffffffffffffffffffffff163373ffffffffffffffffffffffffffffffffffffffff167f9e003c88e545ece8ffbfec54d83dd54505596c479a3c3a1de531bf602682c64260405160405180910390a35050565b6105066109b4565b8160008110158061051c57506006805490508111155b61055b576040517f08c379a000000000000000000000000000000000000000000000000000000000815260040161055290611011565b60405180910390fd5b6006838154811061056f5761056e611031565b5b9060005260206000209060040201604051806080016040529081600082015481526020016001820160009054906101000a900473ffffffffffffffffffffffffffffffffffffffff1673ffffffffffffffffffffffffffffffffffffffff1673ffffffffffffffffffffffffffffffffffffffff1681526020016002820180546105f89061108f565b80601f01602080910402602001604051908101604052809291908181526020018280546106249061108f565b80156106715780601f1061064657610100808354040283529160200191610671565b820191906000526020600020905b81548152906001019060200180831161065457829003601f168201915b5050505050815260200160038201805461068a9061108f565b80601f01602080910402602001604051908101604052809291908181526020018280546106b69061108f565b80156107035780601f106106d857610100808354040283529160200191610703565b820191906000526020600020905b8154815290600101906020018083116106e657829003601f168201915b505050505081525050915050919050565b6000600a60008373ffffffffffffffffffffffffffffffffffffffff1673ffffffffffffffffffffffffffffffffffffffff16815260200190815260200160002060009054906101000a900460ff169050919050565b610772610862565b73ffffffffffffffffffffffffffffffffffffffff166107906102cd565b73ffffffffffffffffffffffffffffffffffffffff16146107e6576040517f08c379a00000000000000000000000000000000000000000000000000000000081526004016107dd90610f7f565b60405180910390fd5b600073ffffffffffffffffffffffffffffffffffffffff168173ffffffffffffffffffffffffffffffffffffffff161415610856576040517f08c379a000000000000000000000000000000000000000000000000000000000815260040161084d90611133565b60405180910390fd5b61085f8161086a565b50565b600033905090565b60008060009054906101000a900473ffffffffffffffffffffffffffffffffffffffff169050816000806101000a81548173ffffffffffffffffffffffffffffffffffffffff021916908373ffffffffffffffffffffffffffffffffffffffff1602179055508173ffffffffffffffffffffffffffffffffffffffff168173ffffffffffffffffffffffffffffffffffffffff167f8be0079c531659141344cd1fd0a4f28419497f9722a3daafe3b4186f6b6457e060405160405180910390a35050565b82805461093a9061108f565b90600052602060002090601f01602090048101928261095c57600085556109a3565b82601f1061097557805160ff19168380011785556109a3565b828001600101855582156109a3579182015b828111156109a2578251825591602001919060010190610987565b5b5090506109b091906109f2565b5090565b604051806080016040528060008152602001600073ffffffffffffffffffffffffffffffffffffffff16815260200160608152602001606081525090565b5b80821115610a0b5760008160009055506001016109f3565b5090565b6000604051905090565b600080fd5b600080fd5b600073ffffffffffffffffffffffffffffffffffffffff82169050919050565b6000610a4e82610a23565b9050919050565b610a5e81610a43565b8114610a6957600080fd5b50565b600081359050610a7b81610a55565b92915050565b60078110610a8e57600080fd5b50565b600081359050610aa081610a81565b92915050565b60008060408385031215610abd57610abc610a19565b5b6000610acb85828601610a6c565b9250506020610adc85828601610a91565b9150509250929050565b610aef81610a43565b82525050565b6000602082019050610b0a6000830184610ae6565b92915050565b600080fd5b600080fd5b6000601f19601f8301169050919050565b7f4e487b7100000000000000000000000000000000000000000000000000000000600052604160045260246000fd5b610b6382610b1a565b810181811067ffffffffffffffff82111715610b8257610b81610b2b565b5b80604052505050565b6000610b95610a0f565b9050610ba18282610b5a565b919050565b600067ffffffffffffffff821115610bc157610bc0610b2b565b5b610bca82610b1a565b9050602081019050919050565b82818337600083830152505050565b6000610bf9610bf484610ba6565b610b8b565b905082815260208101848484011115610c1557610c14610b15565b5b610c20848285610bd7565b509392505050565b600082601f830112610c3d57610c3c610b10565b5b8135610c4d848260208601610be6565b91505092915050565b60008060408385031215610c6d57610c6c610a19565b5b600083013567ffffffffffffffff811115610c8b57610c8a610a1e565b5b610c9785828601610c28565b925050602083013567ffffffffffffffff811115610cb857610cb7610a1e565b5b610cc485828601610c28565b9150509250929050565b6000819050919050565b610ce181610cce565b8114610cec57600080fd5b50565b600081359050610cfe81610cd8565b92915050565b600060208284031215610d1a57610d19610a19565b5b6000610d2884828501610cef565b91505092915050565b610d3a81610cce565b82525050565b610d4981610a43565b82525050565b600081519050919050565b600082825260208201905092915050565b60005b83811015610d89578082015181840152602081019050610d6e565b83811115610d98576000848401525b50505050565b6000610da982610d4f565b610db38185610d5a565b9350610dc3818560208601610d6b565b610dcc81610b1a565b840191505092915050565b6000608083016000830151610def6000860182610d31565b506020830151610e026020860182610d40565b5060408301518482036040860152610e1a8282610d9e565b91505060608301518482036060860152610e348282610d9e565b9150508091505092915050565b60006020820190508181036000830152610e5b8184610dd7565b905092915050565b600060208284031215610e7957610e78610a19565b5b6000610e8784828501610a6c565b91505092915050565b7f4e487b7100000000000000000000000000000000000000000000000000000000600052602160045260246000fd5b60078110610ed057610ecf610e90565b5b50565b6000819050610ee182610ebf565b919050565b6000610ef182610ed3565b9050919050565b610f0181610ee6565b82525050565b6000602082019050610f1c6000830184610ef8565b92915050565b600082825260208201905092915050565b7f4f776e61626c653a2063616c6c6572206973206e6f7420746865206f776e6572600082015250565b6000610f69602083610f22565b9150610f7482610f33565b602082019050919050565b60006020820190508181036000830152610f9881610f5c565b9050919050565b7f4552524f523a20546865206576656e74206e756d626572206d7573742062652060008201527f77697468696e2072616e67652100000000000000000000000000000000000000602082015250565b6000610ffb602d83610f22565b915061100682610f9f565b604082019050919050565b6000602082019050818103600083015261102a81610fee565b9050919050565b7f4e487b7100000000000000000000000000000000000000000000000000000000600052603260045260246000fd5b7f4e487b7100000000000000000000000000000000000000000000000000000000600052602260045260246000fd5b600060028204905060018216806110a757607f821691505b602082108114156110bb576110ba611060565b5b50919050565b7f4f776e61626c653a206e6577206f776e657220697320746865207a65726f206160008201527f6464726573730000000000000000000000000000000000000000000000000000602082015250565b600061111d602683610f22565b9150611128826110c1565b604082019050919050565b6000602082019050818103600083015261114c81611110565b905091905056fea2646970667358221220d9065199632c198214894f1bdaed79ceecb0d29528b6a03cef5efb0a8923c3ae64736f6c634300080a0033",
  "immutableReferences": {},
  "source": "// SPDX-License-Identifier: MIT\npragma solidity >=0.4.22 <0.9.0;\n\nimport \"@openzeppelin/contracts/access/Ownable.sol\";\n\nenum Role {\n    disabled,\n    farmer,\n    agrifirm,\n    certifier,\n    publicbody,\n    retailer,\n    reseller\n  }\n\ncontract Resource is Ownable {\n\n  string        _name;\n  string        _description;\n  uint32        _quantity;\n  string        _unitOfMeasure;\n  uint32        _minTimeInterval;\n  AgriEvent[]   _agriEvents;  \n  address[]     _origins;\n  ResourceType  _resourceType;\n  \n  enum ResourceType {\n    primary,\n    product\n  }\n\n  struct AgriEvent {\n    uint dateTime;\n    address registrant;\n    string name;\n    string parameters;\n  }\n\n  address[] _roles;\n  mapping ( address => Role ) _authorized;\n  \n    \n  event agriEvent (address indexed registrant, address indexed resource);\n  \n  constructor (\n    string memory name,\n    string memory description,\n    address[] memory origins\n  ) Ownable() {\n    _name = name;\n    _description = description;\n    _origins = origins;\n    if (origins.length == 0){\n      _resourceType = ResourceType.primary;\n    } else {\n      _resourceType = ResourceType.product;\n    }\n  }\n  \n  modifier onlyAuthorized() {\n    require(msg.sender == owner() || _authorized[msg.sender] != Role.disabled);\n    _;\n  }\n\n  modifier ifInRange( uint eventNr  ) {\n      require(eventNr >= 0 || eventNr <= _agriEvents.length, \"ERROR: The event number must be within range!\");\n      _;\n  }\n\n  // function getAccount (\n  //   address authAddress\n  // ) public\n  //   view \n  // returns ( address ) {\n  //   _authorized[authAddress];\n  // }\n\n  function addAuthorized (\n    address authAddr,\n    Role role\n  ) onlyOwner\n    public {\n    _authorized[authAddr] = role;\n  }\n\n  function getAuthorized (\n    address authAddress\n  ) public\n    view \n  returns ( Role ) {\n    return _authorized[authAddress];\n  }\n\n  function AddEvent (\n    string memory name,\n    string memory parameters\n  ) onlyAuthorized\n    public {\n    _agriEvents.push(AgriEvent( block.timestamp, msg.sender, name, parameters ));\n    emit agriEvent( msg.sender, address(this));\n  }\n    \n  function ReadEvent(\n    uint eventNr\n  ) ifInRange (\n    eventNr\n  ) public\n  view\n  returns ( AgriEvent memory) {\n    return _agriEvents[eventNr];\n  } \n}\n",
  "sourcePath": "/home/mgpop/Studies/Dev/Agri_EVM_IOTA/contracts/Resource.sol",
  "compiler": {
    "name": "solc",
    "version": "0.8.10+commit.fc410830.Emscripten.clang"
  },
  "schemaVersion": "3.4.4",
  "updatedAt": "2022-01-05T17:38:52.432Z",
  "devdoc": {
    "kind": "dev",
    "methods": {
      "owner()": {
        "details": "Returns the address of the current owner."
      },
      "renounceOwnership()": {
        "details": "Leaves the contract without owner. It will not be possible to call `onlyOwner` functions anymore. Can only be called by the current owner. NOTE: Renouncing ownership will leave the contract without an owner, thereby removing any functionality that is only available to the owner."
      },
      "transferOwnership(address)": {
        "details": "Transfers ownership of the contract to a new account (`newOwner`). Can only be called by the current owner."
      }
    },
    "version": 1
  },
  "userdoc": {
    "kind": "user",
    "methods": {},
    "version": 1
  }
}